{
  "contractName": "Erebor",
  "abi": [
    {
      "constant": true,
      "inputs": [],
      "name": "RNTAddr",
      "outputs": [
        {
          "name": "",
          "type": "address"
        }
      ],
      "payable": false,
      "stateMutability": "view",
      "type": "function",
      "signature": "0x06491eff"
    },
    {
      "constant": true,
      "inputs": [],
      "name": "difficulty",
      "outputs": [
        {
          "name": "",
          "type": "bytes32"
        }
      ],
      "payable": false,
      "stateMutability": "view",
      "type": "function",
      "signature": "0x19cae462"
    },
    {
      "constant": true,
      "inputs": [],
      "name": "debug6",
      "outputs": [
        {
          "name": "",
          "type": "bool"
        }
      ],
      "payable": false,
      "stateMutability": "view",
      "type": "function",
      "signature": "0x26593be7"
    },
    {
      "constant": true,
      "inputs": [],
      "name": "validator",
      "outputs": [
        {
          "name": "",
          "type": "address"
        }
      ],
      "payable": false,
      "stateMutability": "view",
      "type": "function",
      "signature": "0x3a5381b5"
    },
    {
      "constant": true,
      "inputs": [
        {
          "name": "",
          "type": "uint256"
        }
      ],
      "name": "battleHistory",
      "outputs": [
        {
          "name": "merkleRoot",
          "type": "bytes32"
        },
        {
          "name": "ipfsAddr",
          "type": "string"
        }
      ],
      "payable": false,
      "stateMutability": "view",
      "type": "function",
      "signature": "0x4ccc616d"
    },
    {
      "constant": true,
      "inputs": [],
      "name": "debug2",
      "outputs": [
        {
          "name": "",
          "type": "bool"
        }
      ],
      "payable": false,
      "stateMutability": "view",
      "type": "function",
      "signature": "0x5ba88c28"
    },
    {
      "constant": true,
      "inputs": [],
      "name": "debug3",
      "outputs": [
        {
          "name": "",
          "type": "bool"
        }
      ],
      "payable": false,
      "stateMutability": "view",
      "type": "function",
      "signature": "0x610da891"
    },
    {
      "constant": true,
      "inputs": [],
      "name": "maxPlayer",
      "outputs": [
        {
          "name": "",
          "type": "uint256"
        }
      ],
      "payable": false,
      "stateMutability": "view",
      "type": "function",
      "signature": "0x6426b1e4"
    },
    {
      "constant": true,
      "inputs": [],
      "name": "playercount",
      "outputs": [
        {
          "name": "",
          "type": "uint256"
        }
      ],
      "payable": false,
      "stateMutability": "view",
      "type": "function",
      "signature": "0x6b180b59"
    },
    {
      "constant": true,
      "inputs": [],
      "name": "board",
      "outputs": [
        {
          "name": "",
          "type": "bytes32"
        }
      ],
      "payable": false,
      "stateMutability": "view",
      "type": "function",
      "signature": "0x7cd3229a"
    },
    {
      "constant": true,
      "inputs": [],
      "name": "debug1",
      "outputs": [
        {
          "name": "",
          "type": "bool"
        }
      ],
      "payable": false,
      "stateMutability": "view",
      "type": "function",
      "signature": "0x7dc7c5a5"
    },
    {
      "constant": true,
      "inputs": [],
      "name": "defender",
      "outputs": [
        {
          "name": "",
          "type": "address"
        }
      ],
      "payable": false,
      "stateMutability": "view",
      "type": "function",
      "signature": "0x7f4c91c5"
    },
    {
      "constant": true,
      "inputs": [],
      "name": "ticketSeed",
      "outputs": [
        {
          "name": "",
          "type": "bytes32"
        }
      ],
      "payable": false,
      "stateMutability": "view",
      "type": "function",
      "signature": "0x8186a8f9"
    },
    {
      "constant": true,
      "inputs": [],
      "name": "ELEMAddr",
      "outputs": [
        {
          "name": "",
          "type": "address"
        }
      ],
      "payable": false,
      "stateMutability": "view",
      "type": "function",
      "signature": "0x885869dc"
    },
    {
      "constant": true,
      "inputs": [],
      "name": "debug5",
      "outputs": [
        {
          "name": "",
          "type": "bool"
        }
      ],
      "payable": false,
      "stateMutability": "view",
      "type": "function",
      "signature": "0x9b76d3f9"
    },
    {
      "constant": true,
      "inputs": [],
      "name": "period_all",
      "outputs": [
        {
          "name": "",
          "type": "uint256"
        }
      ],
      "payable": false,
      "stateMutability": "view",
      "type": "function",
      "signature": "0xa4dd1d7d"
    },
    {
      "constant": true,
      "inputs": [],
      "name": "initHeight",
      "outputs": [
        {
          "name": "",
          "type": "uint256"
        }
      ],
      "payable": false,
      "stateMutability": "view",
      "type": "function",
      "signature": "0xa78eacdb"
    },
    {
      "constant": true,
      "inputs": [],
      "name": "debug4",
      "outputs": [
        {
          "name": "",
          "type": "bool"
        }
      ],
      "payable": false,
      "stateMutability": "view",
      "type": "function",
      "signature": "0xb70902bc"
    },
    {
      "constant": true,
      "inputs": [],
      "name": "setup",
      "outputs": [
        {
          "name": "",
          "type": "bool"
        }
      ],
      "payable": false,
      "stateMutability": "view",
      "type": "function",
      "signature": "0xba0bba40"
    },
    {
      "constant": true,
      "inputs": [],
      "name": "memberContractAddr",
      "outputs": [
        {
          "name": "",
          "type": "address"
        }
      ],
      "payable": false,
      "stateMutability": "view",
      "type": "function",
      "signature": "0xc170f356"
    },
    {
      "constant": true,
      "inputs": [],
      "name": "prevboard",
      "outputs": [
        {
          "name": "",
          "type": "bytes32"
        }
      ],
      "payable": false,
      "stateMutability": "view",
      "type": "function",
      "signature": "0xcff483b9"
    },
    {
      "constant": true,
      "inputs": [],
      "name": "fee",
      "outputs": [
        {
          "name": "",
          "type": "uint256"
        }
      ],
      "payable": false,
      "stateMutability": "view",
      "type": "function",
      "signature": "0xddca3f43"
    },
    {
      "constant": true,
      "inputs": [],
      "name": "winner",
      "outputs": [
        {
          "name": "",
          "type": "address"
        }
      ],
      "payable": false,
      "stateMutability": "view",
      "type": "function",
      "signature": "0xdfbf53ae"
    },
    {
      "constant": true,
      "inputs": [
        {
          "name": "",
          "type": "address"
        }
      ],
      "name": "playerDB",
      "outputs": [
        {
          "name": "initHeightJoined",
          "type": "uint256"
        },
        {
          "name": "scoreHash",
          "type": "bytes32"
        },
        {
          "name": "claimed",
          "type": "bool"
        }
      ],
      "payable": false,
      "stateMutability": "view",
      "type": "function",
      "signature": "0xfa3cb11f"
    },
    {
      "inputs": [
        {
          "name": "_init",
          "type": "bytes32"
        },
        {
          "name": "_RNTAddr",
          "type": "address"
        },
        {
          "name": "_ELEMAddr",
          "type": "address"
        },
        {
          "name": "_memberContracAddr",
          "type": "address"
        }
      ],
      "payable": true,
      "stateMutability": "payable",
      "type": "constructor",
      "signature": "constructor"
    },
    {
      "payable": false,
      "stateMutability": "nonpayable",
      "type": "fallback"
    },
    {
      "constant": false,
      "inputs": [
        {
          "name": "_debug1",
          "type": "bool"
        },
        {
          "name": "_debug2",
          "type": "bool"
        },
        {
          "name": "_debug3",
          "type": "bool"
        },
        {
          "name": "_debug4",
          "type": "bool"
        },
        {
          "name": "_debug5",
          "type": "bool"
        },
        {
          "name": "_debug6",
          "type": "bool"
        }
      ],
      "name": "debugParams",
      "outputs": [],
      "payable": false,
      "stateMutability": "nonpayable",
      "type": "function",
      "signature": "0x42c270e7"
    },
    {
      "constant": false,
      "inputs": [
        {
          "name": "secret",
          "type": "bytes32"
        },
        {
          "name": "slots",
          "type": "string"
        },
        {
          "name": "blockNo",
          "type": "uint256"
        },
        {
          "name": "submitBlocks",
          "type": "uint256[]"
        },
        {
          "name": "winningTickets",
          "type": "uint256[]"
        },
        {
          "name": "proof",
          "type": "bytes32[]"
        },
        {
          "name": "isLeft",
          "type": "bool[]"
        },
        {
          "name": "score",
          "type": "bytes32"
        }
      ],
      "name": "claimLotteReward",
      "outputs": [
        {
          "name": "",
          "type": "bool"
        }
      ],
      "payable": false,
      "stateMutability": "nonpayable",
      "type": "function",
      "signature": "0x76125212"
    },
    {
      "constant": true,
      "inputs": [
        {
          "name": "submitBlocks",
          "type": "uint256[]"
        },
        {
          "name": "winningTickets",
          "type": "uint256[]"
        },
        {
          "name": "genTickets",
          "type": "bytes32[]"
        }
      ],
      "name": "getClaimHash",
      "outputs": [
        {
          "name": "claimHash",
          "type": "bytes32"
        }
      ],
      "payable": false,
      "stateMutability": "view",
      "type": "function",
      "signature": "0x6903be12"
    },
    {
      "constant": false,
      "inputs": [
        {
          "name": "_board",
          "type": "bytes32"
        },
        {
          "name": "submitBlocks",
          "type": "uint256[]"
        },
        {
          "name": "winningTickets",
          "type": "uint256[]"
        },
        {
          "name": "genTickets",
          "type": "bytes32[]"
        }
      ],
      "name": "verifyWinnumber",
      "outputs": [
        {
          "name": "",
          "type": "bool"
        }
      ],
      "payable": false,
      "stateMutability": "nonpayable",
      "type": "function",
      "signature": "0x113097ad"
    },
    {
      "constant": true,
      "inputs": [
        {
          "name": "score",
          "type": "bytes32"
        },
        {
          "name": "numTickets",
          "type": "uint256"
        }
      ],
      "name": "generateTickets",
      "outputs": [
        {
          "name": "",
          "type": "bytes32[]"
        }
      ],
      "payable": false,
      "stateMutability": "view",
      "type": "function",
      "signature": "0xc13375db"
    },
    {
      "constant": true,
      "inputs": [
        {
          "name": "score",
          "type": "bytes32"
        }
      ],
      "name": "getNumOfTickets",
      "outputs": [
        {
          "name": "",
          "type": "uint256"
        }
      ],
      "payable": false,
      "stateMutability": "pure",
      "type": "function",
      "signature": "0x5c0effb2"
    },
    {
      "constant": true,
      "inputs": [
        {
          "name": "_addr",
          "type": "address"
        }
      ],
      "name": "getPlayerInfo",
      "outputs": [
        {
          "name": "",
          "type": "uint256"
        },
        {
          "name": "",
          "type": "bytes32"
        },
        {
          "name": "",
          "type": "bool"
        }
      ],
      "payable": false,
      "stateMutability": "view",
      "type": "function",
      "signature": "0x59328401"
    },
    {
      "constant": false,
      "inputs": [
        {
          "name": "defense",
          "type": "bytes32"
        }
      ],
      "name": "fortify",
      "outputs": [
        {
          "name": "",
          "type": "bool"
        }
      ],
      "payable": true,
      "stateMutability": "payable",
      "type": "function",
      "signature": "0x58533612"
    },
    {
      "constant": false,
      "inputs": [
        {
          "name": "scoreHash",
          "type": "bytes32"
        }
      ],
      "name": "challenge",
      "outputs": [
        {
          "name": "",
          "type": "bool"
        }
      ],
      "payable": true,
      "stateMutability": "payable",
      "type": "function",
      "signature": "0xcffd46dc"
    },
    {
      "constant": true,
      "inputs": [
        {
          "name": "secret",
          "type": "bytes32"
        },
        {
          "name": "blockNo",
          "type": "uint256"
        }
      ],
      "name": "testOutcome",
      "outputs": [
        {
          "name": "_board",
          "type": "bytes32"
        },
        {
          "name": "_slots",
          "type": "bool[32]"
        }
      ],
      "payable": false,
      "stateMutability": "view",
      "type": "function",
      "signature": "0x1cb9409f"
    },
    {
      "constant": true,
      "inputs": [
        {
          "name": "blockNo",
          "type": "uint256"
        },
        {
          "name": "_board",
          "type": "bytes32"
        }
      ],
      "name": "winningNumber",
      "outputs": [
        {
          "name": "",
          "type": "bytes32"
        }
      ],
      "payable": false,
      "stateMutability": "view",
      "type": "function",
      "signature": "0xafde797c"
    },
    {
      "constant": true,
      "inputs": [
        {
          "name": "proof",
          "type": "bytes32[]"
        },
        {
          "name": "isLeft",
          "type": "bool[]"
        },
        {
          "name": "targetLeaf",
          "type": "bytes32"
        },
        {
          "name": "_merkleRoot",
          "type": "bytes32"
        }
      ],
      "name": "merkleTreeValidator",
      "outputs": [
        {
          "name": "",
          "type": "bool"
        }
      ],
      "payable": false,
      "stateMutability": "pure",
      "type": "function",
      "signature": "0xb8f69e37"
    },
    {
      "constant": false,
      "inputs": [
        {
          "name": "_initHeight",
          "type": "uint256"
        },
        {
          "name": "_merkleRoot",
          "type": "bytes32"
        },
        {
          "name": "_ipfsAddr",
          "type": "string"
        }
      ],
      "name": "submitMerkleRoot",
      "outputs": [
        {
          "name": "",
          "type": "bool"
        }
      ],
      "payable": false,
      "stateMutability": "nonpayable",
      "type": "function",
      "signature": "0xb04cd588"
    },
    {
      "constant": true,
      "inputs": [
        {
          "name": "_initHeight",
          "type": "uint256"
        }
      ],
      "name": "getBlockInfo",
      "outputs": [
        {
          "name": "",
          "type": "bytes32"
        },
        {
          "name": "",
          "type": "string"
        }
      ],
      "payable": false,
      "stateMutability": "view",
      "type": "function",
      "signature": "0xbb141cf4"
    },
    {
      "constant": true,
      "inputs": [
        {
          "name": "blockNo",
          "type": "uint256"
        }
      ],
      "name": "getBlockhash",
      "outputs": [
        {
          "name": "",
          "type": "bytes32"
        }
      ],
      "payable": false,
      "stateMutability": "view",
      "type": "function",
      "signature": "0xe9413d38"
    },
    {
      "constant": true,
      "inputs": [
        {
          "name": "secret",
          "type": "bytes32"
        },
        {
          "name": "slotString",
          "type": "string"
        },
        {
          "name": "blockNo",
          "type": "uint256"
        },
        {
          "name": "_board",
          "type": "bytes32"
        },
        {
          "name": "score",
          "type": "bytes32"
        }
      ],
      "name": "compareScore",
      "outputs": [
        {
          "name": "",
          "type": "bool"
        }
      ],
      "payable": false,
      "stateMutability": "view",
      "type": "function",
      "signature": "0x81787864"
    },
    {
      "constant": true,
      "inputs": [
        {
          "name": "secret",
          "type": "bytes32"
        },
        {
          "name": "slotString",
          "type": "string"
        },
        {
          "name": "blockNo",
          "type": "uint256"
        },
        {
          "name": "_board",
          "type": "bytes32"
        }
      ],
      "name": "computeScore",
      "outputs": [
        {
          "name": "out",
          "type": "bytes32"
        }
      ],
      "payable": false,
      "stateMutability": "view",
      "type": "function",
      "signature": "0xa1ef91d8"
    },
    {
      "constant": true,
      "inputs": [
        {
          "name": "b32",
          "type": "bytes32"
        }
      ],
      "name": "bytes32ToString",
      "outputs": [
        {
          "name": "out",
          "type": "string"
        }
      ],
      "payable": false,
      "stateMutability": "pure",
      "type": "function",
      "signature": "0x9201de55"
    },
    {
      "constant": false,
      "inputs": [
        {
          "name": "_newValidator",
          "type": "address"
        }
      ],
      "name": "newValidator",
      "outputs": [
        {
          "name": "",
          "type": "bool"
        }
      ],
      "payable": false,
      "stateMutability": "nonpayable",
      "type": "function",
      "signature": "0x065c11cc"
    },
    {
      "constant": false,
      "inputs": [
        {
          "name": "_newDefender",
          "type": "address"
        }
      ],
      "name": "newDefender",
      "outputs": [
        {
          "name": "",
          "type": "bool"
        }
      ],
      "payable": false,
      "stateMutability": "nonpayable",
      "type": "function",
      "signature": "0xed958671"
    },
    {
      "constant": false,
      "inputs": [
        {
          "name": "_newAddr",
          "type": "address"
        }
      ],
      "name": "newRNTAddr",
      "outputs": [
        {
          "name": "",
          "type": "bool"
        }
      ],
      "payable": false,
      "stateMutability": "nonpayable",
      "type": "function",
      "signature": "0xbdefa88a"
    },
    {
      "constant": false,
      "inputs": [
        {
          "name": "_newAddr",
          "type": "address"
        }
      ],
      "name": "newELEMAddr",
      "outputs": [
        {
          "name": "",
          "type": "bool"
        }
      ],
      "payable": false,
      "stateMutability": "nonpayable",
      "type": "function",
      "signature": "0x9fe7758a"
    },
    {
      "constant": false,
      "inputs": [
        {
          "name": "_addr",
          "type": "address"
        }
      ],
      "name": "newMemberAddr",
      "outputs": [
        {
          "name": "",
          "type": "bool"
        }
      ],
      "payable": false,
      "stateMutability": "nonpayable",
      "type": "function",
      "signature": "0x6cf6d757"
    }
  ],
  "bytecode": "0x60806040527c0fffffffffffffffffffffffffffffffffffffffffffffffffffffffff600102600755662386f26fc100006008556000600960006101000a81548160ff0219169083151502179055506000600a556000601060006101000a81548160ff0219169083151502179055506001601060016101000a81548160ff0219169083151502179055506001601060026101000a81548160ff0219169083151502179055506001601060036101000a81548160ff0219169083151502179055506001601060046101000a81548160ff0219169083151502179055506001601060056101000a81548160ff02191690831515021790555060405160808062004fd0833981018060405260808110156200011657600080fd5b810190808051906020019092919080519060200190929190805190602001909291908051906020019092919050505060085434101515156200015757600080fd5b336000806101000a81548173ffffffffffffffffffffffffffffffffffffffff021916908373ffffffffffffffffffffffffffffffffffffffff16021790555033600260006101000a81548173ffffffffffffffffffffffffffffffffffffffff021916908373ffffffffffffffffffffffffffffffffffffffff16021790555082600360006101000a81548173ffffffffffffffffffffffffffffffffffffffff021916908373ffffffffffffffffffffffffffffffffffffffff16021790555081600460006101000a81548173ffffffffffffffffffffffffffffffffffffffff021916908373ffffffffffffffffffffffffffffffffffffffff16021790555080600560006101000a81548173ffffffffffffffffffffffffffffffffffffffff021916908373ffffffffffffffffffffffffffffffffffffffff16021790555060011515620002b985620002d2640100000000026401000000009004565b1515141515620002c857600080fd5b505050506200044b565b60008060009054906101000a900473ffffffffffffffffffffffffffffffffffffffff1673ffffffffffffffffffffffffffffffffffffffff163373ffffffffffffffffffffffffffffffffffffffff161415156200033057600080fd5b60001515600960009054906101000a900460ff1615151415156200035357600080fd5b600754821115156200036457600080fd5b4360068190555060606040519081016040528060065481526020016000600102815260200160001515815250600e60003373ffffffffffffffffffffffffffffffffffffffff1673ffffffffffffffffffffffffffffffffffffffff168152602001908152602001600020600082015181600001556020820151816001015560408201518160020160006101000a81548160ff0219169083151502179055509050506001600a600082825401925050819055506001600960006101000a81548160ff021916908315150217905550600c54600d8190555081600c8190555060019050919050565b614b75806200045b6000396000f3fe6080604052600436106102a5576000357c0100000000000000000000000000000000000000000000000000000000900480638186a8f911610177578063ba0bba40116100de578063cffd46dc11610097578063cffd46dc14611afb578063ddca3f4314611b41578063dfbf53ae14611b6c578063e9413d3814611bc3578063ed95867114611c12578063fa3cb11f14611c7b576102a5565b8063ba0bba401461188c578063bb141cf4146118bb578063bdefa88a14611976578063c13375db146119df578063c170f35614611a79578063cff483b914611ad0576102a5565b8063a4dd1d7d11610130578063a4dd1d7d14611535578063a78eacdb14611560578063afde797c1461158b578063b04cd588146115e4578063b70902bc146116d8578063b8f69e3714611707576102a5565b80638186a8f91461126d578063885869dc146112985780639201de55146112ef5780639b76d3f9146113a35780639fe7758a146113d2578063a1ef91d81461143b576102a5565b80635ba88c281161021b5780636cf6d757116101d45780636cf6d75714610cfc5780637612521214610d655780637cd3229a146110b45780637dc7c5a5146110df5780637f4c91c51461110e5780638178786414611165576102a5565b80635ba88c28146109f85780635c0effb214610a27578063610da89114610a765780636426b1e414610aa55780636903be1214610ad05780636b180b5914610cd1576102a5565b806326593be71161026d57806326593be7146107815780633a5381b5146107b057806342c270e7146108075780634ccc616d14610880578063585336121461093b5780635932840114610981576102a5565b806306491eff14610400578063065c11cc14610457578063113097ad146104c057806319cae462146106cf5780631cb9409f146106fa575b3480156102b157600080fd5b506000809054906101000a900473ffffffffffffffffffffffffffffffffffffffff1673ffffffffffffffffffffffffffffffffffffffff163373ffffffffffffffffffffffffffffffffffffffff1614151561030d57600080fd5b60011515600960009054906101000a900460ff1615151480156103345750600a6006540143115b801561038e5750600073ffffffffffffffffffffffffffffffffffffffff16600160009054906101000a900473ffffffffffffffffffffffffffffffffffffffff1673ffffffffffffffffffffffffffffffffffffffff16145b151561039957600080fd5b6000600160006101000a81548173ffffffffffffffffffffffffffffffffffffffff021916908373ffffffffffffffffffffffffffffffffffffffff1602179055506000600960006101000a81548160ff0219169083151502179055506000600a81905550005b34801561040c57600080fd5b50610415611cf2565b604051808273ffffffffffffffffffffffffffffffffffffffff1673ffffffffffffffffffffffffffffffffffffffff16815260200191505060405180910390f35b34801561046357600080fd5b506104a66004803603602081101561047a57600080fd5b81019080803573ffffffffffffffffffffffffffffffffffffffff169060200190929190505050611d18565b604051808215151515815260200191505060405180910390f35b3480156104cc57600080fd5b506106b5600480360360808110156104e357600080fd5b81019080803590602001909291908035906020019064010000000081111561050a57600080fd5b82018360208201111561051c57600080fd5b8035906020019184602083028401116401000000008311171561053e57600080fd5b919080806020026020016040519081016040528093929190818152602001838360200280828437600081840152601f19601f8201169050808301925050505050505091929192908035906020019064010000000081111561059e57600080fd5b8201836020820111156105b057600080fd5b803590602001918460208302840111640100000000831117156105d257600080fd5b919080806020026020016040519081016040528093929190818152602001838360200280828437600081840152601f19601f8201169050808301925050505050505091929192908035906020019064010000000081111561063257600080fd5b82018360208201111561064457600080fd5b8035906020019184602083028401116401000000008311171561066657600080fd5b919080806020026020016040519081016040528093929190818152602001838360200280828437600081840152601f19601f820116905080830192505050505050509192919290505050611dfb565b604051808215151515815260200191505060405180910390f35b3480156106db57600080fd5b506106e4612130565b6040518082815260200191505060405180910390f35b34801561070657600080fd5b5061073d6004803603604081101561071d57600080fd5b810190808035906020019092919080359060200190929190505050612136565b60405180838152602001826020800280838360005b8381101561076d578082015181840152602081019050610752565b505050509050019250505060405180910390f35b34801561078d57600080fd5b50610796612473565b604051808215151515815260200191505060405180910390f35b3480156107bc57600080fd5b506107c5612486565b604051808273ffffffffffffffffffffffffffffffffffffffff1673ffffffffffffffffffffffffffffffffffffffff16815260200191505060405180910390f35b34801561081357600080fd5b5061087e600480360360c081101561082a57600080fd5b810190808035151590602001909291908035151590602001909291908035151590602001909291908035151590602001909291908035151590602001909291908035151590602001909291905050506124ac565b005b34801561088c57600080fd5b506108b9600480360360208110156108a357600080fd5b8101908080359060200190929190505050612550565b6040518083815260200180602001828103825283818151815260200191508051906020019080838360005b838110156108ff5780820151818401526020810190506108e4565b50505050905090810190601f16801561092c5780820380516001836020036101000a031916815260200191505b50935050505060405180910390f35b6109676004803603602081101561095157600080fd5b810190808035906020019092919050505061260c565b604051808215151515815260200191505060405180910390f35b34801561098d57600080fd5b506109d0600480360360208110156109a457600080fd5b81019080803573ffffffffffffffffffffffffffffffffffffffff169060200190929190505050612782565b6040518084815260200183815260200182151515158152602001935050505060405180910390f35b348015610a0457600080fd5b50610a0d61286a565b604051808215151515815260200191505060405180910390f35b348015610a3357600080fd5b50610a6060048036036020811015610a4a57600080fd5b810190808035906020019092919050505061287d565b6040518082815260200191505060405180910390f35b348015610a8257600080fd5b50610a8b612953565b604051808215151515815260200191505060405180910390f35b348015610ab157600080fd5b50610aba612966565b6040518082815260200191505060405180910390f35b348015610adc57600080fd5b50610cbb60048036036060811015610af357600080fd5b8101908080359060200190640100000000811115610b1057600080fd5b820183602082011115610b2257600080fd5b80359060200191846020830284011164010000000083111715610b4457600080fd5b919080806020026020016040519081016040528093929190818152602001838360200280828437600081840152601f19601f82011690508083019250505050505050919291929080359060200190640100000000811115610ba457600080fd5b820183602082011115610bb657600080fd5b80359060200191846020830284011164010000000083111715610bd857600080fd5b919080806020026020016040519081016040528093929190818152602001838360200280828437600081840152601f19601f82011690508083019250505050505050919291929080359060200190640100000000811115610c3857600080fd5b820183602082011115610c4a57600080fd5b80359060200191846020830284011164010000000083111715610c6c57600080fd5b919080806020026020016040519081016040528093929190818152602001838360200280828437600081840152601f19601f82011690508083019250505050505050919291929050505061296c565b6040518082815260200191505060405180910390f35b348015610cdd57600080fd5b50610ce6612a9b565b6040518082815260200191505060405180910390f35b348015610d0857600080fd5b50610d4b60048036036020811015610d1f57600080fd5b81019080803573ffffffffffffffffffffffffffffffffffffffff169060200190929190505050612aa1565b604051808215151515815260200191505060405180910390f35b348015610d7157600080fd5b5061109a6004803603610100811015610d8957600080fd5b810190808035906020019092919080359060200190640100000000811115610db057600080fd5b820183602082011115610dc257600080fd5b80359060200191846001830284011164010000000083111715610de457600080fd5b91908080601f016020809104026020016040519081016040528093929190818152602001838380828437600081840152601f19601f8201169050808301925050505050505091929192908035906020019092919080359060200190640100000000811115610e5157600080fd5b820183602082011115610e6357600080fd5b80359060200191846020830284011164010000000083111715610e8557600080fd5b919080806020026020016040519081016040528093929190818152602001838360200280828437600081840152601f19601f82011690508083019250505050505050919291929080359060200190640100000000811115610ee557600080fd5b820183602082011115610ef757600080fd5b80359060200191846020830284011164010000000083111715610f1957600080fd5b919080806020026020016040519081016040528093929190818152602001838360200280828437600081840152601f19601f82011690508083019250505050505050919291929080359060200190640100000000811115610f7957600080fd5b820183602082011115610f8b57600080fd5b80359060200191846020830284011164010000000083111715610fad57600080fd5b919080806020026020016040519081016040528093929190818152602001838360200280828437600081840152601f19601f8201169050808301925050505050505091929192908035906020019064010000000081111561100d57600080fd5b82018360208201111561101f57600080fd5b8035906020019184602083028401116401000000008311171561104157600080fd5b919080806020026020016040519081016040528093929190818152602001838360200280828437600081840152601f19601f82011690508083019250505050505050919291929080359060200190929190505050612b48565b604051808215151515815260200191505060405180910390f35b3480156110c057600080fd5b506110c9613452565b6040518082815260200191505060405180910390f35b3480156110eb57600080fd5b506110f4613458565b604051808215151515815260200191505060405180910390f35b34801561111a57600080fd5b5061112361346b565b604051808273ffffffffffffffffffffffffffffffffffffffff1673ffffffffffffffffffffffffffffffffffffffff16815260200191505060405180910390f35b34801561117157600080fd5b50611253600480360360a081101561118857600080fd5b8101908080359060200190929190803590602001906401000000008111156111af57600080fd5b8201836020820111156111c157600080fd5b803590602001918460018302840111640100000000831117156111e357600080fd5b91908080601f016020809104026020016040519081016040528093929190818152602001838380828437600081840152601f19601f820116905080830192505050505050509192919290803590602001909291908035906020019092919080359060200190929190505050613490565b604051808215151515815260200191505060405180910390f35b34801561127957600080fd5b506112826137a2565b6040518082815260200191505060405180910390f35b3480156112a457600080fd5b506112ad6137a8565b604051808273ffffffffffffffffffffffffffffffffffffffff1673ffffffffffffffffffffffffffffffffffffffff16815260200191505060405180910390f35b3480156112fb57600080fd5b506113286004803603602081101561131257600080fd5b81019080803590602001909291905050506137ce565b6040518080602001828103825283818151815260200191508051906020019080838360005b8381101561136857808201518184015260208101905061134d565b50505050905090810190601f1680156113955780820380516001836020036101000a031916815260200191505b509250505060405180910390f35b3480156113af57600080fd5b506113b86139d3565b604051808215151515815260200191505060405180910390f35b3480156113de57600080fd5b50611421600480360360208110156113f557600080fd5b81019080803573ffffffffffffffffffffffffffffffffffffffff1690602001909291905050506139e6565b604051808215151515815260200191505060405180910390f35b34801561144757600080fd5b5061151f6004803603608081101561145e57600080fd5b81019080803590602001909291908035906020019064010000000081111561148557600080fd5b82018360208201111561149757600080fd5b803590602001918460018302840111640100000000831117156114b957600080fd5b91908080601f016020809104026020016040519081016040528093929190818152602001838380828437600081840152601f19601f8201169050808301925050505050505091929192908035906020019092919080359060200190929190505050613a8d565b6040518082815260200191505060405180910390f35b34801561154157600080fd5b5061154a613e6c565b6040518082815260200191505060405180910390f35b34801561156c57600080fd5b50611575613e71565b6040518082815260200191505060405180910390f35b34801561159757600080fd5b506115ce600480360360408110156115ae57600080fd5b810190808035906020019092919080359060200190929190505050613e77565b6040518082815260200191505060405180910390f35b3480156115f057600080fd5b506116be6004803603606081101561160757600080fd5b8101908080359060200190929190803590602001909291908035906020019064010000000081111561163857600080fd5b82018360208201111561164a57600080fd5b8035906020019184600183028401116401000000008311171561166c57600080fd5b91908080601f016020809104026020016040519081016040528093929190818152602001838380828437600081840152601f19601f820116905080830192505050505050509192919290505050613ec3565b604051808215151515815260200191505060405180910390f35b3480156116e457600080fd5b506116ed614049565b604051808215151515815260200191505060405180910390f35b34801561171357600080fd5b506118726004803603608081101561172a57600080fd5b810190808035906020019064010000000081111561174757600080fd5b82018360208201111561175957600080fd5b8035906020019184602083028401116401000000008311171561177b57600080fd5b919080806020026020016040519081016040528093929190818152602001838360200280828437600081840152601f19601f820116905080830192505050505050509192919290803590602001906401000000008111156117db57600080fd5b8201836020820111156117ed57600080fd5b8035906020019184602083028401116401000000008311171561180f57600080fd5b919080806020026020016040519081016040528093929190818152602001838360200280828437600081840152601f19601f820116905080830192505050505050509192919290803590602001909291908035906020019092919050505061405c565b604051808215151515815260200191505060405180910390f35b34801561189857600080fd5b506118a1614180565b604051808215151515815260200191505060405180910390f35b3480156118c757600080fd5b506118f4600480360360208110156118de57600080fd5b8101908080359060200190929190505050614193565b6040518083815260200180602001828103825283818151815260200191508051906020019080838360005b8381101561193a57808201518184015260208101905061191f565b50505050905090810190601f1680156119675780820380516001836020036101000a031916815260200191505b50935050505060405180910390f35b34801561198257600080fd5b506119c56004803603602081101561199957600080fd5b81019080803573ffffffffffffffffffffffffffffffffffffffff169060200190929190505050614269565b604051808215151515815260200191505060405180910390f35b3480156119eb57600080fd5b50611a2260048036036040811015611a0257600080fd5b810190808035906020019092919080359060200190929190505050614310565b6040518080602001828103825283818151815260200191508051906020019060200280838360005b83811015611a65578082015181840152602081019050611a4a565b505050509050019250505060405180910390f35b348015611a8557600080fd5b50611a8e6143c3565b604051808273ffffffffffffffffffffffffffffffffffffffff1673ffffffffffffffffffffffffffffffffffffffff16815260200191505060405180910390f35b348015611adc57600080fd5b50611ae56143e9565b6040518082815260200191505060405180910390f35b611b2760048036036020811015611b1157600080fd5b81019080803590602001909291905050506143ef565b604051808215151515815260200191505060405180910390f35b348015611b4d57600080fd5b50611b566147e8565b6040518082815260200191505060405180910390f35b348015611b7857600080fd5b50611b816147ee565b604051808273ffffffffffffffffffffffffffffffffffffffff1673ffffffffffffffffffffffffffffffffffffffff16815260200191505060405180910390f35b348015611bcf57600080fd5b50611bfc60048036036020811015611be657600080fd5b8101908080359060200190929190505050614814565b6040518082815260200191505060405180910390f35b348015611c1e57600080fd5b50611c6160048036036020811015611c3557600080fd5b81019080803573ffffffffffffffffffffffffffffffffffffffff16906020019092919050505061481f565b604051808215151515815260200191505060405180910390f35b348015611c8757600080fd5b50611cca60048036036020811015611c9e57600080fd5b81019080803573ffffffffffffffffffffffffffffffffffffffff169060200190929190505050614923565b6040518084815260200183815260200182151515158152602001935050505060405180910390f35b600360009054906101000a900473ffffffffffffffffffffffffffffffffffffffff1681565b60008060009054906101000a900473ffffffffffffffffffffffffffffffffffffffff1673ffffffffffffffffffffffffffffffffffffffff163373ffffffffffffffffffffffffffffffffffffffff16141515611d7557600080fd5b600073ffffffffffffffffffffffffffffffffffffffff168273ffffffffffffffffffffffffffffffffffffffff1614151515611db157600080fd5b81600260006101000a81548173ffffffffffffffffffffffffffffffffffffffff021916908373ffffffffffffffffffffffffffffffffffffffff16021790555060019050919050565b60008060008060008090505b875181101561211f57828882815181101515611e1f57fe5b9060200190602002015110151515611e3657600080fd5b828882815181101515611e4557fe5b906020019060200201511415611e7b57818782815181101515611e6457fe5b90602001906020020151111515611e7a57600080fd5b5b888882815181101515611e8a57fe5b906020019060200201514060405160200180838152602001828152602001925050506040516020818303038152906040528051906020012093506010868883815181101515611ed557fe5b90602001906020020151815181101515611eeb57fe5b90602001906020020151601f602081101515611f0357fe5b1a7f0100000000000000000000000000000000000000000000000000000000000000027f0100000000000000000000000000000000000000000000000000000000000000900460ff16811515611f5557fe5b0660ff16601085601f602081101515611f6a57fe5b1a7f0100000000000000000000000000000000000000000000000000000000000000027f0100000000000000000000000000000000000000000000000000000000000000900460ff16811515611fbc57fe5b0660ff16141515611fd4576000945050505050612128565b60011515600360009054906101000a900473ffffffffffffffffffffffffffffffffffffffff1673ffffffffffffffffffffffffffffffffffffffff16636a627842336040518263ffffffff167c0100000000000000000000000000000000000000000000000000000000028152600401808273ffffffffffffffffffffffffffffffffffffffff1673ffffffffffffffffffffffffffffffffffffffff168152602001915050602060405180830381600087803b15801561209557600080fd5b505af11580156120a9573d6000803e3d6000fd5b505050506040513d60208110156120bf57600080fd5b810190808051906020019092919050505015151415156120de57600080fd5b87818151811015156120ec57fe5b906020019060200201519250868181518110151561210657fe5b9060200190602002015191508080600101915050611e07565b50600193505050505b949350505050565b60075481565b6000612140614a2c565b60011515600960009054906101000a900460ff16151514151561216257600080fd5b6007600654014311801561217b5750600a600654014311155b15156121ef576040517f08c379a000000000000000000000000000000000000000000000000000000000815260040180806020018281038252600e8152602001807f746573746f7574636f6d653a203100000000000000000000000000000000000081525060200191505060405180910390fd5b6007834303101515612269576040517f08c379a000000000000000000000000000000000000000000000000000000000815260040180806020018281038252600e8152602001807f746573746f7574636f6d653a203200000000000000000000000000000000000081525060200191505060405180910390fd5b60014303831115801561228157506007600654018310155b80156122915750600a6006540183105b1515612305576040517f08c379a000000000000000000000000000000000000000000000000000000000815260040180806020018281038252600e8152602001807f746573746f7574636f6d653a203300000000000000000000000000000000000081525060200191505060405180910390fd5b33848440604051602001808473ffffffffffffffffffffffffffffffffffffffff1673ffffffffffffffffffffffffffffffffffffffff166c01000000000000000000000000028152601401838152602001828152602001935050505060405160208183030381529060405280519060200120915060008090505b601f8111151561246557600c548160208110151561239a57fe5b1a7f0100000000000000000000000000000000000000000000000000000000000000027effffffffffffffffffffffffffffffffffffffffffffffffffffffffffffff191683826020811015156123ed57fe5b1a7f0100000000000000000000000000000000000000000000000000000000000000027effffffffffffffffffffffffffffffffffffffffffffffffffffffffffffff19161015612458576001828260208110151561244857fe5b6020020190151590811515815250505b8080600101915050612380565b508181915091509250929050565b601060059054906101000a900460ff1681565b600260009054906101000a900473ffffffffffffffffffffffffffffffffffffffff1681565b85601060006101000a81548160ff02191690831515021790555084601060016101000a81548160ff02191690831515021790555083601060026101000a81548160ff02191690831515021790555082601060036101000a81548160ff02191690831515021790555081601060046101000a81548160ff02191690831515021790555080601060056101000a81548160ff021916908315150217905550505050505050565b600f602052806000526040600020600091509050806000015490806001018054600181600116156101000203166002900480601f0160208091040260200160405190810160405280929190818152602001828054600181600116156101000203166002900480156126025780601f106125d757610100808354040283529160200191612602565b820191906000526020600020905b8154815290600101906020018083116125e557829003601f168201915b5050505050905082565b60008060009054906101000a900473ffffffffffffffffffffffffffffffffffffffff1673ffffffffffffffffffffffffffffffffffffffff163373ffffffffffffffffffffffffffffffffffffffff1614151561266957600080fd5b60001515600960009054906101000a900460ff16151514151561268b57600080fd5b6007548211151561269b57600080fd5b4360068190555060606040519081016040528060065481526020016000600102815260200160001515815250600e60003373ffffffffffffffffffffffffffffffffffffffff1673ffffffffffffffffffffffffffffffffffffffff168152602001908152602001600020600082015181600001556020820151816001015560408201518160020160006101000a81548160ff0219169083151502179055509050506001600a600082825401925050819055506001600960006101000a81548160ff021916908315150217905550600c54600d8190555081600c8190555060019050919050565b6000806000600e60008573ffffffffffffffffffffffffffffffffffffffff1673ffffffffffffffffffffffffffffffffffffffff16815260200190815260200160002060000154600e60008673ffffffffffffffffffffffffffffffffffffffff1673ffffffffffffffffffffffffffffffffffffffff16815260200190815260200160002060010154600e60008773ffffffffffffffffffffffffffffffffffffffff1673ffffffffffffffffffffffffffffffffffffffff16815260200190815260200160002060020160009054906101000a900460ff169250925092509193909250565b601060019054906101000a900460ff1681565b60007effffffffffffffffffffffffffffffffffffffffffffffffffffffffffffff6001028211156128b2576001905061294e565b7e0fffffffffffffffffffffffffffffffffffffffffffffffffffffffffffff6001028211156128e5576002905061294e565b7dffffffffffffffffffffffffffffffffffffffffffffffffffffffffffff600102821115612917576003905061294e565b7d0fffffffffffffffffffffffffffffffffffffffffffffffffffffffffff600102821115612949576004905061294e565b600590505b919050565b601060029054906101000a900460ff1681565b6103e881565b600060603373ffffffffffffffffffffffffffffffffffffffff1660405160200180828152602001915050604051602081830303815290604052905060008090505b8451811015612a88578186828151811015156129c657fe5b906020019060200201518587848151811015156129df57fe5b906020019060200201518151811015156129f557fe5b906020019060200201516040516020018084805190602001908083835b602083101515612a375780518252602082019150602081019050602083039250612a12565b6001836020036101000a0380198251168184511680821785525050505050509050018381526020018281526020019350505050604051602081830303815290604052915080806001019150506129ae565b5080805190602001209150509392505050565b600a5481565b60008060009054906101000a900473ffffffffffffffffffffffffffffffffffffffff1673ffffffffffffffffffffffffffffffffffffffff163373ffffffffffffffffffffffffffffffffffffffff16141515612afe57600080fd5b81600560006101000a81548173ffffffffffffffffffffffffffffffffffffffff021916908373ffffffffffffffffffffffffffffffffffffffff16021790555060019050919050565b6000600a855111151515612bc4576040517f08c379a000000000000000000000000000000000000000000000000000000000815260040180806020018281038252601d8152602001807f796f752063616e6e6f7420636c61696d206d6f7265207469636b65747300000081525060200191505060405180910390fd5b82518451141515612c3d576040517f08c379a000000000000000000000000000000000000000000000000000000000815260040180806020018281038252601c8152602001807f6c656e206f662070726f6f662f69734c656674206d69736d617463680000000081525060200191505060405180910390fd5b85518551141515612c99576040517f08c379a0000000000000000000000000000000000000000000000000000000008152600401808060200182810382526028815260200180614b226028913960400191505060405180910390fd5b6000600102600f6000600e60003373ffffffffffffffffffffffffffffffffffffffff1673ffffffffffffffffffffffffffffffffffffffff1681526020019081526020016000206000015481526020019081526020016000206000015414151515612d6d576040517f08c379a00000000000000000000000000000000000000000000000000000000081526004018080602001828103825260128152602001807f6e6f206d65726b6c6520726f6f7420796574000000000000000000000000000081525060200191505060405180910390fd5b601060009054906101000a900460ff1615612f015760016014600e60003373ffffffffffffffffffffffffffffffffffffffff1673ffffffffffffffffffffffffffffffffffffffff16815260200190815260200160002060000154010143111515612e41576040517f08c379a00000000000000000000000000000000000000000000000000000000081526004018080602001828103825260098152602001807f746f6f206561726c79000000000000000000000000000000000000000000000081525060200191505060405180910390fd5b60076014600e60003373ffffffffffffffffffffffffffffffffffffffff1673ffffffffffffffffffffffffffffffffffffffff16815260200190815260200160002060000154010143101515612f00576040517f08c379a00000000000000000000000000000000000000000000000000000000081526004018080602001828103825260088152602001807f746f6f206c61746500000000000000000000000000000000000000000000000081525060200191505060405180910390fd5b5b6000600654600e60003373ffffffffffffffffffffffffffffffffffffffff1673ffffffffffffffffffffffffffffffffffffffff168152602001908152602001600020600001541415612f5957600c549050612fb8565b6014600e60003373ffffffffffffffffffffffffffffffffffffffff1673ffffffffffffffffffffffffffffffffffffffff16815260200190815260200160002060000154600654031115612fb257600d549050612fb7565b600080fd5b5b6000600e60003373ffffffffffffffffffffffffffffffffffffffff1673ffffffffffffffffffffffffffffffffffffffff16815260200190815260200160002060020160006101000a81548160ff0219169083151502179055506130208a8a8a8487613490565b151561302b57600080fd5b600e60003373ffffffffffffffffffffffffffffffffffffffff1673ffffffffffffffffffffffffffffffffffffffff168152602001908152602001600020600101548360405160200180828152602001915050604051602081830303815290604052805190602001201415156130ed576040517f08c379a000000000000000000000000000000000000000000000000000000000815260040180806020018281038252602c815260200180614af6602c913960400191505060405180910390fd5b60606130f88461287d565b6040519080825280602002602001820160405280156131265781602001602082028038833980820191505090505b50905061313b846131368661287d565b614310565b9050600061314a89898461296c565b90506131b0878783600f6000600e60003373ffffffffffffffffffffffffffffffffffffffff1673ffffffffffffffffffffffffffffffffffffffff1681526020019081526020016000206000015481526020019081526020016000206000015461405c565b1515613224576040517f08c379a00000000000000000000000000000000000000000000000000000000081526004018080602001828103825260138152602001807f6d65726b6c652070726f6f66206661696c65640000000000000000000000000081525060200191505060405180910390fd5b601060019054906101000a900460ff16156132c15760011515613249848b8b86611dfb565b15151415156132c0576040517f08c379a00000000000000000000000000000000000000000000000000000000081526004018080602001828103825260148152602001807f666f756e6420612077726f6e67207469636b657400000000000000000000000081525060200191505060405180910390fd5b5b601060029054906101000a900460ff161561343f576003885110151561343e5760606132ec826137ce565b9050600460009054906101000a900473ffffffffffffffffffffffffffffffffffffffff1673ffffffffffffffffffffffffffffffffffffffff1663d3fc9864338460019004846040518463ffffffff167c0100000000000000000000000000000000000000000000000000000000028152600401808473ffffffffffffffffffffffffffffffffffffffff1673ffffffffffffffffffffffffffffffffffffffff16815260200183815260200180602001828103825283818151815260200191508051906020019080838360005b838110156133d65780820151818401526020810190506133bb565b50505050905090810190601f1680156134035780820380516001836020036101000a031916815260200191505b50945050505050600060405180830381600087803b15801561342457600080fd5b505af1158015613438573d6000803e3d6000fd5b50505050505b5b6001935050505098975050505050505050565b600c5481565b601060009054906101000a900460ff1681565b6000809054906101000a900473ffffffffffffffffffffffffffffffffffffffff1681565b60008033878640604051602001808473ffffffffffffffffffffffffffffffffffffffff1673ffffffffffffffffffffffffffffffffffffffff166c0100000000000000000000000002815260140183815260200182815260200193505050506040516020818303038152906040528051906020012090506060869050600080600090505b60208110156137905760307f010000000000000000000000000000000000000000000000000000000000000002838281518110151561355057fe5b9060200101517f010000000000000000000000000000000000000000000000000000000000000090047f0100000000000000000000000000000000000000000000000000000000000000027effffffffffffffffffffffffffffffffffffffffffffffffffffffffffffff19161415613652576008810260ff7f01000000000000000000000000000000000000000000000000000000000000000288836020811015156135f957fe5b1a7f010000000000000000000000000000000000000000000000000000000000000002167effffffffffffffffffffffffffffffffffffffffffffffffffffffffffffff1916908060020a820491505082179150613783565b60317f010000000000000000000000000000000000000000000000000000000000000002838281518110151561368457fe5b9060200101517f010000000000000000000000000000000000000000000000000000000000000090047f0100000000000000000000000000000000000000000000000000000000000000027effffffffffffffffffffffffffffffffffffffffffffffffffffffffffffff19161415613782576008810260ff7f010000000000000000000000000000000000000000000000000000000000000002858360208110151561372d57fe5b1a7f010000000000000000000000000000000000000000000000000000000000000002167effffffffffffffffffffffffffffffffffffffffffffffffffffffffffffff1916908060020a8204915050821791505b5b8080600101915050613515565b50848114935050505095945050505050565b600b5481565b600460009054906101000a900473ffffffffffffffffffffffffffffffffffffffff1681565b606080604080519080825280601f01601f1916602001820160405280156138045781602001600182028038833980820191505090505b50905060008090505b60208160ff1610156139c9576000848260ff1660208110151561382c57fe5b1a7f010000000000000000000000000000000000000000000000000000000000000002905060006010827f0100000000000000000000000000000000000000000000000000000000000000900460ff1681151561388557fe5b047f01000000000000000000000000000000000000000000000000000000000000000290506000817f01000000000000000000000000000000000000000000000000000000000000009004601002837f01000000000000000000000000000000000000000000000000000000000000009004037f01000000000000000000000000000000000000000000000000000000000000000290506139258261495a565b856002860260ff1681518110151561393957fe5b9060200101907effffffffffffffffffffffffffffffffffffffffffffffffffffffffffffff1916908160001a9053506139728161495a565b856001600287020160ff1681518110151561398957fe5b9060200101907effffffffffffffffffffffffffffffffffffffffffffffffffffffffffffff1916908160001a905350505050808060010191505061380d565b5080915050919050565b601060049054906101000a900460ff1681565b60008060009054906101000a900473ffffffffffffffffffffffffffffffffffffffff1673ffffffffffffffffffffffffffffffffffffffff163373ffffffffffffffffffffffffffffffffffffffff16141515613a4357600080fd5b81600460006101000a81548173ffffffffffffffffffffffffffffffffffffffff021916908373ffffffffffffffffffffffffffffffffffffffff16021790555060019050919050565b60008033868540604051602001808473ffffffffffffffffffffffffffffffffffffffff1673ffffffffffffffffffffffffffffffffffffffff166c0100000000000000000000000002815260140183815260200182815260200193505050506040516020818303038152906040528051906020012090506060859050606060206040519080825280601f01601f191660200182016040528015613b405781602001600182028038833980820191505090505b50905060008090505b6020811015613d8e5760307f0100000000000000000000000000000000000000000000000000000000000000028382815181101515613b8457fe5b9060200101517f010000000000000000000000000000000000000000000000000000000000000090047f0100000000000000000000000000000000000000000000000000000000000000027effffffffffffffffffffffffffffffffffffffffffffffffffffffffffffff19161415613c6b578581602081101515613c0557fe5b1a7f0100000000000000000000000000000000000000000000000000000000000000028282815181101515613c3657fe5b9060200101907effffffffffffffffffffffffffffffffffffffffffffffffffffffffffffff1916908160001a905350613d81565b60317f0100000000000000000000000000000000000000000000000000000000000000028382815181101515613c9d57fe5b9060200101517f010000000000000000000000000000000000000000000000000000000000000090047f0100000000000000000000000000000000000000000000000000000000000000027effffffffffffffffffffffffffffffffffffffffffffffffffffffffffffff19161415613d80578381602081101515613d1e57fe5b1a7f0100000000000000000000000000000000000000000000000000000000000000028282815181101515613d4f57fe5b9060200101907effffffffffffffffffffffffffffffffffffffffffffffffffffffffffffff1916908160001a9053505b5b8080600101915050613b49565b5060008090505b6020811015613e5d576008810260ff7f0100000000000000000000000000000000000000000000000000000000000000028383815181101515613dd457fe5b9060200101517f010000000000000000000000000000000000000000000000000000000000000090047f010000000000000000000000000000000000000000000000000000000000000002167effffffffffffffffffffffffffffffffffffffffffffffffffffffffffffff1916908060020a8204915050851794508080600101915050613d95565b50839350505050949350505050565b601481565b60065481565b6000600143038311151515613e8b57600080fd5b818340604051602001808381526020018281526020019250505060405160208183030381529060405280519060200120905092915050565b60008073ffffffffffffffffffffffffffffffffffffffff16600260009054906101000a900473ffffffffffffffffffffffffffffffffffffffff1673ffffffffffffffffffffffffffffffffffffffff1614158015613f705750600260009054906101000a900473ffffffffffffffffffffffffffffffffffffffff1673ffffffffffffffffffffffffffffffffffffffff163373ffffffffffffffffffffffffffffffffffffffff16145b1515613f7b57600080fd5b601484014310158015613f945750600460148501014311155b1515613f9f57600080fd5b604080519081016040528084815260200183815250600f6000868152602001908152602001600020600082015181600001556020820151816001019080519060200190613fed929190614a50565b509050506008840140600b819055506000600160006101000a81548173ffffffffffffffffffffffffffffffffffffffff021916908373ffffffffffffffffffffffffffffffffffffffff160217905550600190509392505050565b601060039054906101000a900460ff1681565b60006020855110151561406e57600080fd5b8351855114151561407e57600080fd5b600083905060008090505b865181101561417057600087828151811015156140a257fe5b90602001906020020151905086828151811015156140bc57fe5b90602001906020020151156141015780836040516020018083815260200182815260200192505050604051602081830303815290604052805190602001209250614162565b868281518110151561410f57fe5b9060200190602002015115156141555782816040516020018083815260200182815260200192505050604051602081830303815290604052805190602001209250614161565b60009350505050614178565b5b508080600101915050614089565b508281149150505b949350505050565b600960009054906101000a900460ff1681565b60006060600f600084815260200190815260200160002060000154600f6000858152602001908152602001600020600101808054600181600116156101000203166002900480601f0160208091040260200160405190810160405280929190818152602001828054600181600116156101000203166002900480156142595780601f1061422e57610100808354040283529160200191614259565b820191906000526020600020905b81548152906001019060200180831161423c57829003601f168201915b5050505050905091509150915091565b60008060009054906101000a900473ffffffffffffffffffffffffffffffffffffffff1673ffffffffffffffffffffffffffffffffffffffff163373ffffffffffffffffffffffffffffffffffffffff161415156142c657600080fd5b81600360006101000a81548173ffffffffffffffffffffffffffffffffffffffff021916908373ffffffffffffffffffffffffffffffffffffffff16021790555060019050919050565b606080826040519080825280602002602001820160405280156143425781602001602082028038833980820191505090505b50905060008090505b838110156143b85784600b546001830160405160200180848152602001838152602001828152602001935050505060405160208183030381529060405280519060200120828281518110151561439d57fe5b9060200190602002018181525050808060010191505061434b565b508091505092915050565b600560009054906101000a900473ffffffffffffffffffffffffffffffffffffffff1681565b600d5481565b6000600560009054906101000a900473ffffffffffffffffffffffffffffffffffffffff1673ffffffffffffffffffffffffffffffffffffffff1663c41a32ec336040518263ffffffff167c0100000000000000000000000000000000000000000000000000000000028152600401808273ffffffffffffffffffffffffffffffffffffffff1673ffffffffffffffffffffffffffffffffffffffff16815260200191505060206040518083038186803b1580156144ac57600080fd5b505afa1580156144c0573d6000803e3d6000fd5b505050506040513d60208110156144d657600080fd5b810190808051906020019092919050505015156144f257600080fd5b6000809054906101000a900473ffffffffffffffffffffffffffffffffffffffff1673ffffffffffffffffffffffffffffffffffffffff163373ffffffffffffffffffffffffffffffffffffffff161415151561454e57600080fd5b60011515600960009054906101000a900460ff16151514151561457057600080fd5b600654600e60003373ffffffffffffffffffffffffffffffffffffffff1673ffffffffffffffffffffffffffffffffffffffff1681526020019081526020016000206000015410151561462b576040517f08c379a000000000000000000000000000000000000000000000000000000000815260040180806020018281038252600c8152602001807f6368616c6c616e67653a2031000000000000000000000000000000000000000081525060200191505060405180910390fd5b600760065401431180156146445750600a600654014311155b15156146b8576040517f08c379a000000000000000000000000000000000000000000000000000000000815260040180806020018281038252600c8152602001807f6368616c6c616e67653a2032000000000000000000000000000000000000000081525060200191505060405180910390fd5b6103e86001600a540111151515614737576040517f08c379a000000000000000000000000000000000000000000000000000000000815260040180806020018281038252600c8152602001807f6368616c6c616e67653a2033000000000000000000000000000000000000000081525060200191505060405180910390fd5b606060405190810160405280600654815260200183815260200160001515815250600e60003373ffffffffffffffffffffffffffffffffffffffff1673ffffffffffffffffffffffffffffffffffffffff168152602001908152602001600020600082015181600001556020820151816001015560408201518160020160006101000a81548160ff0219169083151502179055509050506001600a6000828254019250508190555060019050919050565b60085481565b600160009054906101000a900473ffffffffffffffffffffffffffffffffffffffff1681565b600081409050919050565b60008060009054906101000a900473ffffffffffffffffffffffffffffffffffffffff1673ffffffffffffffffffffffffffffffffffffffff163373ffffffffffffffffffffffffffffffffffffffff1614151561487c57600080fd5b600073ffffffffffffffffffffffffffffffffffffffff168273ffffffffffffffffffffffffffffffffffffffff16141515156148b857600080fd5b60001515600960009054906101000a900460ff1615151415156148da57600080fd5b816000806101000a81548173ffffffffffffffffffffffffffffffffffffffff021916908373ffffffffffffffffffffffffffffffffffffffff16021790555060019050919050565b600e6020528060005260406000206000915090508060000154908060010154908060020160009054906101000a900460ff16905083565b6000600a827f0100000000000000000000000000000000000000000000000000000000000000900460ff1610156149db576030827f01000000000000000000000000000000000000000000000000000000000000009004017f0100000000000000000000000000000000000000000000000000000000000000029050614a27565b6057827f01000000000000000000000000000000000000000000000000000000000000009004017f01000000000000000000000000000000000000000000000000000000000000000290505b919050565b61040060405190810160405280602090602082028038833980820191505090505090565b828054600181600116156101000203166002900490600052602060002090601f016020900481019282601f10614a9157805160ff1916838001178555614abf565b82800160010185558215614abf579182015b82811115614abe578251825591602001919060010190614aa3565b5b509050614acc9190614ad0565b5090565b614af291905b80821115614aee576000816000905550600101614ad6565b5090565b9056fe77726f6e672073636f72652062617365206f6e2074686520676976656e207365637265742f626c6f636b4e6f7375626d6974426c6f636b7320616e642077696e6e696e675469636b657473206d69736d61746368a165627a7a72305820ad5db9c28956d9dcd04efe3c4a870012172c41eab7ed4d7babed9da787b9bf6e0029",
  "source": "pragma solidity ^0.5.2;\n\n// import \"./ERC20.sol\";\nimport \"./SafeMath.sol\";\nimport \"./RNTInterface.sol\";\nimport \"./ELEMInterface.sol\";\nimport \"./MemberShip.sol\";\n\n// About the game\n// # Roles\n//  * defender : setup the game (only the fee)\n//  * player : join the game, max 1000 players, pay 0.01 eth and may win some RNT\n//  * validator: provide merkle proof at `end` block\n//\n// # time line of a game:\n//    start ------------ n ------- m -------------------------------- end --------\n//          calc           reg to    lottery, each round: 0-n winners     mr submit to chain;\n//                         sc        (only on sc)                         withdraw eth/claim RNT in several blks\n//          (period1)      (period2) (period3)                            could start next round\n//\n//  * sc: state channel; mr: merkle root\n//  * period_all = period1 + period2 + period3\n//  * during period2 (btw. `n` and `m`) players get tickets on sc\n//  * player obtain ticket in the form `ticket[i] = hash(score + bn[m-1] + i)` where 0<=i<5, depend on score\n// todo: add an upper limit for the contract to give to players? Such as (the order of) 1000*0.01 eth = 10 eth = 1e5 RNT\n\ncontract Erebor{\n\tusing SafeMath for uint256;\n\t// Variables\n\taddress public defender;\n\taddress public winner;\n\taddress public validator;\n\taddress public RNTAddr;\n\taddress public ELEMAddr;\n\taddress public memberContractAddr;\n\tuint constant public maxPlayer = 1000;\n\tuint constant public period_all = 20;  // 7 + 3 + 10\n\tuint public initHeight;\n\tbytes32 public difficulty = 0x0000000fffffffffffffffffffffffffffffffffffffffffffffffffffffffff;\n\tuint public fee = 10000000000000000;\n\tbool public setup = false;\n\tuint public playercount = 0;\n\t// bool NFTClaimed = false;\n\n\tstruct playerInfo {\n\t\t// uint since;     // block height when joined\n\t\tuint initHeightJoined;\n\t\tbytes32 scoreHash;\n\t\tbool claimed;\n\t}\n\n        struct battleStat{\n            bytes32 merkleRoot;\n            string ipfsAddr;\n        }\n\n        bytes32 public ticketSeed;  // blockhash(initHeight+8) of each game\n        bytes32 public board;\n        bytes32 public prevboard;\n\n\tmapping (address => playerInfo) public playerDB;\n\tmapping (uint => battleStat) public battleHistory;\n\n\t// Modifiers\n\tmodifier defenderOnly() {\n\t\trequire(msg.sender == defender);\n\t\t_;\n\t}\n\n\tmodifier WinnerOnly() {\n\t\trequire(winner != address(0) && msg.sender == winner);\n\t\t_;\n\t}\n\n\tmodifier ValidatorOnly() {\n\t        require(validator != address(0) && msg.sender == validator);\n\t        _;\n        }\n\n\tmodifier NewGameOnly() {\n\t\trequire(setup == false);\n\t\t_;\n\t}\n\n\tmodifier feePaid() {\n\t\trequire(msg.value >= fee);\n\t\t_;\n\t}\n\n\tmodifier isActiveMember(){\n                require(MemberShip(memberContractAddr).addrIsActiveMember(msg.sender));\n                _;\n        }\n\n\t// modifier isActiveMemberOrpaid(){\n                // require(MemberShip(memberContractAddr).addrIsActiveMember(msg.sender));\n                // _;\n        // }\n\n\tmodifier gameStarted() {\n\t\trequire(setup == true);\n\t\t_;\n\t}\n\n\tmodifier gameStalled() {\n\t\t// require(setup == true && block.number > initHeight + period_all && winner == address(0));\n\t\trequire(setup == true && block.number > initHeight + 10 && winner == address(0));  // for debug\n\t\t_;\n\t}\n\n\tmodifier notDefender() {\n\t\trequire(msg.sender != defender);\n\t\t_;\n\t}\n\n\t// Contract constructor\n\tconstructor(bytes32 _init, address _RNTAddr, address _ELEMAddr, address _memberContracAddr) public payable {\n\t\trequire(msg.value >= fee);\n\t\tdefender = msg.sender;\n\t\tvalidator = msg.sender;\n\t\tRNTAddr  = _RNTAddr;\n                ELEMAddr = _ELEMAddr;\n                memberContractAddr = _memberContracAddr;\n\n\t\trequire(fortify(_init) == true);\n\t}\n\n\t// WinnerOnly\n\t// function withdraw(uint _tokenId) internal WinnerOnly returns (bool) {\n\t//         // only one player win NFT; make sure winner can claim the reward after next game started\n\t// \trequire(block.number > playerDB[msg.sender].initHeightJoined + period_all);\n\t// \trequire(block.number < playerDB[msg.sender].initHeightJoined + period_all + 7);\n\n\t// \t// uint256 reward = uint256(address(this).balance).mul(uint256(6)) / uint256(10);\n\t// \t// require(RNTInterface(RNTAddr).mint(msg.sender) == true);\n\t// \t// require(msg.sender.send(reward) == true);\n                // winner = msg.sender;\n                // // NFTClaimed = true;\n                // require(iELEM(ELEMAddr).mint(msg.sender, _tokenId, uri) == true);\n\t// \treturn true;\n\t// }\n\n        // for debug purpose\n\tbool public debug1 = false;\n\tbool public debug2 = true;\n\tbool public debug3 = true;\n\tbool public debug4 = true;\n\tbool public debug5 = true;\n\tbool public debug6 = true;\n\tfunction debugParams(bool _debug1, bool _debug2, bool _debug3, bool _debug4, bool _debug5, bool _debug6) public{\n                debug1 = _debug1;\n                debug2 = _debug2;\n                debug3 = _debug3;\n                debug4 = _debug4;\n                debug5 = _debug5;\n                debug6 = _debug6;\n        }\n\n\tfunction claimLotteReward( // this happens after end of a game, next round may started\n\t    bytes32 secret,\n\t    string memory slots,\n\t    uint blockNo,\n\t    uint[] memory submitBlocks,  // the winning blocks the player claimed\n\t    uint[] memory winningTickets, // the idx of generateTickets. same order as submitBlocks.\n\t    bytes32[] memory proof,\n\t    bool[] memory isLeft,\n\t    bytes32 score\n\t) public returns (bool) {\n\t\t// require(playerDB[msg.sender].claimed == false, \"already claimed\");  // for debug\n\t\trequire(winningTickets.length <= 10, \"you cannot claim more tickets\");\n\t        require(proof.length == isLeft.length, \"len of proof/isLeft mismatch\");\n\t        require(winningTickets.length == submitBlocks.length, \"submitBlocks and winningTickets mismatch\");\n                require(battleHistory[playerDB[msg.sender].initHeightJoined].merkleRoot != bytes32(0), \"no merkle root yet\");\n\t\tif (debug1){  // set debug1 to flase to have more time to debug\n                        require(block.number > playerDB[msg.sender].initHeightJoined + period_all + 1, \"too early\");\n                        require(block.number < playerDB[msg.sender].initHeightJoined + period_all + 7, \"too late\");\n                }\n\n                bytes32 _board;\n                if (playerDB[msg.sender].initHeightJoined == initHeight) {\n                        _board = board;\n                } else if (initHeight - playerDB[msg.sender].initHeightJoined > period_all) {\n                        _board = prevboard;\n                } else {  // should not happen\n                        revert();\n                }\n\n                // No second chance: if one of the following verification failed, the player cannot call this function again.\n                playerDB[msg.sender].claimed = false;  // set to false for debug only\n\n                // verify score\n                require(compareScore(secret, slots, blockNo, _board, score));\n                require(keccak256(abi.encodePacked(score)) == playerDB[msg.sender].scoreHash,\n                        \"wrong score base on the given secret/blockNo\");\n\n\t\tbytes32[] memory genTickets = new bytes32[](getNumOfTickets(score));\n\t\tgenTickets = generateTickets(score, getNumOfTickets(score));\n\n                // generate \"claimHash\", which is hash(msg.sender, submitBlocks[i], winningTickets[i], ...) where i=0,1,2,...\n\t\t// bytes32[5] memory genTickets = generateTickets(score);\n\t\tbytes32 claimHash;\n                claimHash = getClaimHash(submitBlocks, winningTickets, genTickets);\n\n                require(merkleTreeValidator(proof, isLeft, claimHash,\n                                            battleHistory[playerDB[msg.sender].initHeightJoined].merkleRoot),\n                        \"merkle proof failed\");\n\n                // count number of winning tickets and mint RNT\n                if (debug2) {\n                    require(verifyWinnumber(_board, submitBlocks, winningTickets, genTickets) == true, \"found a wrong ticket\");\n                }\n\n                // determine the only winner who win a Elemire\n                // TODO: better ways to determine the only winner of NFT\n                if (debug3) {\n                    if (winningTickets.length >= 3) {  // '3' for debug only\n                            string memory uri = bytes32ToString(claimHash);\n                            iELEM(ELEMAddr).mint(msg.sender, uint(claimHash), uri);\n                    }\n                }\n\n\t\treturn true;\n        }\n\n\tfunction getClaimHash(uint[] memory submitBlocks, uint[] memory winningTickets, bytes32[] memory genTickets) public view returns(bytes32 claimHash){\n                bytes memory packed = abi.encodePacked(uint256(msg.sender));\n                for (uint i=0; i<winningTickets.length; i++){\n                        packed = abi.encodePacked(packed, submitBlocks[i], genTickets[winningTickets[i]]);\n                }\n                claimHash = keccak256(packed);\n        }\n\n        function verifyWinnumber(bytes32 _board, uint[] memory submitBlocks, uint[] memory winningTickets, bytes32[] memory genTickets) public returns(bool){\n                bytes32 winNumber;\n                uint prevBlock;\n                uint prevWinningTicket;\n                for (uint i=0; i<submitBlocks.length; i++){\n                            require(submitBlocks[i] >= prevBlock);\n                            if (submitBlocks[i] == prevBlock){\n                                    require(winningTickets[i] > prevWinningTicket);\n                            }\n                            winNumber = keccak256(abi.encodePacked(_board, blockhash(submitBlocks[i])));\n                            if (uint8(winNumber[31])%16 != uint8(genTickets[winningTickets[i]][31])%16 ){\n                                    return false;\n                            }\n                            // require(winNumber[31] == genTickets[winningTickets[i]][31]);  // last 1 byte = 2 digits of hex\n                            // require(winNumber[31] == genTickets[winningTickets[i]][31] &&\n                            //         uint(winNumber[30])%16 == uint(genTickets[winningTickets[i]][30])%16 );  // last 3 digits of hex\n                            // require(winNumber[31] == genTickets[winningTickets[i]][31] &&\n                            //         winNumber[30] == genTickets[winningTickets[i]][30]);  // last 4 digits of hex\n\n                            require(RNTInterface(RNTAddr).mint(msg.sender) == true);\n                            prevBlock = submitBlocks[i];\n                            prevWinningTicket = winningTickets[i];\n                }\n                return true;\n        }\n\n        function generateTickets(bytes32 score, uint numTickets) public view returns (bytes32[] memory){\n                // require(score != bytes32(0));\n                bytes32[] memory tickets = new bytes32[](numTickets);\n\t\tfor (uint i = 0; i < numTickets; i++) {\n\t\t        tickets[i] = keccak256(abi.encodePacked(score, ticketSeed, i+1));  // idx of ticket start from 1\n                }\n                return tickets;\n        }\n\n        function getNumOfTickets(bytes32 score) public pure returns(uint){\n                if (score > 0x00ffffffffffffffffffffffffffffffffffffffffffffffffffffffffffffff) {\n                        return 1;  // min: 1 ticket\n                } else if (score > 0x000fffffffffffffffffffffffffffffffffffffffffffffffffffffffffffff) {\n                        return 2;\n                } else if (score > 0x0000ffffffffffffffffffffffffffffffffffffffffffffffffffffffffffff) {\n                        return 3;\n                } else if (score > 0x00000fffffffffffffffffffffffffffffffffffffffffffffffffffffffffff) {\n                        return 4;\n                } else {\n                        return 5;  // max: 5 tickets\n                }\n        }\n\n\n\t// function randomNumber() public view returns (bytes32) {\n\t// \trequire(lastRevived != samGroup[3] && samGroup[3] != bytes32(0));\n\t// \trequire(block.number - lastActivity <= 5);\n\t// \treturn keccak256(abi.encodePacked(samGroup[0], samGroup[1], samGroup[2], samGroup[3], blockhash(block.number - 1)));\n\t// }\n\n\tfunction getPlayerInfo(address _addr) public view returns (uint, bytes32, bool) {\n\t\treturn (playerDB[_addr].initHeightJoined, playerDB[_addr].scoreHash, playerDB[_addr].claimed);\n\t}\n\n\tfunction fortify(bytes32 defense) public payable defenderOnly NewGameOnly returns (bool) {\n\t\trequire(defense > difficulty);\n\n\t\tinitHeight = block.number;\n\n                playerDB[msg.sender] = playerInfo(initHeight, bytes32(0), false);\n\t\tplayercount += 1;\n\t\tsetup = true;\n\n\t        prevboard = board;\n\t        board = defense;\n\n\t\treturn true;\n\t}\n\n\t// Join game\n\tfunction challenge(bytes32 scoreHash) public payable isActiveMember notDefender gameStarted returns (bool) {\n\t\trequire(playerDB[msg.sender].initHeightJoined < initHeight, \"challange: 1\");\n\t\trequire(block.number > initHeight + 7 && block.number <= initHeight + 10, \"challange: 2\");\n\t\trequire(playercount + 1 <= maxPlayer, \"challange: 3\");\n\n\t\tplayerDB[msg.sender] = playerInfo(initHeight, scoreHash, false);\n\n\t\tplayercount += 1;\n\n\t\treturn true;\n\t}\n\n\tfunction testOutcome(bytes32 secret, uint blockNo) public gameStarted view returns (bytes32 _board, bool[32] memory _slots) {\n\t\trequire(block.number > initHeight + 7 && block.number <= initHeight + 10, 'testoutcome: 1');\n\t\trequire(block.number - blockNo < 7, 'testoutcome: 2');\n\t\trequire(blockNo <= block.number - 1 && blockNo >= initHeight + 7 && blockNo < initHeight + 10, 'testoutcome: 3');\n\n\t\t_board = keccak256(abi.encodePacked(msg.sender, secret, blockhash(blockNo)));\n\n\t\tfor (uint i = 0; i <= 31; i++) {\n\t\t\tif(_board[i] < board[i]) {\n\t\t\t\t_slots[i] = true;\n\t\t\t}\n\t\t}\n\n\t\treturn (_board, _slots);\n\t}\n\n\tfunction winningNumber(uint blockNo, bytes32 _board) public view returns (bytes32) {\n\t        require(blockNo <= block.number - 1);\n\t        return keccak256(abi.encodePacked(_board, blockhash(blockNo)));\n        }\n\n        function merkleTreeValidator(bytes32[] memory proof, bool[] memory isLeft, bytes32 targetLeaf, bytes32 _merkleRoot) public pure returns (bool) {\n                require(proof.length < 32);  // 2**32 ~ 4.3e9 leaves!\n                require(proof.length == isLeft.length);\n\n                bytes32 targetHash = targetLeaf;\n                for (uint256 i = 0; i < proof.length; i++) {\n                        bytes32 proofEle = proof[i];\n                        if (isLeft[i]) {\n                                targetHash = keccak256(abi.encodePacked(proofEle, targetHash));\n                        } else if (!isLeft[i]) {\n                                targetHash = keccak256(abi.encodePacked(targetHash, proofEle));\n                        } else {\n                                return false;\n                        }\n                }\n                return targetHash == _merkleRoot;\n        }\n\n\tfunction submitMerkleRoot(uint _initHeight, bytes32 _merkleRoot, string memory _ipfsAddr) public ValidatorOnly returns (bool) {\n\t\trequire(block.number >= _initHeight + period_all && block.number <= _initHeight + period_all + 4);\n\t        battleHistory[_initHeight]= battleStat(_merkleRoot, _ipfsAddr);\n\t        ticketSeed = blockhash(_initHeight+8);\n\n                // reset the status of previous game (or put it in challange?)\n\t        // NFTClaimed = false;   // reset the status of previous game\n\t        winner = address(0);\n\t        return true;\n        }\n\n        function getBlockInfo(uint _initHeight) public view returns(bytes32, string memory){\n\t        return (battleHistory[_initHeight].merkleRoot, battleHistory[_initHeight].ipfsAddr);\n        }\n\n        function getBlockhash(uint blockNo) external view returns (bytes32) {\n                return blockhash(blockNo);\n        }\n\n        function compareScore(bytes32 secret, string memory slotString, uint blockNo, bytes32 _board, bytes32 score) public view returns (bool){\n\t        // verification: the secret belongs to the player\n\t\tbytes32 myboard = keccak256(abi.encodePacked(msg.sender, secret, blockhash(blockNo))); // initialize for the loop below\n                bytes memory slots = bytes(slotString);\n                bytes32 out;\n                for (uint i = 0; i < 32; i++) {\n\t\t        if(slots[i] == 0x30) {  // see decimal ascii chart, '0' = 48 (decimal) = 0x30 (hex)\n\t\t                out |= bytes32(_board[i] & 0xff ) >> (i*8);\n                        } else if (slots[i] == 0x31) {\n\t\t                out |= bytes32(myboard[i] & 0xff ) >> (i*8);\n\t\t\t}\n                }\n\n\t\treturn out == score;\n\t}\n\n        function computeScore(bytes32 secret, string memory slotString, uint blockNo, bytes32 _board) public view returns (bytes32 out){\n\t\tbytes32 myboard = keccak256(abi.encodePacked(msg.sender, secret, blockhash(blockNo))); // initialize for the loop below\n                bytes memory slots = bytes(slotString);\n                bytes memory outscore = new bytes(32);\n                for (uint i = 0; i < 32; i++) {\n\t\t        if(slots[i] == 0x30) {  // see decimal ascii chart, '0' = 48 (decimal) = 0x30 (hex)\n\t\t                outscore[i] = _board[i];\n                        } else if (slots[i] == 0x31) {\n                                outscore[i] = myboard[i];\n\t\t\t}\n                }\n\n                // bytes to bytes32\n                for (uint i=0; i<32; i++){\n                        out |= bytes32( outscore[i] & 0xff ) >> (i * 8);\n                }\n\t\treturn out;\n\t}\n\n        function hexToChar(byte _b) internal pure returns (byte c) {\n                // convert a hex value (0-f) to it's corresponding string\n                if (uint8(_b) < 10) {\n                        return byte(uint8(_b) + 0x30);  // '0' to '9'\n                } else {\n                        return byte(uint8(_b) + 0x57);  // 'a' to 'z'\n                }\n        }\n\n        // convert bytes32 to hex \"string\"\n        function bytes32ToString(bytes32 b32) public pure returns (string memory out) {\n                bytes memory s = new bytes(64);\n                for (uint8 i = 0; i < 32; i++) {\n                        byte _b = byte(b32[i]);\n                        byte hi = byte(uint8(_b) / 16);\n                        byte lo = byte(uint8(_b) - 16 * uint8(hi));\n                        s[i*2] = hexToChar(hi);\n                        s[i*2+1] = hexToChar(lo);\n                }\n                out = string(s);\n        }\n\n        // upgrade and ownership\n        function newValidator(address _newValidator) public defenderOnly returns (bool){\n                require(_newValidator != address(0));\n                validator = _newValidator;\n                return true;\n        }\n\n        function newDefender(address _newDefender) public defenderOnly returns (bool){\n                require(_newDefender != address(0));\n                require(setup == false);\n\t\tdefender = _newDefender;\n                return true;\n        }\n\n        function newRNTAddr(address _newAddr) public defenderOnly returns (bool){\n                RNTAddr = _newAddr;\n                return true;\n        }\n\n        function newELEMAddr(address _newAddr) public defenderOnly returns (bool){\n                ELEMAddr = _newAddr;\n                return true;\n        }\n\n        function newMemberAddr(address _addr) public defenderOnly returns (bool){\n                memberContractAddr = _addr;\n                return true;\n        }\n\n        // fallback\n        function () defenderOnly gameStalled external {\n            winner = address(0);\n            setup = false;\n            // board = bytes32(0);\n            playercount = 0;\n            // require(withdraw());\n\t    // require(msg.sender.send(address(this).balance) == true);  // for debug\n        }\n}\n",
  "sourcePath": "/home/kai/Work/project/ETHDenver_2019_Erebor/contracts/Erebor.sol",
  "compiler": {
    "name": "solc",
    "version": "0.5.2+commit.1df8f40c.Linux.g++"
  },
  "schemaVersion": "3.0.1",
  "updatedAt": "2019-02-16T18:24:14.939Z",
  "devdoc": {
    "methods": {}
  },
  "userdoc": {
    "methods": {}
  }
}