{
  "contractName": "Erebor",
  "abi": [
    {
      "constant": true,
      "inputs": [],
      "name": "RNTAddr",
      "outputs": [
        {
          "name": "",
          "type": "address"
        }
      ],
      "payable": false,
      "stateMutability": "view",
      "type": "function",
      "signature": "0x06491eff"
    },
    {
      "constant": true,
      "inputs": [],
      "name": "ticketsToWinNFT",
      "outputs": [
        {
          "name": "",
          "type": "uint256"
        }
      ],
      "payable": false,
      "stateMutability": "view",
      "type": "function",
      "signature": "0x0c391659"
    },
    {
      "constant": true,
      "inputs": [],
      "name": "difficulty",
      "outputs": [
        {
          "name": "",
          "type": "bytes32"
        }
      ],
      "payable": false,
      "stateMutability": "view",
      "type": "function",
      "signature": "0x19cae462"
    },
    {
      "constant": true,
      "inputs": [],
      "name": "debug6",
      "outputs": [
        {
          "name": "",
          "type": "bool"
        }
      ],
      "payable": false,
      "stateMutability": "view",
      "type": "function",
      "signature": "0x26593be7"
    },
    {
      "constant": true,
      "inputs": [],
      "name": "validator",
      "outputs": [
        {
          "name": "",
          "type": "address"
        }
      ],
      "payable": false,
      "stateMutability": "view",
      "type": "function",
      "signature": "0x3a5381b5"
    },
    {
      "constant": true,
      "inputs": [
        {
          "name": "",
          "type": "uint256"
        }
      ],
      "name": "battleHistory",
      "outputs": [
        {
          "name": "merkleRoot",
          "type": "bytes32"
        },
        {
          "name": "ipfsAddr",
          "type": "string"
        }
      ],
      "payable": false,
      "stateMutability": "view",
      "type": "function",
      "signature": "0x4ccc616d"
    },
    {
      "constant": true,
      "inputs": [],
      "name": "debug2",
      "outputs": [
        {
          "name": "",
          "type": "bool"
        }
      ],
      "payable": false,
      "stateMutability": "view",
      "type": "function",
      "signature": "0x5ba88c28"
    },
    {
      "constant": true,
      "inputs": [],
      "name": "debug3",
      "outputs": [
        {
          "name": "",
          "type": "bool"
        }
      ],
      "payable": false,
      "stateMutability": "view",
      "type": "function",
      "signature": "0x610da891"
    },
    {
      "constant": true,
      "inputs": [],
      "name": "maxPlayer",
      "outputs": [
        {
          "name": "",
          "type": "uint256"
        }
      ],
      "payable": false,
      "stateMutability": "view",
      "type": "function",
      "signature": "0x6426b1e4"
    },
    {
      "constant": true,
      "inputs": [],
      "name": "playercount",
      "outputs": [
        {
          "name": "",
          "type": "uint256"
        }
      ],
      "payable": false,
      "stateMutability": "view",
      "type": "function",
      "signature": "0x6b180b59"
    },
    {
      "constant": true,
      "inputs": [],
      "name": "board",
      "outputs": [
        {
          "name": "",
          "type": "bytes32"
        }
      ],
      "payable": false,
      "stateMutability": "view",
      "type": "function",
      "signature": "0x7cd3229a"
    },
    {
      "constant": true,
      "inputs": [],
      "name": "debug1",
      "outputs": [
        {
          "name": "",
          "type": "bool"
        }
      ],
      "payable": false,
      "stateMutability": "view",
      "type": "function",
      "signature": "0x7dc7c5a5"
    },
    {
      "constant": true,
      "inputs": [],
      "name": "defender",
      "outputs": [
        {
          "name": "",
          "type": "address"
        }
      ],
      "payable": false,
      "stateMutability": "view",
      "type": "function",
      "signature": "0x7f4c91c5"
    },
    {
      "constant": true,
      "inputs": [],
      "name": "ticketSeed",
      "outputs": [
        {
          "name": "",
          "type": "bytes32"
        }
      ],
      "payable": false,
      "stateMutability": "view",
      "type": "function",
      "signature": "0x8186a8f9"
    },
    {
      "constant": true,
      "inputs": [],
      "name": "ELEMAddr",
      "outputs": [
        {
          "name": "",
          "type": "address"
        }
      ],
      "payable": false,
      "stateMutability": "view",
      "type": "function",
      "signature": "0x885869dc"
    },
    {
      "constant": true,
      "inputs": [],
      "name": "debug5",
      "outputs": [
        {
          "name": "",
          "type": "bool"
        }
      ],
      "payable": false,
      "stateMutability": "view",
      "type": "function",
      "signature": "0x9b76d3f9"
    },
    {
      "constant": true,
      "inputs": [],
      "name": "period_all",
      "outputs": [
        {
          "name": "",
          "type": "uint256"
        }
      ],
      "payable": false,
      "stateMutability": "view",
      "type": "function",
      "signature": "0xa4dd1d7d"
    },
    {
      "constant": true,
      "inputs": [],
      "name": "initHeight",
      "outputs": [
        {
          "name": "",
          "type": "uint256"
        }
      ],
      "payable": false,
      "stateMutability": "view",
      "type": "function",
      "signature": "0xa78eacdb"
    },
    {
      "constant": true,
      "inputs": [],
      "name": "debug4",
      "outputs": [
        {
          "name": "",
          "type": "bool"
        }
      ],
      "payable": false,
      "stateMutability": "view",
      "type": "function",
      "signature": "0xb70902bc"
    },
    {
      "constant": true,
      "inputs": [],
      "name": "setup",
      "outputs": [
        {
          "name": "",
          "type": "bool"
        }
      ],
      "payable": false,
      "stateMutability": "view",
      "type": "function",
      "signature": "0xba0bba40"
    },
    {
      "constant": true,
      "inputs": [],
      "name": "memberContractAddr",
      "outputs": [
        {
          "name": "",
          "type": "address"
        }
      ],
      "payable": false,
      "stateMutability": "view",
      "type": "function",
      "signature": "0xc170f356"
    },
    {
      "constant": true,
      "inputs": [],
      "name": "prevboard",
      "outputs": [
        {
          "name": "",
          "type": "bytes32"
        }
      ],
      "payable": false,
      "stateMutability": "view",
      "type": "function",
      "signature": "0xcff483b9"
    },
    {
      "constant": true,
      "inputs": [],
      "name": "fee",
      "outputs": [
        {
          "name": "",
          "type": "uint256"
        }
      ],
      "payable": false,
      "stateMutability": "view",
      "type": "function",
      "signature": "0xddca3f43"
    },
    {
      "constant": true,
      "inputs": [],
      "name": "winner",
      "outputs": [
        {
          "name": "",
          "type": "address"
        }
      ],
      "payable": false,
      "stateMutability": "view",
      "type": "function",
      "signature": "0xdfbf53ae"
    },
    {
      "constant": true,
      "inputs": [
        {
          "name": "",
          "type": "address"
        }
      ],
      "name": "playerDB",
      "outputs": [
        {
          "name": "initHeightJoined",
          "type": "uint256"
        },
        {
          "name": "scoreHash",
          "type": "bytes32"
        },
        {
          "name": "claimed",
          "type": "bool"
        }
      ],
      "payable": false,
      "stateMutability": "view",
      "type": "function",
      "signature": "0xfa3cb11f"
    },
    {
      "inputs": [
        {
          "name": "_init",
          "type": "bytes32"
        },
        {
          "name": "_RNTAddr",
          "type": "address"
        },
        {
          "name": "_ELEMAddr",
          "type": "address"
        },
        {
          "name": "_memberContracAddr",
          "type": "address"
        }
      ],
      "payable": true,
      "stateMutability": "payable",
      "type": "constructor",
      "signature": "constructor"
    },
    {
      "payable": false,
      "stateMutability": "nonpayable",
      "type": "fallback"
    },
    {
      "constant": false,
      "inputs": [
        {
          "name": "_debug1",
          "type": "bool"
        },
        {
          "name": "_debug2",
          "type": "bool"
        },
        {
          "name": "_debug3",
          "type": "bool"
        },
        {
          "name": "_debug4",
          "type": "bool"
        },
        {
          "name": "_debug5",
          "type": "bool"
        },
        {
          "name": "_debug6",
          "type": "bool"
        }
      ],
      "name": "debugParams",
      "outputs": [],
      "payable": false,
      "stateMutability": "nonpayable",
      "type": "function",
      "signature": "0x42c270e7"
    },
    {
      "constant": false,
      "inputs": [
        {
          "name": "secret",
          "type": "bytes32"
        },
        {
          "name": "slots",
          "type": "string"
        },
        {
          "name": "blockNo",
          "type": "uint256"
        },
        {
          "name": "submitBlocks",
          "type": "uint256[]"
        },
        {
          "name": "winningTickets",
          "type": "uint256[]"
        },
        {
          "name": "proof",
          "type": "bytes32[]"
        },
        {
          "name": "isLeft",
          "type": "bool[]"
        },
        {
          "name": "score",
          "type": "bytes32"
        }
      ],
      "name": "claimLotteReward",
      "outputs": [
        {
          "name": "",
          "type": "bool"
        }
      ],
      "payable": false,
      "stateMutability": "nonpayable",
      "type": "function",
      "signature": "0x76125212"
    },
    {
      "constant": true,
      "inputs": [
        {
          "name": "submitBlocks",
          "type": "uint256[]"
        },
        {
          "name": "winningTickets",
          "type": "uint256[]"
        },
        {
          "name": "genTickets",
          "type": "bytes32[]"
        }
      ],
      "name": "getClaimHash",
      "outputs": [
        {
          "name": "claimHash",
          "type": "bytes32"
        }
      ],
      "payable": false,
      "stateMutability": "view",
      "type": "function",
      "signature": "0x6903be12"
    },
    {
      "constant": false,
      "inputs": [
        {
          "name": "_board",
          "type": "bytes32"
        },
        {
          "name": "submitBlocks",
          "type": "uint256[]"
        },
        {
          "name": "winningTickets",
          "type": "uint256[]"
        },
        {
          "name": "genTickets",
          "type": "bytes32[]"
        }
      ],
      "name": "verifyWinnumber",
      "outputs": [
        {
          "name": "",
          "type": "bool"
        }
      ],
      "payable": false,
      "stateMutability": "nonpayable",
      "type": "function",
      "signature": "0x113097ad"
    },
    {
      "constant": true,
      "inputs": [
        {
          "name": "score",
          "type": "bytes32"
        },
        {
          "name": "numTickets",
          "type": "uint256"
        }
      ],
      "name": "generateTickets",
      "outputs": [
        {
          "name": "",
          "type": "bytes32[]"
        }
      ],
      "payable": false,
      "stateMutability": "view",
      "type": "function",
      "signature": "0xc13375db"
    },
    {
      "constant": true,
      "inputs": [
        {
          "name": "score",
          "type": "bytes32"
        }
      ],
      "name": "getNumOfTickets",
      "outputs": [
        {
          "name": "",
          "type": "uint256"
        }
      ],
      "payable": false,
      "stateMutability": "pure",
      "type": "function",
      "signature": "0x5c0effb2"
    },
    {
      "constant": true,
      "inputs": [
        {
          "name": "_addr",
          "type": "address"
        }
      ],
      "name": "getPlayerInfo",
      "outputs": [
        {
          "name": "",
          "type": "uint256"
        },
        {
          "name": "",
          "type": "bytes32"
        },
        {
          "name": "",
          "type": "bool"
        }
      ],
      "payable": false,
      "stateMutability": "view",
      "type": "function",
      "signature": "0x59328401"
    },
    {
      "constant": false,
      "inputs": [
        {
          "name": "defense",
          "type": "bytes32"
        }
      ],
      "name": "fortify",
      "outputs": [
        {
          "name": "",
          "type": "bool"
        }
      ],
      "payable": true,
      "stateMutability": "payable",
      "type": "function",
      "signature": "0x58533612"
    },
    {
      "constant": false,
      "inputs": [
        {
          "name": "scoreHash",
          "type": "bytes32"
        }
      ],
      "name": "challenge",
      "outputs": [
        {
          "name": "",
          "type": "bool"
        }
      ],
      "payable": true,
      "stateMutability": "payable",
      "type": "function",
      "signature": "0xcffd46dc"
    },
    {
      "constant": true,
      "inputs": [
        {
          "name": "secret",
          "type": "bytes32"
        },
        {
          "name": "blockNo",
          "type": "uint256"
        }
      ],
      "name": "testOutcome",
      "outputs": [
        {
          "name": "_board",
          "type": "bytes32"
        },
        {
          "name": "_slots",
          "type": "bool[32]"
        }
      ],
      "payable": false,
      "stateMutability": "view",
      "type": "function",
      "signature": "0x1cb9409f"
    },
    {
      "constant": true,
      "inputs": [
        {
          "name": "blockNo",
          "type": "uint256"
        },
        {
          "name": "_board",
          "type": "bytes32"
        }
      ],
      "name": "winningNumber",
      "outputs": [
        {
          "name": "",
          "type": "bytes32"
        }
      ],
      "payable": false,
      "stateMutability": "view",
      "type": "function",
      "signature": "0xafde797c"
    },
    {
      "constant": true,
      "inputs": [
        {
          "name": "proof",
          "type": "bytes32[]"
        },
        {
          "name": "isLeft",
          "type": "bool[]"
        },
        {
          "name": "targetLeaf",
          "type": "bytes32"
        },
        {
          "name": "_merkleRoot",
          "type": "bytes32"
        }
      ],
      "name": "merkleTreeValidator",
      "outputs": [
        {
          "name": "",
          "type": "bool"
        }
      ],
      "payable": false,
      "stateMutability": "pure",
      "type": "function",
      "signature": "0xb8f69e37"
    },
    {
      "constant": false,
      "inputs": [
        {
          "name": "_initHeight",
          "type": "uint256"
        },
        {
          "name": "_merkleRoot",
          "type": "bytes32"
        },
        {
          "name": "_ipfsAddr",
          "type": "string"
        }
      ],
      "name": "submitMerkleRoot",
      "outputs": [
        {
          "name": "",
          "type": "bool"
        }
      ],
      "payable": false,
      "stateMutability": "nonpayable",
      "type": "function",
      "signature": "0xb04cd588"
    },
    {
      "constant": true,
      "inputs": [
        {
          "name": "_initHeight",
          "type": "uint256"
        }
      ],
      "name": "getBlockInfo",
      "outputs": [
        {
          "name": "",
          "type": "bytes32"
        },
        {
          "name": "",
          "type": "string"
        }
      ],
      "payable": false,
      "stateMutability": "view",
      "type": "function",
      "signature": "0xbb141cf4"
    },
    {
      "constant": true,
      "inputs": [
        {
          "name": "blockNo",
          "type": "uint256"
        }
      ],
      "name": "getBlockhash",
      "outputs": [
        {
          "name": "",
          "type": "bytes32"
        }
      ],
      "payable": false,
      "stateMutability": "view",
      "type": "function",
      "signature": "0xe9413d38"
    },
    {
      "constant": true,
      "inputs": [
        {
          "name": "secret",
          "type": "bytes32"
        },
        {
          "name": "slotString",
          "type": "string"
        },
        {
          "name": "blockNo",
          "type": "uint256"
        },
        {
          "name": "_board",
          "type": "bytes32"
        },
        {
          "name": "score",
          "type": "bytes32"
        }
      ],
      "name": "compareScore",
      "outputs": [
        {
          "name": "",
          "type": "bool"
        }
      ],
      "payable": false,
      "stateMutability": "view",
      "type": "function",
      "signature": "0x81787864"
    },
    {
      "constant": true,
      "inputs": [
        {
          "name": "secret",
          "type": "bytes32"
        },
        {
          "name": "slotString",
          "type": "string"
        },
        {
          "name": "blockNo",
          "type": "uint256"
        },
        {
          "name": "_board",
          "type": "bytes32"
        }
      ],
      "name": "computeScore",
      "outputs": [
        {
          "name": "out",
          "type": "bytes32"
        }
      ],
      "payable": false,
      "stateMutability": "view",
      "type": "function",
      "signature": "0xa1ef91d8"
    },
    {
      "constant": true,
      "inputs": [
        {
          "name": "b32",
          "type": "bytes32"
        }
      ],
      "name": "bytes32ToString",
      "outputs": [
        {
          "name": "out",
          "type": "string"
        }
      ],
      "payable": false,
      "stateMutability": "pure",
      "type": "function",
      "signature": "0x9201de55"
    },
    {
      "constant": false,
      "inputs": [
        {
          "name": "_newValidator",
          "type": "address"
        }
      ],
      "name": "newValidator",
      "outputs": [
        {
          "name": "",
          "type": "bool"
        }
      ],
      "payable": false,
      "stateMutability": "nonpayable",
      "type": "function",
      "signature": "0x065c11cc"
    },
    {
      "constant": false,
      "inputs": [
        {
          "name": "_newDefender",
          "type": "address"
        }
      ],
      "name": "newDefender",
      "outputs": [
        {
          "name": "",
          "type": "bool"
        }
      ],
      "payable": false,
      "stateMutability": "nonpayable",
      "type": "function",
      "signature": "0xed958671"
    },
    {
      "constant": false,
      "inputs": [
        {
          "name": "_newAddr",
          "type": "address"
        }
      ],
      "name": "newRNTAddr",
      "outputs": [
        {
          "name": "",
          "type": "bool"
        }
      ],
      "payable": false,
      "stateMutability": "nonpayable",
      "type": "function",
      "signature": "0xbdefa88a"
    },
    {
      "constant": false,
      "inputs": [
        {
          "name": "_newAddr",
          "type": "address"
        }
      ],
      "name": "newELEMAddr",
      "outputs": [
        {
          "name": "",
          "type": "bool"
        }
      ],
      "payable": false,
      "stateMutability": "nonpayable",
      "type": "function",
      "signature": "0x9fe7758a"
    },
    {
      "constant": false,
      "inputs": [
        {
          "name": "_addr",
          "type": "address"
        }
      ],
      "name": "newMemberAddr",
      "outputs": [
        {
          "name": "",
          "type": "bool"
        }
      ],
      "payable": false,
      "stateMutability": "nonpayable",
      "type": "function",
      "signature": "0x6cf6d757"
    },
    {
      "constant": false,
      "inputs": [
        {
          "name": "_n",
          "type": "uint256"
        }
      ],
      "name": "renewTicketsToWinNFT",
      "outputs": [
        {
          "name": "",
          "type": "bool"
        }
      ],
      "payable": false,
      "stateMutability": "nonpayable",
      "type": "function",
      "signature": "0x51b6abbc"
    }
  ],
  "bytecode": "0x60806040527c0fffffffffffffffffffffffffffffffffffffffffffffffffffffffff600102600755662386f26fc100006008556000600960006101000a81548160ff0219169083151502179055506000600a556002600b556000601160006101000a81548160ff0219169083151502179055506001601160016101000a81548160ff0219169083151502179055506001601160026101000a81548160ff0219169083151502179055506001601160036101000a81548160ff0219169083151502179055506001601160046101000a81548160ff0219169083151502179055506001601160056101000a81548160ff02191690831515021790555060405160808062005108833981018060405260808110156200011b57600080fd5b810190808051906020019092919080519060200190929190805190602001909291908051906020019092919050505060085434101515156200015c57600080fd5b336000806101000a81548173ffffffffffffffffffffffffffffffffffffffff021916908373ffffffffffffffffffffffffffffffffffffffff16021790555033600260006101000a81548173ffffffffffffffffffffffffffffffffffffffff021916908373ffffffffffffffffffffffffffffffffffffffff16021790555082600360006101000a81548173ffffffffffffffffffffffffffffffffffffffff021916908373ffffffffffffffffffffffffffffffffffffffff16021790555081600460006101000a81548173ffffffffffffffffffffffffffffffffffffffff021916908373ffffffffffffffffffffffffffffffffffffffff16021790555080600560006101000a81548173ffffffffffffffffffffffffffffffffffffffff021916908373ffffffffffffffffffffffffffffffffffffffff16021790555060011515620002be85620002d7640100000000026401000000009004565b1515141515620002cd57600080fd5b5050505062000450565b60008060009054906101000a900473ffffffffffffffffffffffffffffffffffffffff1673ffffffffffffffffffffffffffffffffffffffff163373ffffffffffffffffffffffffffffffffffffffff161415156200033557600080fd5b60001515600960009054906101000a900460ff1615151415156200035857600080fd5b600754821115156200036957600080fd5b4360068190555060606040519081016040528060065481526020016000600102815260200160001515815250600f60003373ffffffffffffffffffffffffffffffffffffffff1673ffffffffffffffffffffffffffffffffffffffff168152602001908152602001600020600082015181600001556020820151816001015560408201518160020160006101000a81548160ff0219169083151502179055509050506001600a600082825401925050819055506001600960006101000a81548160ff021916908315150217905550600d54600e8190555081600d8190555060019050919050565b614ca880620004606000396000f3fe6080604052600436106102cb576000357c0100000000000000000000000000000000000000000000000000000000900480638178786411610192578063b8f69e37116100f9578063cff483b9116100b2578063dfbf53ae1161008c578063dfbf53ae14611c10578063e9413d3814611c67578063ed95867114611cb6578063fa3cb11f14611d1f576102cb565b8063cff483b914611b74578063cffd46dc14611b9f578063ddca3f4314611be5576102cb565b8063b8f69e37146117ab578063ba0bba4014611930578063bb141cf41461195f578063bdefa88a14611a1a578063c13375db14611a83578063c170f35614611b1d576102cb565b8063a1ef91d81161014b578063a1ef91d8146114df578063a4dd1d7d146115d9578063a78eacdb14611604578063afde797c1461162f578063b04cd58814611688578063b70902bc1461177c576102cb565b806381787864146112095780638186a8f914611311578063885869dc1461133c5780639201de55146113935780639b76d3f9146114475780639fe7758a14611476576102cb565b806359328401116102365780636b180b59116101ef5780636b180b5914610d755780636cf6d75714610da05780637612521214610e095780637cd3229a146111585780637dc7c5a5146111835780637f4c91c5146111b2576102cb565b80635932840114610a255780635ba88c2814610a9c5780635c0effb214610acb578063610da89114610b1a5780636426b1e414610b495780636903be1214610b74576102cb565b806326593be71161028857806326593be7146107d25780633a5381b51461080157806342c270e7146108585780634ccc616d146108d157806351b6abbc1461098c57806358533612146109df576102cb565b806306491eff14610426578063065c11cc1461047d5780630c391659146104e6578063113097ad1461051157806319cae462146107205780631cb9409f1461074b575b3480156102d757600080fd5b506000809054906101000a900473ffffffffffffffffffffffffffffffffffffffff1673ffffffffffffffffffffffffffffffffffffffff163373ffffffffffffffffffffffffffffffffffffffff1614151561033357600080fd5b60011515600960009054906101000a900460ff16151514801561035a5750600a6006540143115b80156103b45750600073ffffffffffffffffffffffffffffffffffffffff16600160009054906101000a900473ffffffffffffffffffffffffffffffffffffffff1673ffffffffffffffffffffffffffffffffffffffff16145b15156103bf57600080fd5b6000600160006101000a81548173ffffffffffffffffffffffffffffffffffffffff021916908373ffffffffffffffffffffffffffffffffffffffff1602179055506000600960006101000a81548160ff0219169083151502179055506000600a81905550005b34801561043257600080fd5b5061043b611d96565b604051808273ffffffffffffffffffffffffffffffffffffffff1673ffffffffffffffffffffffffffffffffffffffff16815260200191505060405180910390f35b34801561048957600080fd5b506104cc600480360360208110156104a057600080fd5b81019080803573ffffffffffffffffffffffffffffffffffffffff169060200190929190505050611dbc565b604051808215151515815260200191505060405180910390f35b3480156104f257600080fd5b506104fb611e9f565b6040518082815260200191505060405180910390f35b34801561051d57600080fd5b506107066004803603608081101561053457600080fd5b81019080803590602001909291908035906020019064010000000081111561055b57600080fd5b82018360208201111561056d57600080fd5b8035906020019184602083028401116401000000008311171561058f57600080fd5b919080806020026020016040519081016040528093929190818152602001838360200280828437600081840152601f19601f820116905080830192505050505050509192919290803590602001906401000000008111156105ef57600080fd5b82018360208201111561060157600080fd5b8035906020019184602083028401116401000000008311171561062357600080fd5b919080806020026020016040519081016040528093929190818152602001838360200280828437600081840152601f19601f8201169050808301925050505050505091929192908035906020019064010000000081111561068357600080fd5b82018360208201111561069557600080fd5b803590602001918460208302840111640100000000831117156106b757600080fd5b919080806020026020016040519081016040528093929190818152602001838360200280828437600081840152601f19601f820116905080830192505050505050509192919290505050611ea5565b604051808215151515815260200191505060405180910390f35b34801561072c57600080fd5b506107356121da565b6040518082815260200191505060405180910390f35b34801561075757600080fd5b5061078e6004803603604081101561076e57600080fd5b8101908080359060200190929190803590602001909291905050506121e0565b60405180838152602001826020800280838360005b838110156107be5780820151818401526020810190506107a3565b505050509050019250505060405180910390f35b3480156107de57600080fd5b506107e761251d565b604051808215151515815260200191505060405180910390f35b34801561080d57600080fd5b50610816612530565b604051808273ffffffffffffffffffffffffffffffffffffffff1673ffffffffffffffffffffffffffffffffffffffff16815260200191505060405180910390f35b34801561086457600080fd5b506108cf600480360360c081101561087b57600080fd5b81019080803515159060200190929190803515159060200190929190803515159060200190929190803515159060200190929190803515159060200190929190803515159060200190929190505050612556565b005b3480156108dd57600080fd5b5061090a600480360360208110156108f457600080fd5b81019080803590602001909291905050506125fa565b6040518083815260200180602001828103825283818151815260200191508051906020019080838360005b83811015610950578082015181840152602081019050610935565b50505050905090810190601f16801561097d5780820380516001836020036101000a031916815260200191505b50935050505060405180910390f35b34801561099857600080fd5b506109c5600480360360208110156109af57600080fd5b81019080803590602001909291905050506126b6565b604051808215151515815260200191505060405180910390f35b610a0b600480360360208110156109f557600080fd5b810190808035906020019092919050505061273e565b604051808215151515815260200191505060405180910390f35b348015610a3157600080fd5b50610a7460048036036020811015610a4857600080fd5b81019080803573ffffffffffffffffffffffffffffffffffffffff1690602001909291905050506128b4565b6040518084815260200183815260200182151515158152602001935050505060405180910390f35b348015610aa857600080fd5b50610ab161299c565b604051808215151515815260200191505060405180910390f35b348015610ad757600080fd5b50610b0460048036036020811015610aee57600080fd5b81019080803590602001909291905050506129af565b6040518082815260200191505060405180910390f35b348015610b2657600080fd5b50610b2f612a85565b604051808215151515815260200191505060405180910390f35b348015610b5557600080fd5b50610b5e612a98565b6040518082815260200191505060405180910390f35b348015610b8057600080fd5b50610d5f60048036036060811015610b9757600080fd5b8101908080359060200190640100000000811115610bb457600080fd5b820183602082011115610bc657600080fd5b80359060200191846020830284011164010000000083111715610be857600080fd5b919080806020026020016040519081016040528093929190818152602001838360200280828437600081840152601f19601f82011690508083019250505050505050919291929080359060200190640100000000811115610c4857600080fd5b820183602082011115610c5a57600080fd5b80359060200191846020830284011164010000000083111715610c7c57600080fd5b919080806020026020016040519081016040528093929190818152602001838360200280828437600081840152601f19601f82011690508083019250505050505050919291929080359060200190640100000000811115610cdc57600080fd5b820183602082011115610cee57600080fd5b80359060200191846020830284011164010000000083111715610d1057600080fd5b919080806020026020016040519081016040528093929190818152602001838360200280828437600081840152601f19601f820116905080830192505050505050509192919290505050612a9e565b6040518082815260200191505060405180910390f35b348015610d8157600080fd5b50610d8a612bcd565b6040518082815260200191505060405180910390f35b348015610dac57600080fd5b50610def60048036036020811015610dc357600080fd5b81019080803573ffffffffffffffffffffffffffffffffffffffff169060200190929190505050612bd3565b604051808215151515815260200191505060405180910390f35b348015610e1557600080fd5b5061113e6004803603610100811015610e2d57600080fd5b810190808035906020019092919080359060200190640100000000811115610e5457600080fd5b820183602082011115610e6657600080fd5b80359060200191846001830284011164010000000083111715610e8857600080fd5b91908080601f016020809104026020016040519081016040528093929190818152602001838380828437600081840152601f19601f8201169050808301925050505050505091929192908035906020019092919080359060200190640100000000811115610ef557600080fd5b820183602082011115610f0757600080fd5b80359060200191846020830284011164010000000083111715610f2957600080fd5b919080806020026020016040519081016040528093929190818152602001838360200280828437600081840152601f19601f82011690508083019250505050505050919291929080359060200190640100000000811115610f8957600080fd5b820183602082011115610f9b57600080fd5b80359060200191846020830284011164010000000083111715610fbd57600080fd5b919080806020026020016040519081016040528093929190818152602001838360200280828437600081840152601f19601f8201169050808301925050505050505091929192908035906020019064010000000081111561101d57600080fd5b82018360208201111561102f57600080fd5b8035906020019184602083028401116401000000008311171561105157600080fd5b919080806020026020016040519081016040528093929190818152602001838360200280828437600081840152601f19601f820116905080830192505050505050509192919290803590602001906401000000008111156110b157600080fd5b8201836020820111156110c357600080fd5b803590602001918460208302840111640100000000831117156110e557600080fd5b919080806020026020016040519081016040528093929190818152602001838360200280828437600081840152601f19601f82011690508083019250505050505050919291929080359060200190929190505050612c7a565b604051808215151515815260200191505060405180910390f35b34801561116457600080fd5b5061116d613585565b6040518082815260200191505060405180910390f35b34801561118f57600080fd5b5061119861358b565b604051808215151515815260200191505060405180910390f35b3480156111be57600080fd5b506111c761359e565b604051808273ffffffffffffffffffffffffffffffffffffffff1673ffffffffffffffffffffffffffffffffffffffff16815260200191505060405180910390f35b34801561121557600080fd5b506112f7600480360360a081101561122c57600080fd5b81019080803590602001909291908035906020019064010000000081111561125357600080fd5b82018360208201111561126557600080fd5b8035906020019184600183028401116401000000008311171561128757600080fd5b91908080601f016020809104026020016040519081016040528093929190818152602001838380828437600081840152601f19601f8201169050808301925050505050505091929192908035906020019092919080359060200190929190803590602001909291905050506135c3565b604051808215151515815260200191505060405180910390f35b34801561131d57600080fd5b506113266138d5565b6040518082815260200191505060405180910390f35b34801561134857600080fd5b506113516138db565b604051808273ffffffffffffffffffffffffffffffffffffffff1673ffffffffffffffffffffffffffffffffffffffff16815260200191505060405180910390f35b34801561139f57600080fd5b506113cc600480360360208110156113b657600080fd5b8101908080359060200190929190505050613901565b6040518080602001828103825283818151815260200191508051906020019080838360005b8381101561140c5780820151818401526020810190506113f1565b50505050905090810190601f1680156114395780820380516001836020036101000a031916815260200191505b509250505060405180910390f35b34801561145357600080fd5b5061145c613b06565b604051808215151515815260200191505060405180910390f35b34801561148257600080fd5b506114c56004803603602081101561149957600080fd5b81019080803573ffffffffffffffffffffffffffffffffffffffff169060200190929190505050613b19565b604051808215151515815260200191505060405180910390f35b3480156114eb57600080fd5b506115c36004803603608081101561150257600080fd5b81019080803590602001909291908035906020019064010000000081111561152957600080fd5b82018360208201111561153b57600080fd5b8035906020019184600183028401116401000000008311171561155d57600080fd5b91908080601f016020809104026020016040519081016040528093929190818152602001838380828437600081840152601f19601f8201169050808301925050505050505091929192908035906020019092919080359060200190929190505050613bc0565b6040518082815260200191505060405180910390f35b3480156115e557600080fd5b506115ee613f9f565b6040518082815260200191505060405180910390f35b34801561161057600080fd5b50611619613fa4565b6040518082815260200191505060405180910390f35b34801561163b57600080fd5b506116726004803603604081101561165257600080fd5b810190808035906020019092919080359060200190929190505050613faa565b6040518082815260200191505060405180910390f35b34801561169457600080fd5b50611762600480360360608110156116ab57600080fd5b810190808035906020019092919080359060200190929190803590602001906401000000008111156116dc57600080fd5b8201836020820111156116ee57600080fd5b8035906020019184600183028401116401000000008311171561171057600080fd5b91908080601f016020809104026020016040519081016040528093929190818152602001838380828437600081840152601f19601f820116905080830192505050505050509192919290505050613ff6565b604051808215151515815260200191505060405180910390f35b34801561178857600080fd5b5061179161417c565b604051808215151515815260200191505060405180910390f35b3480156117b757600080fd5b50611916600480360360808110156117ce57600080fd5b81019080803590602001906401000000008111156117eb57600080fd5b8201836020820111156117fd57600080fd5b8035906020019184602083028401116401000000008311171561181f57600080fd5b919080806020026020016040519081016040528093929190818152602001838360200280828437600081840152601f19601f8201169050808301925050505050505091929192908035906020019064010000000081111561187f57600080fd5b82018360208201111561189157600080fd5b803590602001918460208302840111640100000000831117156118b357600080fd5b919080806020026020016040519081016040528093929190818152602001838360200280828437600081840152601f19601f820116905080830192505050505050509192919290803590602001909291908035906020019092919050505061418f565b604051808215151515815260200191505060405180910390f35b34801561193c57600080fd5b506119456142b3565b604051808215151515815260200191505060405180910390f35b34801561196b57600080fd5b506119986004803603602081101561198257600080fd5b81019080803590602001909291905050506142c6565b6040518083815260200180602001828103825283818151815260200191508051906020019080838360005b838110156119de5780820151818401526020810190506119c3565b50505050905090810190601f168015611a0b5780820380516001836020036101000a031916815260200191505b50935050505060405180910390f35b348015611a2657600080fd5b50611a6960048036036020811015611a3d57600080fd5b81019080803573ffffffffffffffffffffffffffffffffffffffff16906020019092919050505061439c565b604051808215151515815260200191505060405180910390f35b348015611a8f57600080fd5b50611ac660048036036040811015611aa657600080fd5b810190808035906020019092919080359060200190929190505050614443565b6040518080602001828103825283818151815260200191508051906020019060200280838360005b83811015611b09578082015181840152602081019050611aee565b505050509050019250505060405180910390f35b348015611b2957600080fd5b50611b326144f6565b604051808273ffffffffffffffffffffffffffffffffffffffff1673ffffffffffffffffffffffffffffffffffffffff16815260200191505060405180910390f35b348015611b8057600080fd5b50611b8961451c565b6040518082815260200191505060405180910390f35b611bcb60048036036020811015611bb557600080fd5b8101908080359060200190929190505050614522565b604051808215151515815260200191505060405180910390f35b348015611bf157600080fd5b50611bfa61491b565b6040518082815260200191505060405180910390f35b348015611c1c57600080fd5b50611c25614921565b604051808273ffffffffffffffffffffffffffffffffffffffff1673ffffffffffffffffffffffffffffffffffffffff16815260200191505060405180910390f35b348015611c7357600080fd5b50611ca060048036036020811015611c8a57600080fd5b8101908080359060200190929190505050614947565b6040518082815260200191505060405180910390f35b348015611cc257600080fd5b50611d0560048036036020811015611cd957600080fd5b81019080803573ffffffffffffffffffffffffffffffffffffffff169060200190929190505050614952565b604051808215151515815260200191505060405180910390f35b348015611d2b57600080fd5b50611d6e60048036036020811015611d4257600080fd5b81019080803573ffffffffffffffffffffffffffffffffffffffff169060200190929190505050614a56565b6040518084815260200183815260200182151515158152602001935050505060405180910390f35b600360009054906101000a900473ffffffffffffffffffffffffffffffffffffffff1681565b60008060009054906101000a900473ffffffffffffffffffffffffffffffffffffffff1673ffffffffffffffffffffffffffffffffffffffff163373ffffffffffffffffffffffffffffffffffffffff16141515611e1957600080fd5b600073ffffffffffffffffffffffffffffffffffffffff168273ffffffffffffffffffffffffffffffffffffffff1614151515611e5557600080fd5b81600260006101000a81548173ffffffffffffffffffffffffffffffffffffffff021916908373ffffffffffffffffffffffffffffffffffffffff16021790555060019050919050565b600b5481565b60008060008060008090505b87518110156121c957828882815181101515611ec957fe5b9060200190602002015110151515611ee057600080fd5b828882815181101515611eef57fe5b906020019060200201511415611f2557818782815181101515611f0e57fe5b90602001906020020151111515611f2457600080fd5b5b888882815181101515611f3457fe5b906020019060200201514060405160200180838152602001828152602001925050506040516020818303038152906040528051906020012093506010868883815181101515611f7f57fe5b90602001906020020151815181101515611f9557fe5b90602001906020020151601f602081101515611fad57fe5b1a7f0100000000000000000000000000000000000000000000000000000000000000027f0100000000000000000000000000000000000000000000000000000000000000900460ff16811515611fff57fe5b0660ff16601085601f60208110151561201457fe5b1a7f0100000000000000000000000000000000000000000000000000000000000000027f0100000000000000000000000000000000000000000000000000000000000000900460ff1681151561206657fe5b0660ff1614151561207e5760009450505050506121d2565b60011515600360009054906101000a900473ffffffffffffffffffffffffffffffffffffffff1673ffffffffffffffffffffffffffffffffffffffff16636a627842336040518263ffffffff167c0100000000000000000000000000000000000000000000000000000000028152600401808273ffffffffffffffffffffffffffffffffffffffff1673ffffffffffffffffffffffffffffffffffffffff168152602001915050602060405180830381600087803b15801561213f57600080fd5b505af1158015612153573d6000803e3d6000fd5b505050506040513d602081101561216957600080fd5b8101908080519060200190929190505050151514151561218857600080fd5b878181518110151561219657fe5b90602001906020020151925086818151811015156121b057fe5b9060200190602002015191508080600101915050611eb1565b50600193505050505b949350505050565b60075481565b60006121ea614b5f565b60011515600960009054906101000a900460ff16151514151561220c57600080fd5b600760065401431180156122255750600a600654014311155b1515612299576040517f08c379a000000000000000000000000000000000000000000000000000000000815260040180806020018281038252600e8152602001807f746573746f7574636f6d653a203100000000000000000000000000000000000081525060200191505060405180910390fd5b6007834303101515612313576040517f08c379a000000000000000000000000000000000000000000000000000000000815260040180806020018281038252600e8152602001807f746573746f7574636f6d653a203200000000000000000000000000000000000081525060200191505060405180910390fd5b60014303831115801561232b57506007600654018310155b801561233b5750600a6006540183105b15156123af576040517f08c379a000000000000000000000000000000000000000000000000000000000815260040180806020018281038252600e8152602001807f746573746f7574636f6d653a203300000000000000000000000000000000000081525060200191505060405180910390fd5b33848440604051602001808473ffffffffffffffffffffffffffffffffffffffff1673ffffffffffffffffffffffffffffffffffffffff166c01000000000000000000000000028152601401838152602001828152602001935050505060405160208183030381529060405280519060200120915060008090505b601f8111151561250f57600d548160208110151561244457fe5b1a7f0100000000000000000000000000000000000000000000000000000000000000027effffffffffffffffffffffffffffffffffffffffffffffffffffffffffffff1916838260208110151561249757fe5b1a7f0100000000000000000000000000000000000000000000000000000000000000027effffffffffffffffffffffffffffffffffffffffffffffffffffffffffffff1916101561250257600182826020811015156124f257fe5b6020020190151590811515815250505b808060010191505061242a565b508181915091509250929050565b601160059054906101000a900460ff1681565b600260009054906101000a900473ffffffffffffffffffffffffffffffffffffffff1681565b85601160006101000a81548160ff02191690831515021790555084601160016101000a81548160ff02191690831515021790555083601160026101000a81548160ff02191690831515021790555082601160036101000a81548160ff02191690831515021790555081601160046101000a81548160ff02191690831515021790555080601160056101000a81548160ff021916908315150217905550505050505050565b6010602052806000526040600020600091509050806000015490806001018054600181600116156101000203166002900480601f0160208091040260200160405190810160405280929190818152602001828054600181600116156101000203166002900480156126ac5780601f10612681576101008083540402835291602001916126ac565b820191906000526020600020905b81548152906001019060200180831161268f57829003601f168201915b5050505050905082565b60008060009054906101000a900473ffffffffffffffffffffffffffffffffffffffff1673ffffffffffffffffffffffffffffffffffffffff163373ffffffffffffffffffffffffffffffffffffffff1614151561271357600080fd5b6001821180156127235750600a82105b151561272e57600080fd5b81600b8190555060019050919050565b60008060009054906101000a900473ffffffffffffffffffffffffffffffffffffffff1673ffffffffffffffffffffffffffffffffffffffff163373ffffffffffffffffffffffffffffffffffffffff1614151561279b57600080fd5b60001515600960009054906101000a900460ff1615151415156127bd57600080fd5b600754821115156127cd57600080fd5b4360068190555060606040519081016040528060065481526020016000600102815260200160001515815250600f60003373ffffffffffffffffffffffffffffffffffffffff1673ffffffffffffffffffffffffffffffffffffffff168152602001908152602001600020600082015181600001556020820151816001015560408201518160020160006101000a81548160ff0219169083151502179055509050506001600a600082825401925050819055506001600960006101000a81548160ff021916908315150217905550600d54600e8190555081600d8190555060019050919050565b6000806000600f60008573ffffffffffffffffffffffffffffffffffffffff1673ffffffffffffffffffffffffffffffffffffffff16815260200190815260200160002060000154600f60008673ffffffffffffffffffffffffffffffffffffffff1673ffffffffffffffffffffffffffffffffffffffff16815260200190815260200160002060010154600f60008773ffffffffffffffffffffffffffffffffffffffff1673ffffffffffffffffffffffffffffffffffffffff16815260200190815260200160002060020160009054906101000a900460ff169250925092509193909250565b601160019054906101000a900460ff1681565b60007effffffffffffffffffffffffffffffffffffffffffffffffffffffffffffff6001028211156129e45760019050612a80565b7e0fffffffffffffffffffffffffffffffffffffffffffffffffffffffffffff600102821115612a175760029050612a80565b7dffffffffffffffffffffffffffffffffffffffffffffffffffffffffffff600102821115612a495760039050612a80565b7d0fffffffffffffffffffffffffffffffffffffffffffffffffffffffffff600102821115612a7b5760049050612a80565b600590505b919050565b601160029054906101000a900460ff1681565b6103e881565b600060603373ffffffffffffffffffffffffffffffffffffffff1660405160200180828152602001915050604051602081830303815290604052905060008090505b8451811015612bba57818682815181101515612af857fe5b90602001906020020151858784815181101515612b1157fe5b90602001906020020151815181101515612b2757fe5b906020019060200201516040516020018084805190602001908083835b602083101515612b695780518252602082019150602081019050602083039250612b44565b6001836020036101000a038019825116818451168082178552505050505050905001838152602001828152602001935050505060405160208183030381529060405291508080600101915050612ae0565b5080805190602001209150509392505050565b600a5481565b60008060009054906101000a900473ffffffffffffffffffffffffffffffffffffffff1673ffffffffffffffffffffffffffffffffffffffff163373ffffffffffffffffffffffffffffffffffffffff16141515612c3057600080fd5b81600560006101000a81548173ffffffffffffffffffffffffffffffffffffffff021916908373ffffffffffffffffffffffffffffffffffffffff16021790555060019050919050565b6000600a855111151515612cf6576040517f08c379a000000000000000000000000000000000000000000000000000000000815260040180806020018281038252601d8152602001807f796f752063616e6e6f7420636c61696d206d6f7265207469636b65747300000081525060200191505060405180910390fd5b82518451141515612d6f576040517f08c379a000000000000000000000000000000000000000000000000000000000815260040180806020018281038252601c8152602001807f6c656e206f662070726f6f662f69734c656674206d69736d617463680000000081525060200191505060405180910390fd5b85518551141515612dcb576040517f08c379a0000000000000000000000000000000000000000000000000000000008152600401808060200182810382526028815260200180614c556028913960400191505060405180910390fd5b600060010260106000600f60003373ffffffffffffffffffffffffffffffffffffffff1673ffffffffffffffffffffffffffffffffffffffff1681526020019081526020016000206000015481526020019081526020016000206000015414151515612e9f576040517f08c379a00000000000000000000000000000000000000000000000000000000081526004018080602001828103825260128152602001807f6e6f206d65726b6c6520726f6f7420796574000000000000000000000000000081525060200191505060405180910390fd5b601160009054906101000a900460ff16156130335760016014600f60003373ffffffffffffffffffffffffffffffffffffffff1673ffffffffffffffffffffffffffffffffffffffff16815260200190815260200160002060000154010143111515612f73576040517f08c379a00000000000000000000000000000000000000000000000000000000081526004018080602001828103825260098152602001807f746f6f206561726c79000000000000000000000000000000000000000000000081525060200191505060405180910390fd5b60076014600f60003373ffffffffffffffffffffffffffffffffffffffff1673ffffffffffffffffffffffffffffffffffffffff16815260200190815260200160002060000154010143101515613032576040517f08c379a00000000000000000000000000000000000000000000000000000000081526004018080602001828103825260088152602001807f746f6f206c61746500000000000000000000000000000000000000000000000081525060200191505060405180910390fd5b5b6000600654600f60003373ffffffffffffffffffffffffffffffffffffffff1673ffffffffffffffffffffffffffffffffffffffff16815260200190815260200160002060000154141561308b57600d5490506130ea565b6014600f60003373ffffffffffffffffffffffffffffffffffffffff1673ffffffffffffffffffffffffffffffffffffffff168152602001908152602001600020600001546006540311156130e457600e5490506130e9565b600080fd5b5b6000600f60003373ffffffffffffffffffffffffffffffffffffffff1673ffffffffffffffffffffffffffffffffffffffff16815260200190815260200160002060020160006101000a81548160ff0219169083151502179055506131528a8a8a84876135c3565b151561315d57600080fd5b600f60003373ffffffffffffffffffffffffffffffffffffffff1673ffffffffffffffffffffffffffffffffffffffff1681526020019081526020016000206001015483604051602001808281526020019150506040516020818303038152906040528051906020012014151561321f576040517f08c379a000000000000000000000000000000000000000000000000000000000815260040180806020018281038252602c815260200180614c29602c913960400191505060405180910390fd5b606061322a846129af565b6040519080825280602002602001820160405280156132585781602001602082028038833980820191505090505b50905061326d84613268866129af565b614443565b9050600061327c898984612a9e565b90506132e287878360106000600f60003373ffffffffffffffffffffffffffffffffffffffff1673ffffffffffffffffffffffffffffffffffffffff1681526020019081526020016000206000015481526020019081526020016000206000015461418f565b1515613356576040517f08c379a00000000000000000000000000000000000000000000000000000000081526004018080602001828103825260138152602001807f6d65726b6c652070726f6f66206661696c65640000000000000000000000000081525060200191505060405180910390fd5b601160019054906101000a900460ff16156133f3576001151561337b848b8b86611ea5565b15151415156133f2576040517f08c379a00000000000000000000000000000000000000000000000000000000081526004018080602001828103825260148152602001807f666f756e6420612077726f6e67207469636b657400000000000000000000000081525060200191505060405180910390fd5b5b601160029054906101000a900460ff161561357257600b54885110151561357157606061341f82613901565b9050600460009054906101000a900473ffffffffffffffffffffffffffffffffffffffff1673ffffffffffffffffffffffffffffffffffffffff1663d3fc9864338460019004846040518463ffffffff167c0100000000000000000000000000000000000000000000000000000000028152600401808473ffffffffffffffffffffffffffffffffffffffff1673ffffffffffffffffffffffffffffffffffffffff16815260200183815260200180602001828103825283818151815260200191508051906020019080838360005b838110156135095780820151818401526020810190506134ee565b50505050905090810190601f1680156135365780820380516001836020036101000a031916815260200191505b50945050505050600060405180830381600087803b15801561355757600080fd5b505af115801561356b573d6000803e3d6000fd5b50505050505b5b6001935050505098975050505050505050565b600d5481565b601160009054906101000a900460ff1681565b6000809054906101000a900473ffffffffffffffffffffffffffffffffffffffff1681565b60008033878640604051602001808473ffffffffffffffffffffffffffffffffffffffff1673ffffffffffffffffffffffffffffffffffffffff166c0100000000000000000000000002815260140183815260200182815260200193505050506040516020818303038152906040528051906020012090506060869050600080600090505b60208110156138c35760307f010000000000000000000000000000000000000000000000000000000000000002838281518110151561368357fe5b9060200101517f010000000000000000000000000000000000000000000000000000000000000090047f0100000000000000000000000000000000000000000000000000000000000000027effffffffffffffffffffffffffffffffffffffffffffffffffffffffffffff19161415613785576008810260ff7f010000000000000000000000000000000000000000000000000000000000000002888360208110151561372c57fe5b1a7f010000000000000000000000000000000000000000000000000000000000000002167effffffffffffffffffffffffffffffffffffffffffffffffffffffffffffff1916908060020a8204915050821791506138b6565b60317f01000000000000000000000000000000000000000000000000000000000000000283828151811015156137b757fe5b9060200101517f010000000000000000000000000000000000000000000000000000000000000090047f0100000000000000000000000000000000000000000000000000000000000000027effffffffffffffffffffffffffffffffffffffffffffffffffffffffffffff191614156138b5576008810260ff7f010000000000000000000000000000000000000000000000000000000000000002858360208110151561386057fe5b1a7f010000000000000000000000000000000000000000000000000000000000000002167effffffffffffffffffffffffffffffffffffffffffffffffffffffffffffff1916908060020a8204915050821791505b5b8080600101915050613648565b50848114935050505095945050505050565b600c5481565b600460009054906101000a900473ffffffffffffffffffffffffffffffffffffffff1681565b606080604080519080825280601f01601f1916602001820160405280156139375781602001600182028038833980820191505090505b50905060008090505b60208160ff161015613afc576000848260ff1660208110151561395f57fe5b1a7f010000000000000000000000000000000000000000000000000000000000000002905060006010827f0100000000000000000000000000000000000000000000000000000000000000900460ff168115156139b857fe5b047f01000000000000000000000000000000000000000000000000000000000000000290506000817f01000000000000000000000000000000000000000000000000000000000000009004601002837f01000000000000000000000000000000000000000000000000000000000000009004037f0100000000000000000000000000000000000000000000000000000000000000029050613a5882614a8d565b856002860260ff16815181101515613a6c57fe5b9060200101907effffffffffffffffffffffffffffffffffffffffffffffffffffffffffffff1916908160001a905350613aa581614a8d565b856001600287020160ff16815181101515613abc57fe5b9060200101907effffffffffffffffffffffffffffffffffffffffffffffffffffffffffffff1916908160001a9053505050508080600101915050613940565b5080915050919050565b601160049054906101000a900460ff1681565b60008060009054906101000a900473ffffffffffffffffffffffffffffffffffffffff1673ffffffffffffffffffffffffffffffffffffffff163373ffffffffffffffffffffffffffffffffffffffff16141515613b7657600080fd5b81600460006101000a81548173ffffffffffffffffffffffffffffffffffffffff021916908373ffffffffffffffffffffffffffffffffffffffff16021790555060019050919050565b60008033868540604051602001808473ffffffffffffffffffffffffffffffffffffffff1673ffffffffffffffffffffffffffffffffffffffff166c0100000000000000000000000002815260140183815260200182815260200193505050506040516020818303038152906040528051906020012090506060859050606060206040519080825280601f01601f191660200182016040528015613c735781602001600182028038833980820191505090505b50905060008090505b6020811015613ec15760307f0100000000000000000000000000000000000000000000000000000000000000028382815181101515613cb757fe5b9060200101517f010000000000000000000000000000000000000000000000000000000000000090047f0100000000000000000000000000000000000000000000000000000000000000027effffffffffffffffffffffffffffffffffffffffffffffffffffffffffffff19161415613d9e578581602081101515613d3857fe5b1a7f0100000000000000000000000000000000000000000000000000000000000000028282815181101515613d6957fe5b9060200101907effffffffffffffffffffffffffffffffffffffffffffffffffffffffffffff1916908160001a905350613eb4565b60317f0100000000000000000000000000000000000000000000000000000000000000028382815181101515613dd057fe5b9060200101517f010000000000000000000000000000000000000000000000000000000000000090047f0100000000000000000000000000000000000000000000000000000000000000027effffffffffffffffffffffffffffffffffffffffffffffffffffffffffffff19161415613eb3578381602081101515613e5157fe5b1a7f0100000000000000000000000000000000000000000000000000000000000000028282815181101515613e8257fe5b9060200101907effffffffffffffffffffffffffffffffffffffffffffffffffffffffffffff1916908160001a9053505b5b8080600101915050613c7c565b5060008090505b6020811015613f90576008810260ff7f0100000000000000000000000000000000000000000000000000000000000000028383815181101515613f0757fe5b9060200101517f010000000000000000000000000000000000000000000000000000000000000090047f010000000000000000000000000000000000000000000000000000000000000002167effffffffffffffffffffffffffffffffffffffffffffffffffffffffffffff1916908060020a8204915050851794508080600101915050613ec8565b50839350505050949350505050565b601481565b60065481565b6000600143038311151515613fbe57600080fd5b818340604051602001808381526020018281526020019250505060405160208183030381529060405280519060200120905092915050565b60008073ffffffffffffffffffffffffffffffffffffffff16600260009054906101000a900473ffffffffffffffffffffffffffffffffffffffff1673ffffffffffffffffffffffffffffffffffffffff16141580156140a35750600260009054906101000a900473ffffffffffffffffffffffffffffffffffffffff1673ffffffffffffffffffffffffffffffffffffffff163373ffffffffffffffffffffffffffffffffffffffff16145b15156140ae57600080fd5b6014840143101580156140c75750600460148501014311155b15156140d257600080fd5b60408051908101604052808481526020018381525060106000868152602001908152602001600020600082015181600001556020820151816001019080519060200190614120929190614b83565b509050506008840140600c819055506000600160006101000a81548173ffffffffffffffffffffffffffffffffffffffff021916908373ffffffffffffffffffffffffffffffffffffffff160217905550600190509392505050565b601160039054906101000a900460ff1681565b6000602085511015156141a157600080fd5b835185511415156141b157600080fd5b600083905060008090505b86518110156142a357600087828151811015156141d557fe5b90602001906020020151905086828151811015156141ef57fe5b90602001906020020151156142345780836040516020018083815260200182815260200192505050604051602081830303815290604052805190602001209250614295565b868281518110151561424257fe5b9060200190602002015115156142885782816040516020018083815260200182815260200192505050604051602081830303815290604052805190602001209250614294565b600093505050506142ab565b5b5080806001019150506141bc565b508281149150505b949350505050565b600960009054906101000a900460ff1681565b60006060601060008481526020019081526020016000206000015460106000858152602001908152602001600020600101808054600181600116156101000203166002900480601f01602080910402602001604051908101604052809291908181526020018280546001816001161561010002031660029004801561438c5780601f106143615761010080835404028352916020019161438c565b820191906000526020600020905b81548152906001019060200180831161436f57829003601f168201915b5050505050905091509150915091565b60008060009054906101000a900473ffffffffffffffffffffffffffffffffffffffff1673ffffffffffffffffffffffffffffffffffffffff163373ffffffffffffffffffffffffffffffffffffffff161415156143f957600080fd5b81600360006101000a81548173ffffffffffffffffffffffffffffffffffffffff021916908373ffffffffffffffffffffffffffffffffffffffff16021790555060019050919050565b606080826040519080825280602002602001820160405280156144755781602001602082028038833980820191505090505b50905060008090505b838110156144eb5784600c54600183016040516020018084815260200183815260200182815260200193505050506040516020818303038152906040528051906020012082828151811015156144d057fe5b9060200190602002018181525050808060010191505061447e565b508091505092915050565b600560009054906101000a900473ffffffffffffffffffffffffffffffffffffffff1681565b600e5481565b6000600560009054906101000a900473ffffffffffffffffffffffffffffffffffffffff1673ffffffffffffffffffffffffffffffffffffffff1663c41a32ec336040518263ffffffff167c0100000000000000000000000000000000000000000000000000000000028152600401808273ffffffffffffffffffffffffffffffffffffffff1673ffffffffffffffffffffffffffffffffffffffff16815260200191505060206040518083038186803b1580156145df57600080fd5b505afa1580156145f3573d6000803e3d6000fd5b505050506040513d602081101561460957600080fd5b8101908080519060200190929190505050151561462557600080fd5b6000809054906101000a900473ffffffffffffffffffffffffffffffffffffffff1673ffffffffffffffffffffffffffffffffffffffff163373ffffffffffffffffffffffffffffffffffffffff161415151561468157600080fd5b60011515600960009054906101000a900460ff1615151415156146a357600080fd5b600654600f60003373ffffffffffffffffffffffffffffffffffffffff1673ffffffffffffffffffffffffffffffffffffffff1681526020019081526020016000206000015410151561475e576040517f08c379a000000000000000000000000000000000000000000000000000000000815260040180806020018281038252600c8152602001807f6368616c6c616e67653a2031000000000000000000000000000000000000000081525060200191505060405180910390fd5b600760065401431180156147775750600a600654014311155b15156147eb576040517f08c379a000000000000000000000000000000000000000000000000000000000815260040180806020018281038252600c8152602001807f6368616c6c616e67653a2032000000000000000000000000000000000000000081525060200191505060405180910390fd5b6103e86001600a54011115151561486a576040517f08c379a000000000000000000000000000000000000000000000000000000000815260040180806020018281038252600c8152602001807f6368616c6c616e67653a2033000000000000000000000000000000000000000081525060200191505060405180910390fd5b606060405190810160405280600654815260200183815260200160001515815250600f60003373ffffffffffffffffffffffffffffffffffffffff1673ffffffffffffffffffffffffffffffffffffffff168152602001908152602001600020600082015181600001556020820151816001015560408201518160020160006101000a81548160ff0219169083151502179055509050506001600a6000828254019250508190555060019050919050565b60085481565b600160009054906101000a900473ffffffffffffffffffffffffffffffffffffffff1681565b600081409050919050565b60008060009054906101000a900473ffffffffffffffffffffffffffffffffffffffff1673ffffffffffffffffffffffffffffffffffffffff163373ffffffffffffffffffffffffffffffffffffffff161415156149af57600080fd5b600073ffffffffffffffffffffffffffffffffffffffff168273ffffffffffffffffffffffffffffffffffffffff16141515156149eb57600080fd5b60001515600960009054906101000a900460ff161515141515614a0d57600080fd5b816000806101000a81548173ffffffffffffffffffffffffffffffffffffffff021916908373ffffffffffffffffffffffffffffffffffffffff16021790555060019050919050565b600f6020528060005260406000206000915090508060000154908060010154908060020160009054906101000a900460ff16905083565b6000600a827f0100000000000000000000000000000000000000000000000000000000000000900460ff161015614b0e576030827f01000000000000000000000000000000000000000000000000000000000000009004017f0100000000000000000000000000000000000000000000000000000000000000029050614b5a565b6057827f01000000000000000000000000000000000000000000000000000000000000009004017f01000000000000000000000000000000000000000000000000000000000000000290505b919050565b61040060405190810160405280602090602082028038833980820191505090505090565b828054600181600116156101000203166002900490600052602060002090601f016020900481019282601f10614bc457805160ff1916838001178555614bf2565b82800160010185558215614bf2579182015b82811115614bf1578251825591602001919060010190614bd6565b5b509050614bff9190614c03565b5090565b614c2591905b80821115614c21576000816000905550600101614c09565b5090565b9056fe77726f6e672073636f72652062617365206f6e2074686520676976656e207365637265742f626c6f636b4e6f7375626d6974426c6f636b7320616e642077696e6e696e675469636b657473206d69736d61746368a165627a7a723058209b819d6b95e03445f3d5671b299e294d8d1a2b40eea5f800141c4e63e9267b7f0029",
  "source": "pragma solidity ^0.5.2;\n\n// import \"./ERC20.sol\";\nimport \"./SafeMath.sol\";\nimport \"./RNTInterface.sol\";\nimport \"./ELEMInterface.sol\";\nimport \"./MemberShip.sol\";\n\n// About the game\n// # Roles\n//  * defender : setup the game (only the fee)\n//  * player : join the game, max 1000 players, pay 0.01 eth and may win some RNT\n//  * validator: provide merkle proof at `end` block\n//\n// # time line of a game:\n//    start ------------ n ------- m -------------------------------- end --------\n//          calc           reg to    lottery, each round: 0-n winners     mr submit to chain;\n//                         sc        (only on sc)                         withdraw eth/claim RNT in several blks\n//          (period1)      (period2) (period3)                            could start next round\n//\n//  * sc: state channel; mr: merkle root\n//  * period_all = period1 + period2 + period3\n//  * during period2 (btw. `n` and `m`) players get tickets on sc\n//  * player obtain ticket in the form `ticket[i] = hash(score + bn[m-1] + i)` where 0<=i<5, depend on score\n// todo: add an upper limit for the contract to give to players? Such as (the order of) 1000*0.01 eth = 10 eth = 1e5 RNT\n\ncontract Erebor{\n\tusing SafeMath for uint256;\n\t// Variables\n\taddress public defender;\n\taddress public winner;\n\taddress public validator;\n\taddress public RNTAddr;\n\taddress public ELEMAddr;\n\taddress public memberContractAddr;\n\tuint constant public maxPlayer = 1000;\n\tuint constant public period_all = 20;  // 7 + 3 + 10\n\tuint public initHeight;\n\tbytes32 public difficulty = 0x0000000fffffffffffffffffffffffffffffffffffffffffffffffffffffffff;\n\tuint public fee = 10000000000000000;\n\tbool public setup = false;\n\tuint public playercount = 0;\n        uint public ticketsToWinNFT = 2;  // use small number for debug only\n\n\tstruct playerInfo {\n\t\t// uint since;     // block height when joined\n\t\tuint initHeightJoined;\n\t\tbytes32 scoreHash;\n\t\tbool claimed;\n\t}\n\n        struct battleStat{\n            bytes32 merkleRoot;\n            string ipfsAddr;\n        }\n\n        bytes32 public ticketSeed;  // blockhash(initHeight+8) of each game\n        bytes32 public board;\n        bytes32 public prevboard;\n\n\tmapping (address => playerInfo) public playerDB;\n\tmapping (uint => battleStat) public battleHistory;\n\n\t// Modifiers\n\tmodifier defenderOnly() {\n\t\trequire(msg.sender == defender);\n\t\t_;\n\t}\n\n\tmodifier WinnerOnly() {\n\t\trequire(winner != address(0) && msg.sender == winner);\n\t\t_;\n\t}\n\n\tmodifier ValidatorOnly() {\n\t        require(validator != address(0) && msg.sender == validator);\n\t        _;\n        }\n\n\tmodifier NewGameOnly() {\n\t\trequire(setup == false);\n\t\t_;\n\t}\n\n\tmodifier feePaid() {\n\t\trequire(msg.value >= fee);\n\t\t_;\n\t}\n\n\tmodifier isActiveMember(){\n                require(MemberShip(memberContractAddr).addrIsActiveMember(msg.sender));\n                _;\n        }\n\n\t// modifier isActiveMemberOrpaid(){\n                // require(MemberShip(memberContractAddr).addrIsActiveMember(msg.sender));\n                // _;\n        // }\n\n\tmodifier gameStarted() {\n\t\trequire(setup == true);\n\t\t_;\n\t}\n\n\tmodifier gameStalled() {\n\t\t// require(setup == true && block.number > initHeight + period_all && winner == address(0));\n\t\trequire(setup == true && block.number > initHeight + 10 && winner == address(0));  // for debug\n\t\t_;\n\t}\n\n\tmodifier notDefender() {\n\t\trequire(msg.sender != defender);\n\t\t_;\n\t}\n\n\t// Contract constructor\n\tconstructor(bytes32 _init, address _RNTAddr, address _ELEMAddr, address _memberContracAddr) public payable {\n\t\trequire(msg.value >= fee);\n\t\tdefender = msg.sender;\n\t\tvalidator = msg.sender;\n\t\tRNTAddr  = _RNTAddr;\n                ELEMAddr = _ELEMAddr;\n                memberContractAddr = _memberContracAddr;\n\n\t\trequire(fortify(_init) == true);\n\t}\n\n\t// WinnerOnly\n\t// function withdraw(uint _tokenId) internal WinnerOnly returns (bool) {\n\t//         // only one player win NFT; make sure winner can claim the reward after next game started\n\t// \trequire(block.number > playerDB[msg.sender].initHeightJoined + period_all);\n\t// \trequire(block.number < playerDB[msg.sender].initHeightJoined + period_all + 7);\n\n\t// \t// uint256 reward = uint256(address(this).balance).mul(uint256(6)) / uint256(10);\n\t// \t// require(RNTInterface(RNTAddr).mint(msg.sender) == true);\n\t// \t// require(msg.sender.send(reward) == true);\n                // winner = msg.sender;\n                // // NFTClaimed = true;\n                // require(iELEM(ELEMAddr).mint(msg.sender, _tokenId, uri) == true);\n\t// \treturn true;\n\t// }\n\n        // for debug purpose\n\tbool public debug1 = false;\n\tbool public debug2 = true;\n\tbool public debug3 = true;\n\tbool public debug4 = true;\n\tbool public debug5 = true;\n\tbool public debug6 = true;\n\tfunction debugParams(bool _debug1, bool _debug2, bool _debug3, bool _debug4, bool _debug5, bool _debug6) public{\n                debug1 = _debug1;\n                debug2 = _debug2;\n                debug3 = _debug3;\n                debug4 = _debug4;\n                debug5 = _debug5;\n                debug6 = _debug6;\n        }\n\n\tfunction claimLotteReward( // this happens after end of a game, next round may started\n\t    bytes32 secret,\n\t    string memory slots,\n\t    uint blockNo,\n\t    uint[] memory submitBlocks,  // the winning blocks the player claimed\n\t    uint[] memory winningTickets, // the idx of generateTickets. same order as submitBlocks.\n\t    bytes32[] memory proof,\n\t    bool[] memory isLeft,\n\t    bytes32 score\n\t) public returns (bool) {\n\t\t// require(playerDB[msg.sender].claimed == false, \"already claimed\");  // for debug\n\t\trequire(winningTickets.length <= 10, \"you cannot claim more tickets\");\n\t        require(proof.length == isLeft.length, \"len of proof/isLeft mismatch\");\n\t        require(winningTickets.length == submitBlocks.length, \"submitBlocks and winningTickets mismatch\");\n                require(battleHistory[playerDB[msg.sender].initHeightJoined].merkleRoot != bytes32(0), \"no merkle root yet\");\n\t\tif (debug1){  // set debug1 to flase to have more time to debug\n                        require(block.number > playerDB[msg.sender].initHeightJoined + period_all + 1, \"too early\");\n                        require(block.number < playerDB[msg.sender].initHeightJoined + period_all + 7, \"too late\");\n                }\n\n                bytes32 _board;\n                if (playerDB[msg.sender].initHeightJoined == initHeight) {\n                        _board = board;\n                } else if (initHeight - playerDB[msg.sender].initHeightJoined > period_all) {\n                        _board = prevboard;\n                } else {  // should not happen\n                        revert();\n                }\n\n                // No second chance: if one of the following verification failed, the player cannot call this function again.\n                playerDB[msg.sender].claimed = false;  // set to false for debug only\n\n                // verify score\n                require(compareScore(secret, slots, blockNo, _board, score));\n                require(keccak256(abi.encodePacked(score)) == playerDB[msg.sender].scoreHash,\n                        \"wrong score base on the given secret/blockNo\");\n\n\t\tbytes32[] memory genTickets = new bytes32[](getNumOfTickets(score));\n\t\tgenTickets = generateTickets(score, getNumOfTickets(score));\n\n                // generate \"claimHash\", which is hash(msg.sender, submitBlocks[i], winningTickets[i], ...) where i=0,1,2,...\n\t\t// bytes32[5] memory genTickets = generateTickets(score);\n\t\tbytes32 claimHash;\n                claimHash = getClaimHash(submitBlocks, winningTickets, genTickets);\n\n                require(merkleTreeValidator(proof, isLeft, claimHash,\n                                            battleHistory[playerDB[msg.sender].initHeightJoined].merkleRoot),\n                        \"merkle proof failed\");\n\n                // count number of winning tickets and mint RNT\n                if (debug2) {\n                    require(verifyWinnumber(_board, submitBlocks, winningTickets, genTickets) == true, \"found a wrong ticket\");\n                }\n\n                // determine the only winner who win a Elemire\n                // TODO: better ways to determine the only winner of NFT\n                if (debug3) {\n                    if (winningTickets.length >= ticketsToWinNFT) {  // use small number for debug only\n                            string memory uri = bytes32ToString(claimHash);\n                            iELEM(ELEMAddr).mint(msg.sender, uint(claimHash), uri);\n                    }\n                }\n\n\t\treturn true;\n        }\n\n\tfunction getClaimHash(uint[] memory submitBlocks, uint[] memory winningTickets, bytes32[] memory genTickets) public view returns(bytes32 claimHash){\n                bytes memory packed = abi.encodePacked(uint256(msg.sender));\n                for (uint i=0; i<winningTickets.length; i++){\n                        packed = abi.encodePacked(packed, submitBlocks[i], genTickets[winningTickets[i]]);\n                }\n                claimHash = keccak256(packed);\n        }\n\n        function verifyWinnumber(bytes32 _board, uint[] memory submitBlocks, uint[] memory winningTickets, bytes32[] memory genTickets) public returns(bool){\n                bytes32 winNumber;\n                uint prevBlock;\n                uint prevWinningTicket;\n                for (uint i=0; i<submitBlocks.length; i++){\n                            require(submitBlocks[i] >= prevBlock);\n                            if (submitBlocks[i] == prevBlock){\n                                    require(winningTickets[i] > prevWinningTicket);\n                            }\n                            winNumber = keccak256(abi.encodePacked(_board, blockhash(submitBlocks[i])));\n                            if (uint8(winNumber[31])%16 != uint8(genTickets[winningTickets[i]][31])%16 ){\n                                    return false;\n                            }\n                            // require(winNumber[31] == genTickets[winningTickets[i]][31]);  // last 1 byte = 2 digits of hex\n                            // require(winNumber[31] == genTickets[winningTickets[i]][31] &&\n                            //         uint(winNumber[30])%16 == uint(genTickets[winningTickets[i]][30])%16 );  // last 3 digits of hex\n                            // require(winNumber[31] == genTickets[winningTickets[i]][31] &&\n                            //         winNumber[30] == genTickets[winningTickets[i]][30]);  // last 4 digits of hex\n\n                            require(RNTInterface(RNTAddr).mint(msg.sender) == true);\n                            prevBlock = submitBlocks[i];\n                            prevWinningTicket = winningTickets[i];\n                }\n                return true;\n        }\n\n        function generateTickets(bytes32 score, uint numTickets) public view returns (bytes32[] memory){\n                // require(score != bytes32(0));\n                bytes32[] memory tickets = new bytes32[](numTickets);\n\t\tfor (uint i = 0; i < numTickets; i++) {\n\t\t        tickets[i] = keccak256(abi.encodePacked(score, ticketSeed, i+1));  // idx of ticket start from 1\n                }\n                return tickets;\n        }\n\n        function getNumOfTickets(bytes32 score) public pure returns(uint){\n                if (score > 0x00ffffffffffffffffffffffffffffffffffffffffffffffffffffffffffffff) {\n                        return 1;  // min: 1 ticket\n                } else if (score > 0x000fffffffffffffffffffffffffffffffffffffffffffffffffffffffffffff) {\n                        return 2;\n                } else if (score > 0x0000ffffffffffffffffffffffffffffffffffffffffffffffffffffffffffff) {\n                        return 3;\n                } else if (score > 0x00000fffffffffffffffffffffffffffffffffffffffffffffffffffffffffff) {\n                        return 4;\n                } else {\n                        return 5;  // max: 5 tickets\n                }\n        }\n\n\n\t// function randomNumber() public view returns (bytes32) {\n\t// \trequire(lastRevived != samGroup[3] && samGroup[3] != bytes32(0));\n\t// \trequire(block.number - lastActivity <= 5);\n\t// \treturn keccak256(abi.encodePacked(samGroup[0], samGroup[1], samGroup[2], samGroup[3], blockhash(block.number - 1)));\n\t// }\n\n\tfunction getPlayerInfo(address _addr) public view returns (uint, bytes32, bool) {\n\t\treturn (playerDB[_addr].initHeightJoined, playerDB[_addr].scoreHash, playerDB[_addr].claimed);\n\t}\n\n\tfunction fortify(bytes32 defense) public payable defenderOnly NewGameOnly returns (bool) {\n\t\trequire(defense > difficulty);\n\n\t\tinitHeight = block.number;\n\n                playerDB[msg.sender] = playerInfo(initHeight, bytes32(0), false);\n\t\tplayercount += 1;\n\t\tsetup = true;\n\n\t        prevboard = board;\n\t        board = defense;\n\n\t\treturn true;\n\t}\n\n\t// Join game\n\tfunction challenge(bytes32 scoreHash) public payable isActiveMember notDefender gameStarted returns (bool) {\n\t\trequire(playerDB[msg.sender].initHeightJoined < initHeight, \"challange: 1\");\n\t\trequire(block.number > initHeight + 7 && block.number <= initHeight + 10, \"challange: 2\");\n\t\trequire(playercount + 1 <= maxPlayer, \"challange: 3\");\n\n\t\tplayerDB[msg.sender] = playerInfo(initHeight, scoreHash, false);\n\n\t\tplayercount += 1;\n\n\t\treturn true;\n\t}\n\n\tfunction testOutcome(bytes32 secret, uint blockNo) public gameStarted view returns (bytes32 _board, bool[32] memory _slots) {\n\t\trequire(block.number > initHeight + 7 && block.number <= initHeight + 10, 'testoutcome: 1');\n\t\trequire(block.number - blockNo < 7, 'testoutcome: 2');\n\t\trequire(blockNo <= block.number - 1 && blockNo >= initHeight + 7 && blockNo < initHeight + 10, 'testoutcome: 3');\n\n\t\t_board = keccak256(abi.encodePacked(msg.sender, secret, blockhash(blockNo)));\n\n\t\tfor (uint i = 0; i <= 31; i++) {\n\t\t\tif(_board[i] < board[i]) {\n\t\t\t\t_slots[i] = true;\n\t\t\t}\n\t\t}\n\n\t\treturn (_board, _slots);\n\t}\n\n\tfunction winningNumber(uint blockNo, bytes32 _board) public view returns (bytes32) {\n\t        require(blockNo <= block.number - 1);\n\t        return keccak256(abi.encodePacked(_board, blockhash(blockNo)));\n        }\n\n        function merkleTreeValidator(bytes32[] memory proof, bool[] memory isLeft, bytes32 targetLeaf, bytes32 _merkleRoot) public pure returns (bool) {\n                require(proof.length < 32);  // 2**32 ~ 4.3e9 leaves!\n                require(proof.length == isLeft.length);\n\n                bytes32 targetHash = targetLeaf;\n                for (uint256 i = 0; i < proof.length; i++) {\n                        bytes32 proofEle = proof[i];\n                        if (isLeft[i]) {\n                                targetHash = keccak256(abi.encodePacked(proofEle, targetHash));\n                        } else if (!isLeft[i]) {\n                                targetHash = keccak256(abi.encodePacked(targetHash, proofEle));\n                        } else {\n                                return false;\n                        }\n                }\n                return targetHash == _merkleRoot;\n        }\n\n\tfunction submitMerkleRoot(uint _initHeight, bytes32 _merkleRoot, string memory _ipfsAddr) public ValidatorOnly returns (bool) {\n\t\trequire(block.number >= _initHeight + period_all && block.number <= _initHeight + period_all + 4);\n\t        battleHistory[_initHeight]= battleStat(_merkleRoot, _ipfsAddr);\n\t        ticketSeed = blockhash(_initHeight+8);\n\n                // reset the status of previous game (or put it in challange?)\n\t        // NFTClaimed = false;   // reset the status of previous game\n\t        winner = address(0);\n\t        return true;\n        }\n\n        function getBlockInfo(uint _initHeight) public view returns(bytes32, string memory){\n\t        return (battleHistory[_initHeight].merkleRoot, battleHistory[_initHeight].ipfsAddr);\n        }\n\n        function getBlockhash(uint blockNo) external view returns (bytes32) {\n                return blockhash(blockNo);\n        }\n\n        function compareScore(bytes32 secret, string memory slotString, uint blockNo, bytes32 _board, bytes32 score) public view returns (bool){\n\t        // verification: the secret belongs to the player\n\t\tbytes32 myboard = keccak256(abi.encodePacked(msg.sender, secret, blockhash(blockNo))); // initialize for the loop below\n                bytes memory slots = bytes(slotString);\n                bytes32 out;\n                for (uint i = 0; i < 32; i++) {\n\t\t        if(slots[i] == 0x30) {  // see decimal ascii chart, '0' = 48 (decimal) = 0x30 (hex)\n\t\t                out |= bytes32(_board[i] & 0xff ) >> (i*8);\n                        } else if (slots[i] == 0x31) {\n\t\t                out |= bytes32(myboard[i] & 0xff ) >> (i*8);\n\t\t\t}\n                }\n\n\t\treturn out == score;\n\t}\n\n        function computeScore(bytes32 secret, string memory slotString, uint blockNo, bytes32 _board) public view returns (bytes32 out){\n\t\tbytes32 myboard = keccak256(abi.encodePacked(msg.sender, secret, blockhash(blockNo))); // initialize for the loop below\n                bytes memory slots = bytes(slotString);\n                bytes memory outscore = new bytes(32);\n                for (uint i = 0; i < 32; i++) {\n\t\t        if(slots[i] == 0x30) {  // see decimal ascii chart, '0' = 48 (decimal) = 0x30 (hex)\n\t\t                outscore[i] = _board[i];\n                        } else if (slots[i] == 0x31) {\n                                outscore[i] = myboard[i];\n\t\t\t}\n                }\n\n                // bytes to bytes32\n                for (uint i=0; i<32; i++){\n                        out |= bytes32( outscore[i] & 0xff ) >> (i * 8);\n                }\n\t\treturn out;\n\t}\n\n        function hexToChar(byte _b) internal pure returns (byte c) {\n                // convert a hex value (0-f) to it's corresponding string\n                if (uint8(_b) < 10) {\n                        return byte(uint8(_b) + 0x30);  // '0' to '9'\n                } else {\n                        return byte(uint8(_b) + 0x57);  // 'a' to 'z'\n                }\n        }\n\n        // convert bytes32 to hex \"string\"\n        function bytes32ToString(bytes32 b32) public pure returns (string memory out) {\n                bytes memory s = new bytes(64);\n                for (uint8 i = 0; i < 32; i++) {\n                        byte _b = byte(b32[i]);\n                        byte hi = byte(uint8(_b) / 16);\n                        byte lo = byte(uint8(_b) - 16 * uint8(hi));\n                        s[i*2] = hexToChar(hi);\n                        s[i*2+1] = hexToChar(lo);\n                }\n                out = string(s);\n        }\n\n        // upgrade and ownership\n        function newValidator(address _newValidator) public defenderOnly returns (bool){\n                require(_newValidator != address(0));\n                validator = _newValidator;\n                return true;\n        }\n\n        function newDefender(address _newDefender) public defenderOnly returns (bool){\n                require(_newDefender != address(0));\n                require(setup == false);\n\t\tdefender = _newDefender;\n                return true;\n        }\n\n        function newRNTAddr(address _newAddr) public defenderOnly returns (bool){\n                RNTAddr = _newAddr;\n                return true;\n        }\n\n        function newELEMAddr(address _newAddr) public defenderOnly returns (bool){\n                ELEMAddr = _newAddr;\n                return true;\n        }\n\n        function newMemberAddr(address _addr) public defenderOnly returns (bool){\n                memberContractAddr = _addr;\n                return true;\n        }\n\n        function renewTicketsToWinNFT(uint _n) public defenderOnly returns (bool){\n                require(_n > 1 && _n < 10);\n                ticketsToWinNFT = _n;\n                return true;\n        }\n\n        // fallback\n        function () defenderOnly gameStalled external {\n            winner = address(0);\n            setup = false;\n            // board = bytes32(0);\n            playercount = 0;\n            // require(withdraw());\n\t    // require(msg.sender.send(address(this).balance) == true);  // for debug\n        }\n}\n",
  "sourcePath": "/home/kai/Work/project/ETHDenver_2019_Erebor/contracts/Erebor.sol",
  "compiler": {
    "name": "solc",
    "version": "0.5.2+commit.1df8f40c.Linux.g++"
  },
  "schemaVersion": "3.0.1",
  "updatedAt": "2019-02-16T22:18:17.995Z",
  "devdoc": {
    "methods": {}
  },
  "userdoc": {
    "methods": {}
  }
}