{
  "contractName": "MemberShip",
  "abi": [
    {
      "constant": true,
      "inputs": [
        {
          "name": "",
          "type": "uint256"
        }
      ],
      "name": "coreManager",
      "outputs": [
        {
          "name": "",
          "type": "address"
        }
      ],
      "payable": false,
      "stateMutability": "view",
      "type": "function",
      "signature": "0x0d0d80ad"
    },
    {
      "constant": true,
      "inputs": [],
      "name": "canTradeToken",
      "outputs": [
        {
          "name": "",
          "type": "bool"
        }
      ],
      "payable": false,
      "stateMutability": "view",
      "type": "function",
      "signature": "0x351f9501"
    },
    {
      "constant": true,
      "inputs": [],
      "name": "paused",
      "outputs": [
        {
          "name": "",
          "type": "bool"
        }
      ],
      "payable": false,
      "stateMutability": "view",
      "type": "function",
      "signature": "0x5c975abb"
    },
    {
      "constant": true,
      "inputs": [],
      "name": "ELEMAddr",
      "outputs": [
        {
          "name": "",
          "type": "address"
        }
      ],
      "payable": false,
      "stateMutability": "view",
      "type": "function",
      "signature": "0x885869dc"
    },
    {
      "constant": true,
      "inputs": [],
      "name": "owner",
      "outputs": [
        {
          "name": "",
          "type": "address"
        }
      ],
      "payable": false,
      "stateMutability": "view",
      "type": "function",
      "signature": "0x8da5cb5b"
    },
    {
      "constant": true,
      "inputs": [],
      "name": "memberPeriod",
      "outputs": [
        {
          "name": "",
          "type": "uint256"
        }
      ],
      "payable": false,
      "stateMutability": "view",
      "type": "function",
      "signature": "0xaba35b72"
    },
    {
      "constant": true,
      "inputs": [],
      "name": "fee",
      "outputs": [
        {
          "name": "",
          "type": "uint256"
        }
      ],
      "payable": false,
      "stateMutability": "view",
      "type": "function",
      "signature": "0xddca3f43"
    },
    {
      "constant": true,
      "inputs": [
        {
          "name": "",
          "type": "address"
        }
      ],
      "name": "appWhitelist",
      "outputs": [
        {
          "name": "",
          "type": "bool"
        }
      ],
      "payable": false,
      "stateMutability": "view",
      "type": "function",
      "signature": "0xfe2b5de1"
    },
    {
      "inputs": [
        {
          "name": "_ELEMAddr",
          "type": "address"
        }
      ],
      "payable": false,
      "stateMutability": "nonpayable",
      "type": "constructor",
      "signature": "constructor"
    },
    {
      "constant": false,
      "inputs": [],
      "name": "allocateCoreManagers",
      "outputs": [],
      "payable": false,
      "stateMutability": "nonpayable",
      "type": "function",
      "signature": "0x45c05615"
    },
    {
      "constant": false,
      "inputs": [
        {
          "name": "_tokenId",
          "type": "uint256"
        }
      ],
      "name": "putNFTForSale",
      "outputs": [],
      "payable": false,
      "stateMutability": "nonpayable",
      "type": "function",
      "signature": "0x557d21fc"
    },
    {
      "constant": false,
      "inputs": [],
      "name": "tradeTokenToggle",
      "outputs": [
        {
          "name": "",
          "type": "bool"
        }
      ],
      "payable": false,
      "stateMutability": "nonpayable",
      "type": "function",
      "signature": "0x91e842af"
    },
    {
      "constant": false,
      "inputs": [],
      "name": "buyToken",
      "outputs": [
        {
          "name": "",
          "type": "bool"
        }
      ],
      "payable": true,
      "stateMutability": "payable",
      "type": "function",
      "signature": "0xa4821719"
    },
    {
      "constant": false,
      "inputs": [
        {
          "name": "_tokenToTransfer",
          "type": "uint256"
        },
        {
          "name": "_tokenId",
          "type": "uint256"
        },
        {
          "name": "_receiver",
          "type": "address"
        }
      ],
      "name": "transferToken",
      "outputs": [
        {
          "name": "",
          "type": "bool"
        }
      ],
      "payable": false,
      "stateMutability": "nonpayable",
      "type": "function",
      "signature": "0x6823e680"
    },
    {
      "constant": false,
      "inputs": [
        {
          "name": "_tokenId",
          "type": "uint256"
        }
      ],
      "name": "bindMembership",
      "outputs": [
        {
          "name": "",
          "type": "bool"
        }
      ],
      "payable": false,
      "stateMutability": "nonpayable",
      "type": "function",
      "signature": "0x9b8bb779"
    },
    {
      "constant": false,
      "inputs": [
        {
          "name": "_tokenId",
          "type": "uint256"
        }
      ],
      "name": "unbindMembership",
      "outputs": [
        {
          "name": "",
          "type": "bool"
        }
      ],
      "payable": false,
      "stateMutability": "nonpayable",
      "type": "function",
      "signature": "0x329ae6f2"
    },
    {
      "constant": false,
      "inputs": [
        {
          "name": "_tokenId",
          "type": "uint256"
        }
      ],
      "name": "renewMembership",
      "outputs": [
        {
          "name": "",
          "type": "uint256"
        }
      ],
      "payable": true,
      "stateMutability": "payable",
      "type": "function",
      "signature": "0x7c9669ac"
    },
    {
      "constant": false,
      "inputs": [
        {
          "name": "_tokenId",
          "type": "uint256"
        },
        {
          "name": "_kycid",
          "type": "bytes32"
        }
      ],
      "name": "assginKYCid",
      "outputs": [
        {
          "name": "",
          "type": "bool"
        }
      ],
      "payable": false,
      "stateMutability": "nonpayable",
      "type": "function",
      "signature": "0xc9a69336"
    },
    {
      "constant": false,
      "inputs": [
        {
          "name": "_addr",
          "type": "address"
        }
      ],
      "name": "addWhitelistApps",
      "outputs": [
        {
          "name": "",
          "type": "bool"
        }
      ],
      "payable": false,
      "stateMutability": "nonpayable",
      "type": "function",
      "signature": "0x0d2da680"
    },
    {
      "constant": false,
      "inputs": [
        {
          "name": "_addr",
          "type": "address"
        }
      ],
      "name": "rmWhitelistApps",
      "outputs": [
        {
          "name": "",
          "type": "bool"
        }
      ],
      "payable": false,
      "stateMutability": "nonpayable",
      "type": "function",
      "signature": "0xa7f70e73"
    },
    {
      "constant": false,
      "inputs": [
        {
          "name": "_tokenId",
          "type": "uint256"
        },
        {
          "name": "_penalty",
          "type": "uint256"
        }
      ],
      "name": "addPenalty",
      "outputs": [
        {
          "name": "",
          "type": "uint256"
        }
      ],
      "payable": false,
      "stateMutability": "nonpayable",
      "type": "function",
      "signature": "0xc6906749"
    },
    {
      "constant": true,
      "inputs": [
        {
          "name": "_tokenId",
          "type": "uint256"
        }
      ],
      "name": "readNotes",
      "outputs": [
        {
          "name": "",
          "type": "string"
        }
      ],
      "payable": false,
      "stateMutability": "view",
      "type": "function",
      "signature": "0xc449b262"
    },
    {
      "constant": false,
      "inputs": [
        {
          "name": "_tokenId",
          "type": "uint256"
        },
        {
          "name": "_notes",
          "type": "string"
        }
      ],
      "name": "addNotes",
      "outputs": [],
      "payable": false,
      "stateMutability": "nonpayable",
      "type": "function",
      "signature": "0xd9ed28b7"
    },
    {
      "constant": true,
      "inputs": [
        {
          "name": "_addr",
          "type": "address"
        }
      ],
      "name": "addrIsMember",
      "outputs": [
        {
          "name": "",
          "type": "bool"
        }
      ],
      "payable": false,
      "stateMutability": "view",
      "type": "function",
      "signature": "0x7a7d32e5"
    },
    {
      "constant": true,
      "inputs": [
        {
          "name": "_addr",
          "type": "address"
        }
      ],
      "name": "addrIsActiveMember",
      "outputs": [
        {
          "name": "",
          "type": "bool"
        }
      ],
      "payable": false,
      "stateMutability": "view",
      "type": "function",
      "signature": "0xc41a32ec"
    },
    {
      "constant": true,
      "inputs": [
        {
          "name": "_tokenId",
          "type": "uint256"
        }
      ],
      "name": "tokenIsMember",
      "outputs": [
        {
          "name": "",
          "type": "bool"
        }
      ],
      "payable": false,
      "stateMutability": "view",
      "type": "function",
      "signature": "0xbeb04204"
    },
    {
      "constant": true,
      "inputs": [
        {
          "name": "_tokenId",
          "type": "uint256"
        }
      ],
      "name": "tokenIsActiveMember",
      "outputs": [
        {
          "name": "",
          "type": "bool"
        }
      ],
      "payable": false,
      "stateMutability": "view",
      "type": "function",
      "signature": "0x2f8c4a59"
    },
    {
      "constant": true,
      "inputs": [
        {
          "name": "_addr",
          "type": "address"
        }
      ],
      "name": "addrToTokenId",
      "outputs": [
        {
          "name": "",
          "type": "uint256"
        }
      ],
      "payable": false,
      "stateMutability": "view",
      "type": "function",
      "signature": "0x43ddfd57"
    },
    {
      "constant": true,
      "inputs": [
        {
          "name": "_addr",
          "type": "address"
        }
      ],
      "name": "getMemberInfo",
      "outputs": [
        {
          "name": "",
          "type": "uint256"
        },
        {
          "name": "",
          "type": "bytes32"
        },
        {
          "name": "",
          "type": "uint256"
        },
        {
          "name": "",
          "type": "uint256"
        }
      ],
      "payable": false,
      "stateMutability": "view",
      "type": "function",
      "signature": "0x5f1231ea"
    },
    {
      "constant": false,
      "inputs": [],
      "name": "pause",
      "outputs": [],
      "payable": false,
      "stateMutability": "nonpayable",
      "type": "function",
      "signature": "0x8456cb59"
    },
    {
      "constant": false,
      "inputs": [],
      "name": "unpause",
      "outputs": [],
      "payable": false,
      "stateMutability": "nonpayable",
      "type": "function",
      "signature": "0x3f4ba83a"
    },
    {
      "constant": false,
      "inputs": [
        {
          "name": "_addr",
          "type": "address"
        }
      ],
      "name": "updateELEMAddr",
      "outputs": [],
      "payable": false,
      "stateMutability": "nonpayable",
      "type": "function",
      "signature": "0xffdcc980"
    }
  ],
  "bytecode": "0x6080604052662386f26fc10000600555619c406006556000600760006101000a81548160ff0219169083151502179055506001600760016101000a81548160ff0219169083151502179055503480156200005857600080fd5b5060405160208062004419833981018060405260208110156200007a57600080fd5b8101908080519060200190929190505050336000806101000a81548173ffffffffffffffffffffffffffffffffffffffff021916908373ffffffffffffffffffffffffffffffffffffffff16021790555060606040519081016040528073b440ea2780614b3c6a00e512f432785e7dfafa3e73ffffffffffffffffffffffffffffffffffffffff1673ffffffffffffffffffffffffffffffffffffffff168152602001734ad56641c569c91c64c28a904cda50ae5326da4173ffffffffffffffffffffffffffffffffffffffff1673ffffffffffffffffffffffffffffffffffffffff16815260200173af7400787c54422be8b44154b1273661f1259ccd73ffffffffffffffffffffffffffffffffffffffff1673ffffffffffffffffffffffffffffffffffffffff168152506001906003620001b99291906200060e565b5080600460006101000a81548173ffffffffffffffffffffffffffffffffffffffff021916908373ffffffffffffffffffffffffffffffffffffffff160217905550620002146200021b640100000000026401000000009004565b50620007a8565b6000809054906101000a900473ffffffffffffffffffffffffffffffffffffffff1673ffffffffffffffffffffffffffffffffffffffff163373ffffffffffffffffffffffffffffffffffffffff161415156200027757600080fd5b6200028162000690565b6060604051908101604052807f111111111111111111111111111111111111111111111111111111111111111181526020017f222222222222222222222222222222222222222222222222222222222222222281526020017f3333333333333333333333333333333333333333333333333333333333333333815250905060008090505b60038110156200060a576000600460009054906101000a900473ffffffffffffffffffffffffffffffffffffffff1673ffffffffffffffffffffffffffffffffffffffff166370a082316001846003811015156200035f57fe5b0160009054906101000a900473ffffffffffffffffffffffffffffffffffffffff166040518263ffffffff167c0100000000000000000000000000000000000000000000000000000000028152600401808273ffffffffffffffffffffffffffffffffffffffff1673ffffffffffffffffffffffffffffffffffffffff16815260200191505060206040518083038186803b158015620003fe57600080fd5b505afa15801562000413573d6000803e3d6000fd5b505050506040513d60208110156200042a57600080fd5b81019080805190602001909291905050501415620005fc5760a0604051908101604052806001836003811015156200045e57fe5b0160009054906101000a900473ffffffffffffffffffffffffffffffffffffffff1673ffffffffffffffffffffffffffffffffffffffff16815260200143815260200160008152602001600060010281526020016020604051908101604052806000815250815250600860008484600381101515620004d957fe5b6020020151815260200190815260200160002060008201518160000160006101000a81548173ffffffffffffffffffffffffffffffffffffffff021916908373ffffffffffffffffffffffffffffffffffffffff16021790555060208201518160010155604082015181600201556060820151816003015560808201518160040190805190602001906200056f929190620006b3565b5090505081816003811015156200058257fe5b6020020151600960006001846003811015156200059b57fe5b0160009054906101000a900473ffffffffffffffffffffffffffffffffffffffff1673ffffffffffffffffffffffffffffffffffffffff1673ffffffffffffffffffffffffffffffffffffffff168152602001908152602001600020819055505b808060010191505062000305565b5050565b82600381019282156200067d579160200282015b828111156200067c5782518260006101000a81548173ffffffffffffffffffffffffffffffffffffffff021916908373ffffffffffffffffffffffffffffffffffffffff1602179055509160200191906001019062000622565b5b5090506200068c91906200073a565b5090565b606060405190810160405280600390602082028038833980820191505090505090565b828054600181600116156101000203166002900490600052602060002090601f016020900481019282601f10620006f657805160ff191683800117855562000727565b8280016001018555821562000727579182015b828111156200072657825182559160200191906001019062000709565b5b50905062000736919062000780565b5090565b6200077d91905b808211156200077957600081816101000a81549073ffffffffffffffffffffffffffffffffffffffff02191690555060010162000741565b5090565b90565b620007a591905b80821115620007a157600081600090555060010162000787565b5090565b90565b613c6180620007b86000396000f3fe6080604052600436106101f5576000357c010000000000000000000000000000000000000000000000000000000090048063885869dc1161011f578063c41a32ec116100b2578063d9ed28b711610081578063d9ed28b714610a75578063ddca3f4314610b05578063fe2b5de114610b30578063ffdcc98014610b99576101f5565b8063c41a32ec146108a2578063c449b2621461090b578063c6906749146109bf578063c9a6933614610a18576101f5565b8063a4821719116100ee578063a482171914610799578063a7f70e73146107bb578063aba35b7214610824578063beb042041461084f576101f5565b8063885869dc146106695780638da5cb5b146106c057806391e842af146107175780639b8bb77914610746576101f5565b806345c05615116101975780636823e680116101665780636823e6801461052a5780637a7d32e5146105a75780637c9669ac146106105780638456cb5914610652576101f5565b806345c056151461042f578063557d21fc146104465780635c975abb146104815780635f1231ea146104b0576101f5565b8063329ae6f2116101d3578063329ae6f214610331578063351f9501146103845780633f4ba83a146103b357806343ddfd57146103ca576101f5565b80630d0d80ad146101fa5780630d2da680146102755780632f8c4a59146102de575b600080fd5b34801561020657600080fd5b506102336004803603602081101561021d57600080fd5b8101908080359060200190929190505050610bea565b604051808273ffffffffffffffffffffffffffffffffffffffff1673ffffffffffffffffffffffffffffffffffffffff16815260200191505060405180910390f35b34801561028157600080fd5b506102c46004803603602081101561029857600080fd5b81019080803573ffffffffffffffffffffffffffffffffffffffff169060200190929190505050610c1f565b604051808215151515815260200191505060405180910390f35b3480156102ea57600080fd5b506103176004803603602081101561030157600080fd5b8101908080359060200190929190505050610dba565b604051808215151515815260200191505060405180910390f35b34801561033d57600080fd5b5061036a6004803603602081101561035457600080fd5b8101908080359060200190929190505050610f84565b604051808215151515815260200191505060405180910390f35b34801561039057600080fd5b506103996112f2565b604051808215151515815260200191505060405180910390f35b3480156103bf57600080fd5b506103c8611305565b005b3480156103d657600080fd5b50610419600480360360208110156103ed57600080fd5b81019080803573ffffffffffffffffffffffffffffffffffffffff169060200190929190505050611398565b6040518082815260200191505060405180910390f35b34801561043b57600080fd5b506104446113e1565b005b34801561045257600080fd5b5061047f6004803603602081101561046957600080fd5b81019080803590602001909291905050506117c4565b005b34801561048d57600080fd5b50610496611b52565b604051808215151515815260200191505060405180910390f35b3480156104bc57600080fd5b506104ff600480360360208110156104d357600080fd5b81019080803573ffffffffffffffffffffffffffffffffffffffff169060200190929190505050611b65565b6040518085815260200184815260200183815260200182815260200194505050505060405180910390f35b34801561053657600080fd5b5061058d6004803603606081101561054d57600080fd5b810190808035906020019092919080359060200190929190803573ffffffffffffffffffffffffffffffffffffffff169060200190929190505050611c23565b604051808215151515815260200191505060405180910390f35b3480156105b357600080fd5b506105f6600480360360208110156105ca57600080fd5b81019080803573ffffffffffffffffffffffffffffffffffffffff169060200190929190505050611fe7565b604051808215151515815260200191505060405180910390f35b61063c6004803603602081101561062657600080fd5b810190808035906020019092919050505061224d565b6040518082815260200191505060405180910390f35b34801561065e57600080fd5b5061066761248f565b005b34801561067557600080fd5b5061067e612600565b604051808273ffffffffffffffffffffffffffffffffffffffff1673ffffffffffffffffffffffffffffffffffffffff16815260200191505060405180910390f35b3480156106cc57600080fd5b506106d5612626565b604051808273ffffffffffffffffffffffffffffffffffffffff1673ffffffffffffffffffffffffffffffffffffffff16815260200191505060405180910390f35b34801561072357600080fd5b5061072c61264b565b604051808215151515815260200191505060405180910390f35b34801561075257600080fd5b5061077f6004803603602081101561076957600080fd5b81019080803590602001909291905050506127c4565b604051808215151515815260200191505060405180910390f35b6107a1612b00565b604051808215151515815260200191505060405180910390f35b3480156107c757600080fd5b5061080a600480360360208110156107de57600080fd5b81019080803573ffffffffffffffffffffffffffffffffffffffff169060200190929190505050612fb1565b604051808215151515815260200191505060405180910390f35b34801561083057600080fd5b5061083961314c565b6040518082815260200191505060405180910390f35b34801561085b57600080fd5b506108886004803603602081101561087257600080fd5b8101908080359060200190929190505050613152565b604051808215151515815260200191505060405180910390f35b3480156108ae57600080fd5b506108f1600480360360208110156108c557600080fd5b81019080803573ffffffffffffffffffffffffffffffffffffffff1690602001909291905050506131d2565b604051808215151515815260200191505060405180910390f35b34801561091757600080fd5b506109446004803603602081101561092e57600080fd5b8101908080359060200190929190505050613429565b6040518080602001828103825283818151815260200191508051906020019080838360005b83811015610984578082015181840152602081019050610969565b50505050905090810190601f1680156109b15780820380516001836020036101000a031916815260200191505b509250505060405180910390f35b3480156109cb57600080fd5b50610a02600480360360408110156109e257600080fd5b810190808035906020019092919080359060200190929190505050613506565b6040518082815260200191505060405180910390f35b348015610a2457600080fd5b50610a5b60048036036040811015610a3b57600080fd5b810190808035906020019092919080359060200190929190505050613623565b604051808215151515815260200191505060405180910390f35b348015610a8157600080fd5b50610b0360048036036040811015610a9857600080fd5b810190808035906020019092919080359060200190640100000000811115610abf57600080fd5b820183602082011115610ad157600080fd5b80359060200191846001830284011164010000000083111715610af357600080fd5b909192939192939050505061385b565b005b348015610b1157600080fd5b50610b1a613a28565b6040518082815260200191505060405180910390f35b348015610b3c57600080fd5b50610b7f60048036036020811015610b5357600080fd5b81019080803573ffffffffffffffffffffffffffffffffffffffff169060200190929190505050613a2e565b604051808215151515815260200191505060405180910390f35b348015610ba557600080fd5b50610be860048036036020811015610bbc57600080fd5b81019080803573ffffffffffffffffffffffffffffffffffffffff169060200190929190505050613a4e565b005b600181600381101515610bf957fe5b016000915054906101000a900473ffffffffffffffffffffffffffffffffffffffff1681565b600060016000600381101515610c3157fe5b0160009054906101000a900473ffffffffffffffffffffffffffffffffffffffff1673ffffffffffffffffffffffffffffffffffffffff163373ffffffffffffffffffffffffffffffffffffffff161480610ce75750600180600381101515610c9657fe5b0160009054906101000a900473ffffffffffffffffffffffffffffffffffffffff1673ffffffffffffffffffffffffffffffffffffffff163373ffffffffffffffffffffffffffffffffffffffff16145b80610d4e575060016002600381101515610cfd57fe5b0160009054906101000a900473ffffffffffffffffffffffffffffffffffffffff1673ffffffffffffffffffffffffffffffffffffffff163373ffffffffffffffffffffffffffffffffffffffff16145b1515610d5957600080fd5b6001600a60008473ffffffffffffffffffffffffffffffffffffffff1673ffffffffffffffffffffffffffffffffffffffff16815260200190815260200160002060006101000a81548160ff02191690831515021790555060019050919050565b600080821415610dcd5760009050610f7f565b436008600084815260200190815260200160002060020154600654600860008681526020019081526020016000206001015401031180610e69575060016000600381101515610e1857fe5b0160009054906101000a900473ffffffffffffffffffffffffffffffffffffffff1673ffffffffffffffffffffffffffffffffffffffff163373ffffffffffffffffffffffffffffffffffffffff16145b80610ecf5750600180600381101515610e7e57fe5b0160009054906101000a900473ffffffffffffffffffffffffffffffffffffffff1673ffffffffffffffffffffffffffffffffffffffff163373ffffffffffffffffffffffffffffffffffffffff16145b80610f36575060016002600381101515610ee557fe5b0160009054906101000a900473ffffffffffffffffffffffffffffffffffffffff1673ffffffffffffffffffffffffffffffffffffffff163373ffffffffffffffffffffffffffffffffffffffff16145b80610f6c575060007f111111111111111111111111111111111111111111111111111111111111111183811515610f6957fe5b06145b15610f7a5760019050610f7f565b600090505b919050565b6000813373ffffffffffffffffffffffffffffffffffffffff16600460009054906101000a900473ffffffffffffffffffffffffffffffffffffffff1673ffffffffffffffffffffffffffffffffffffffff16636352211e836040518263ffffffff167c01000000000000000000000000000000000000000000000000000000000281526004018082815260200191505060206040518083038186803b15801561102d57600080fd5b505afa158015611041573d6000803e3d6000fd5b505050506040513d602081101561105757600080fd5b810190808051906020019092919050505073ffffffffffffffffffffffffffffffffffffffff1614151561108a57600080fd5b823373ffffffffffffffffffffffffffffffffffffffff166008600083815260200190815260200160002060000160009054906101000a900473ffffffffffffffffffffffffffffffffffffffff1673ffffffffffffffffffffffffffffffffffffffff161480156111295750600073ffffffffffffffffffffffffffffffffffffffff163373ffffffffffffffffffffffffffffffffffffffff1614155b151561113457600080fd5b6000600860008381526020019081526020016000206001015411151561115957600080fd5b600760009054906101000a900460ff1615151561117557600080fd5b436008600086815260200190815260200160002060020154600654600860008881526020019081526020016000206001015401031015156111b557600080fd5b60a060405190810160405280600073ffffffffffffffffffffffffffffffffffffffff16815260200160008152602001600081526020016000600102815260200160206040519081016040528060008152508152506008600086815260200190815260200160002060008201518160000160006101000a81548173ffffffffffffffffffffffffffffffffffffffff021916908373ffffffffffffffffffffffffffffffffffffffff160217905550602082015181600101556040820151816002015560608201518160030155608082015181600401908051906020019061129e929190613aed565b509050506000600960003373ffffffffffffffffffffffffffffffffffffffff1673ffffffffffffffffffffffffffffffffffffffff16815260200190815260200160002081905550600192505050919050565b600760019054906101000a900460ff1681565b6000809054906101000a900473ffffffffffffffffffffffffffffffffffffffff1673ffffffffffffffffffffffffffffffffffffffff163373ffffffffffffffffffffffffffffffffffffffff1614151561136057600080fd5b600760009054906101000a900460ff16151561137b57600080fd5b6000600760006101000a81548160ff021916908315150217905550565b6000600960008373ffffffffffffffffffffffffffffffffffffffff1673ffffffffffffffffffffffffffffffffffffffff168152602001908152602001600020549050919050565b6000809054906101000a900473ffffffffffffffffffffffffffffffffffffffff1673ffffffffffffffffffffffffffffffffffffffff163373ffffffffffffffffffffffffffffffffffffffff1614151561143c57600080fd5b611444613b6d565b6060604051908101604052807f111111111111111111111111111111111111111111111111111111111111111181526020017f222222222222222222222222222222222222222222222222222222222222222281526020017f3333333333333333333333333333333333333333333333333333333333333333815250905060008090505b60038110156117c0576000600460009054906101000a900473ffffffffffffffffffffffffffffffffffffffff1673ffffffffffffffffffffffffffffffffffffffff166370a0823160018460038110151561152057fe5b0160009054906101000a900473ffffffffffffffffffffffffffffffffffffffff166040518263ffffffff167c0100000000000000000000000000000000000000000000000000000000028152600401808273ffffffffffffffffffffffffffffffffffffffff1673ffffffffffffffffffffffffffffffffffffffff16815260200191505060206040518083038186803b1580156115be57600080fd5b505afa1580156115d2573d6000803e3d6000fd5b505050506040513d60208110156115e857600080fd5b810190808051906020019092919050505014156117b35760a06040519081016040528060018360038110151561161a57fe5b0160009054906101000a900473ffffffffffffffffffffffffffffffffffffffff1673ffffffffffffffffffffffffffffffffffffffff1681526020014381526020016000815260200160006001028152602001602060405190810160405280600081525081525060086000848460038110151561169457fe5b6020020151815260200190815260200160002060008201518160000160006101000a81548173ffffffffffffffffffffffffffffffffffffffff021916908373ffffffffffffffffffffffffffffffffffffffff1602179055506020820151816001015560408201518160020155606082015181600301556080820151816004019080519060200190611728929190613aed565b50905050818160038110151561173a57fe5b60200201516009600060018460038110151561175257fe5b0160009054906101000a900473ffffffffffffffffffffffffffffffffffffffff1673ffffffffffffffffffffffffffffffffffffffff1673ffffffffffffffffffffffffffffffffffffffff168152602001908152602001600020819055505b80806001019150506114c8565b5050565b600160006003811015156117d457fe5b0160009054906101000a900473ffffffffffffffffffffffffffffffffffffffff1673ffffffffffffffffffffffffffffffffffffffff163373ffffffffffffffffffffffffffffffffffffffff16148061188a575060018060038110151561183957fe5b0160009054906101000a900473ffffffffffffffffffffffffffffffffffffffff1673ffffffffffffffffffffffffffffffffffffffff163373ffffffffffffffffffffffffffffffffffffffff16145b806118f15750600160026003811015156118a057fe5b0160009054906101000a900473ffffffffffffffffffffffffffffffffffffffff1673ffffffffffffffffffffffffffffffffffffffff163373ffffffffffffffffffffffffffffffffffffffff16145b15156118fc57600080fd5b803373ffffffffffffffffffffffffffffffffffffffff16600460009054906101000a900473ffffffffffffffffffffffffffffffffffffffff1673ffffffffffffffffffffffffffffffffffffffff16636352211e836040518263ffffffff167c01000000000000000000000000000000000000000000000000000000000281526004018082815260200191505060206040518083038186803b1580156119a357600080fd5b505afa1580156119b7573d6000803e3d6000fd5b505050506040513d60208110156119cd57600080fd5b810190808051906020019092919050505073ffffffffffffffffffffffffffffffffffffffff16141515611a0057600080fd5b8160007f111111111111111111111111111111111111111111111111111111111111111182811515611a2e57fe5b0614151515611a3c57600080fd5b600460009054906101000a900473ffffffffffffffffffffffffffffffffffffffff1673ffffffffffffffffffffffffffffffffffffffff166323b872dd3330866040518463ffffffff167c0100000000000000000000000000000000000000000000000000000000028152600401808473ffffffffffffffffffffffffffffffffffffffff1673ffffffffffffffffffffffffffffffffffffffff1681526020018373ffffffffffffffffffffffffffffffffffffffff1673ffffffffffffffffffffffffffffffffffffffff1681526020018281526020019350505050600060405180830381600087803b158015611b3557600080fd5b505af1158015611b49573d6000803e3d6000fd5b50505050505050565b600760009054906101000a900460ff1681565b6000806000806000600960008773ffffffffffffffffffffffffffffffffffffffff1673ffffffffffffffffffffffffffffffffffffffff168152602001908152602001600020549050600080821415611bc25760009050611bdf565b611bcb82610dba565b15611bd95760029050611bde565b600190505b5b808260010260086000858152602001908152602001600020600101546008600086815260200190815260200160002060020154955095509550955050509193509193565b6000823373ffffffffffffffffffffffffffffffffffffffff166008600083815260200190815260200160002060000160009054906101000a900473ffffffffffffffffffffffffffffffffffffffff1673ffffffffffffffffffffffffffffffffffffffff16148015611cc45750600073ffffffffffffffffffffffffffffffffffffffff163373ffffffffffffffffffffffffffffffffffffffff1614155b1515611ccf57600080fd5b60006008600083815260200190815260200160002060010154111515611cf457600080fd5b833373ffffffffffffffffffffffffffffffffffffffff16600460009054906101000a900473ffffffffffffffffffffffffffffffffffffffff1673ffffffffffffffffffffffffffffffffffffffff16636352211e836040518263ffffffff167c01000000000000000000000000000000000000000000000000000000000281526004018082815260200191505060206040518083038186803b158015611d9b57600080fd5b505afa158015611daf573d6000803e3d6000fd5b505050506040513d6020811015611dc557600080fd5b810190808051906020019092919050505073ffffffffffffffffffffffffffffffffffffffff16141515611df857600080fd5b600760009054906101000a900460ff16151515611e1457600080fd5b60011515600760019054906101000a900460ff161515141515611e3657600080fd5b60006008600088815260200190815260200160002060010154148015611ebe5750600073ffffffffffffffffffffffffffffffffffffffff166008600088815260200190815260200160002060000160009054906101000a900473ffffffffffffffffffffffffffffffffffffffff1673ffffffffffffffffffffffffffffffffffffffff16145b1515611ec957600080fd5b600460009054906101000a900473ffffffffffffffffffffffffffffffffffffffff1673ffffffffffffffffffffffffffffffffffffffff166323b872dd3386896040518463ffffffff167c0100000000000000000000000000000000000000000000000000000000028152600401808473ffffffffffffffffffffffffffffffffffffffff1673ffffffffffffffffffffffffffffffffffffffff1681526020018373ffffffffffffffffffffffffffffffffffffffff1673ffffffffffffffffffffffffffffffffffffffff1681526020018281526020019350505050600060405180830381600087803b158015611fc257600080fd5b505af1158015611fd6573d6000803e3d6000fd5b505050506001925050509392505050565b60008073ffffffffffffffffffffffffffffffffffffffff168273ffffffffffffffffffffffffffffffffffffffff161415151561202457600080fd5b6000600960008473ffffffffffffffffffffffffffffffffffffffff1673ffffffffffffffffffffffffffffffffffffffff1681526020019081526020016000205490506001600060038110151561207857fe5b0160009054906101000a900473ffffffffffffffffffffffffffffffffffffffff1673ffffffffffffffffffffffffffffffffffffffff163373ffffffffffffffffffffffffffffffffffffffff16148061212e57506001806003811015156120dd57fe5b0160009054906101000a900473ffffffffffffffffffffffffffffffffffffffff1673ffffffffffffffffffffffffffffffffffffffff163373ffffffffffffffffffffffffffffffffffffffff16145b8061219557506001600260038110151561214457fe5b0160009054906101000a900473ffffffffffffffffffffffffffffffffffffffff1673ffffffffffffffffffffffffffffffffffffffff163373ffffffffffffffffffffffffffffffffffffffff16145b156121a4576001915050612248565b600081141580156121e0575060007f1111111111111111111111111111111111111111111111111111111111111111828115156121dd57fe5b06145b156121ef576001915050612248565b6000600960008573ffffffffffffffffffffffffffffffffffffffff1673ffffffffffffffffffffffffffffffffffffffff16815260200190815260200160002054141515612242576001915050612248565b60009150505b919050565b6000813373ffffffffffffffffffffffffffffffffffffffff166008600083815260200190815260200160002060000160009054906101000a900473ffffffffffffffffffffffffffffffffffffffff1673ffffffffffffffffffffffffffffffffffffffff161480156122ee5750600073ffffffffffffffffffffffffffffffffffffffff163373ffffffffffffffffffffffffffffffffffffffff1614155b15156122f957600080fd5b6000600860008381526020019081526020016000206001015411151561231e57600080fd5b823373ffffffffffffffffffffffffffffffffffffffff16600460009054906101000a900473ffffffffffffffffffffffffffffffffffffffff1673ffffffffffffffffffffffffffffffffffffffff16636352211e836040518263ffffffff167c01000000000000000000000000000000000000000000000000000000000281526004018082815260200191505060206040518083038186803b1580156123c557600080fd5b505afa1580156123d9573d6000803e3d6000fd5b505050506040513d60208110156123ef57600080fd5b810190808051906020019092919050505073ffffffffffffffffffffffffffffffffffffffff1614151561242257600080fd5b600760009054906101000a900460ff1615151561243e57600080fd5b612710600654600860008781526020019081526020016000206001015401034311151561246a57600080fd5b4360086000868152602001908152602001600020600101819055504392505050919050565b6001600060038110151561249f57fe5b0160009054906101000a900473ffffffffffffffffffffffffffffffffffffffff1673ffffffffffffffffffffffffffffffffffffffff163373ffffffffffffffffffffffffffffffffffffffff161480612555575060018060038110151561250457fe5b0160009054906101000a900473ffffffffffffffffffffffffffffffffffffffff1673ffffffffffffffffffffffffffffffffffffffff163373ffffffffffffffffffffffffffffffffffffffff16145b806125bc57506001600260038110151561256b57fe5b0160009054906101000a900473ffffffffffffffffffffffffffffffffffffffff1673ffffffffffffffffffffffffffffffffffffffff163373ffffffffffffffffffffffffffffffffffffffff16145b15156125c757600080fd5b600760009054906101000a900460ff161515156125e357600080fd5b6001600760006101000a81548160ff021916908315150217905550565b600460009054906101000a900473ffffffffffffffffffffffffffffffffffffffff1681565b6000809054906101000a900473ffffffffffffffffffffffffffffffffffffffff1681565b60006001600060038110151561265d57fe5b0160009054906101000a900473ffffffffffffffffffffffffffffffffffffffff1673ffffffffffffffffffffffffffffffffffffffff163373ffffffffffffffffffffffffffffffffffffffff16148061271357506001806003811015156126c257fe5b0160009054906101000a900473ffffffffffffffffffffffffffffffffffffffff1673ffffffffffffffffffffffffffffffffffffffff163373ffffffffffffffffffffffffffffffffffffffff16145b8061277a57506001600260038110151561272957fe5b0160009054906101000a900473ffffffffffffffffffffffffffffffffffffffff1673ffffffffffffffffffffffffffffffffffffffff163373ffffffffffffffffffffffffffffffffffffffff16145b151561278557600080fd5b600760019054906101000a900460ff1615600760016101000a81548160ff021916908315150217905550600760019054906101000a900460ff16905090565b6000813373ffffffffffffffffffffffffffffffffffffffff16600460009054906101000a900473ffffffffffffffffffffffffffffffffffffffff1673ffffffffffffffffffffffffffffffffffffffff16636352211e836040518263ffffffff167c01000000000000000000000000000000000000000000000000000000000281526004018082815260200191505060206040518083038186803b15801561286d57600080fd5b505afa158015612881573d6000803e3d6000fd5b505050506040513d602081101561289757600080fd5b810190808051906020019092919050505073ffffffffffffffffffffffffffffffffffffffff161415156128ca57600080fd5b600760009054906101000a900460ff161515156128e657600080fd5b6000600860008581526020019081526020016000206001015414801561296e5750600073ffffffffffffffffffffffffffffffffffffffff166008600085815260200190815260200160002060000160009054906101000a900473ffffffffffffffffffffffffffffffffffffffff1673ffffffffffffffffffffffffffffffffffffffff16145b151561297957600080fd5b6000600960003373ffffffffffffffffffffffffffffffffffffffff1673ffffffffffffffffffffffffffffffffffffffff168152602001908152602001600020541415156129c757600080fd5b60a0604051908101604052803373ffffffffffffffffffffffffffffffffffffffff168152602001438152602001600081526020016000600102815260200160206040519081016040528060008152508152506008600085815260200190815260200160002060008201518160000160006101000a81548173ffffffffffffffffffffffffffffffffffffffff021916908373ffffffffffffffffffffffffffffffffffffffff1602179055506020820151816001015560408201518160020155606082015181600301556080820151816004019080519060200190612aae929190613aed565b5090505082600960003373ffffffffffffffffffffffffffffffffffffffff1673ffffffffffffffffffffffffffffffffffffffff168152602001908152602001600020819055506001915050919050565b60006005543410151515612b1357600080fd5b60011515600760019054906101000a900460ff161515141515612b3557600080fd5b6000600460009054906101000a900473ffffffffffffffffffffffffffffffffffffffff1673ffffffffffffffffffffffffffffffffffffffff16632f745c593060006040518363ffffffff167c0100000000000000000000000000000000000000000000000000000000028152600401808373ffffffffffffffffffffffffffffffffffffffff1673ffffffffffffffffffffffffffffffffffffffff1681526020018281526020019250505060206040518083038186803b158015612bfb57600080fd5b505afa158015612c0f573d6000803e3d6000fd5b505050506040513d6020811015612c2557600080fd5b810190808051906020019092919050505014151515612c4357600080fd5b6000600460009054906101000a900473ffffffffffffffffffffffffffffffffffffffff1673ffffffffffffffffffffffffffffffffffffffff166370a08231336040518263ffffffff167c0100000000000000000000000000000000000000000000000000000000028152600401808273ffffffffffffffffffffffffffffffffffffffff1673ffffffffffffffffffffffffffffffffffffffff16815260200191505060206040518083038186803b158015612d0057600080fd5b505afa158015612d14573d6000803e3d6000fd5b505050506040513d6020811015612d2a57600080fd5b8101908080519060200190929190505050141515612d4757600080fd5b6000600960003373ffffffffffffffffffffffffffffffffffffffff1673ffffffffffffffffffffffffffffffffffffffff16815260200190815260200160002054141515612d9557600080fd5b6000600460009054906101000a900473ffffffffffffffffffffffffffffffffffffffff1673ffffffffffffffffffffffffffffffffffffffff16632f745c593060006040518363ffffffff167c0100000000000000000000000000000000000000000000000000000000028152600401808373ffffffffffffffffffffffffffffffffffffffff1673ffffffffffffffffffffffffffffffffffffffff1681526020018281526020019250505060206040518083038186803b158015612e5b57600080fd5b505afa158015612e6f573d6000803e3d6000fd5b505050506040513d6020811015612e8557600080fd5b81019080805190602001909291905050509050600460009054906101000a900473ffffffffffffffffffffffffffffffffffffffff1673ffffffffffffffffffffffffffffffffffffffff166323b872dd3033846040518463ffffffff167c0100000000000000000000000000000000000000000000000000000000028152600401808473ffffffffffffffffffffffffffffffffffffffff1673ffffffffffffffffffffffffffffffffffffffff1681526020018373ffffffffffffffffffffffffffffffffffffffff1673ffffffffffffffffffffffffffffffffffffffff1681526020018281526020019350505050600060405180830381600087803b158015612f9157600080fd5b505af1158015612fa5573d6000803e3d6000fd5b50505050600191505090565b600060016000600381101515612fc357fe5b0160009054906101000a900473ffffffffffffffffffffffffffffffffffffffff1673ffffffffffffffffffffffffffffffffffffffff163373ffffffffffffffffffffffffffffffffffffffff161480613079575060018060038110151561302857fe5b0160009054906101000a900473ffffffffffffffffffffffffffffffffffffffff1673ffffffffffffffffffffffffffffffffffffffff163373ffffffffffffffffffffffffffffffffffffffff16145b806130e057506001600260038110151561308f57fe5b0160009054906101000a900473ffffffffffffffffffffffffffffffffffffffff1673ffffffffffffffffffffffffffffffffffffffff163373ffffffffffffffffffffffffffffffffffffffff16145b15156130eb57600080fd5b6000600a60008473ffffffffffffffffffffffffffffffffffffffff1673ffffffffffffffffffffffffffffffffffffffff16815260200190815260200160002060006101000a81548160ff02191690831515021790555060019050919050565b60065481565b60008073ffffffffffffffffffffffffffffffffffffffff166008600084815260200190815260200160002060000160009054906101000a900473ffffffffffffffffffffffffffffffffffffffff1673ffffffffffffffffffffffffffffffffffffffff161415156131c857600190506131cd565b600090505b919050565b60008073ffffffffffffffffffffffffffffffffffffffff168273ffffffffffffffffffffffffffffffffffffffff161415151561320f57600080fd5b6000600960008473ffffffffffffffffffffffffffffffffffffffff1673ffffffffffffffffffffffffffffffffffffffff1681526020019081526020016000205490506001600060038110151561326357fe5b0160009054906101000a900473ffffffffffffffffffffffffffffffffffffffff1673ffffffffffffffffffffffffffffffffffffffff163373ffffffffffffffffffffffffffffffffffffffff16148061331957506001806003811015156132c857fe5b0160009054906101000a900473ffffffffffffffffffffffffffffffffffffffff1673ffffffffffffffffffffffffffffffffffffffff163373ffffffffffffffffffffffffffffffffffffffff16145b8061338057506001600260038110151561332f57fe5b0160009054906101000a900473ffffffffffffffffffffffffffffffffffffffff1673ffffffffffffffffffffffffffffffffffffffff163373ffffffffffffffffffffffffffffffffffffffff16145b1561338f576001915050613424565b600081141580156133cb575060007f1111111111111111111111111111111111111111111111111111111111111111828115156133c857fe5b06145b156133da576001915050613424565b43600860008381526020019081526020016000206002015460065460086000858152602001908152602001600020600101540103111561341e576001915050613424565b60009150505b919050565b60606000600860008481526020019081526020016000206001015411151561345057600080fd5b600860008381526020019081526020016000206004018054600181600116156101000203166002900480601f0160208091040260200160405190810160405280929190818152602001828054600181600116156101000203166002900480156134fa5780601f106134cf576101008083540402835291602001916134fa565b820191906000526020600020905b8154815290600101906020018083116134dd57829003601f168201915b50505050509050919050565b600060011515600a60003373ffffffffffffffffffffffffffffffffffffffff1673ffffffffffffffffffffffffffffffffffffffff16815260200190815260200160002060009054906101000a900460ff16151514151561356757600080fd5b6000600860008581526020019081526020016000206001015411151561358c57600080fd5b6006548210151561359c57600080fd5b438260086000868152602001908152602001600020600201540111156135df57600143036008600085815260200190815260200160002060020181905550613604565b8160086000858152602001908152602001600020600201600082825401925050819055505b6008600084815260200190815260200160002060020154905092915050565b6000826000811415801561379657506001600060038110151561364257fe5b0160009054906101000a900473ffffffffffffffffffffffffffffffffffffffff1673ffffffffffffffffffffffffffffffffffffffff163373ffffffffffffffffffffffffffffffffffffffff1614806136f857506001806003811015156136a757fe5b0160009054906101000a900473ffffffffffffffffffffffffffffffffffffffff1673ffffffffffffffffffffffffffffffffffffffff163373ffffffffffffffffffffffffffffffffffffffff16145b8061375f57506001600260038110151561370e57fe5b0160009054906101000a900473ffffffffffffffffffffffffffffffffffffffff1673ffffffffffffffffffffffffffffffffffffffff163373ffffffffffffffffffffffffffffffffffffffff16145b80613795575060007f11111111111111111111111111111111111111111111111111111111111111118281151561379257fe5b06145b5b15156137a157600080fd5b6000600860008681526020019081526020016000206001015411801561382a5750600073ffffffffffffffffffffffffffffffffffffffff166008600086815260200190815260200160002060000160009054906101000a900473ffffffffffffffffffffffffffffffffffffffff1673ffffffffffffffffffffffffffffffffffffffff1614155b151561383557600080fd5b826008600086815260200190815260200160002060030181905550600191505092915050565b82600081141580156139cc57506001600060038110151561387857fe5b0160009054906101000a900473ffffffffffffffffffffffffffffffffffffffff1673ffffffffffffffffffffffffffffffffffffffff163373ffffffffffffffffffffffffffffffffffffffff16148061392e57506001806003811015156138dd57fe5b0160009054906101000a900473ffffffffffffffffffffffffffffffffffffffff1673ffffffffffffffffffffffffffffffffffffffff163373ffffffffffffffffffffffffffffffffffffffff16145b8061399557506001600260038110151561394457fe5b0160009054906101000a900473ffffffffffffffffffffffffffffffffffffffff1673ffffffffffffffffffffffffffffffffffffffff163373ffffffffffffffffffffffffffffffffffffffff16145b806139cb575060007f1111111111111111111111111111111111111111111111111111111111111111828115156139c857fe5b06145b5b15156139d757600080fd5b600060086000868152602001908152602001600020600101541115156139fc57600080fd5b8282600860008781526020019081526020016000206004019190613a21929190613b90565b5050505050565b60055481565b600a6020528060005260406000206000915054906101000a900460ff1681565b6000809054906101000a900473ffffffffffffffffffffffffffffffffffffffff1673ffffffffffffffffffffffffffffffffffffffff163373ffffffffffffffffffffffffffffffffffffffff16141515613aa957600080fd5b80600460006101000a81548173ffffffffffffffffffffffffffffffffffffffff021916908373ffffffffffffffffffffffffffffffffffffffff16021790555050565b828054600181600116156101000203166002900490600052602060002090601f016020900481019282601f10613b2e57805160ff1916838001178555613b5c565b82800160010185558215613b5c579182015b82811115613b5b578251825591602001919060010190613b40565b5b509050613b699190613c10565b5090565b606060405190810160405280600390602082028038833980820191505090505090565b828054600181600116156101000203166002900490600052602060002090601f016020900481019282601f10613bd157803560ff1916838001178555613bff565b82800160010185558215613bff579182015b82811115613bfe578235825591602001919060010190613be3565b5b509050613c0c9190613c10565b5090565b613c3291905b80821115613c2e576000816000905550600101613c16565b5090565b9056fea165627a7a72305820063017c514303dd8ddfb5ceb03bd8a231520a3ae5877343da3cc2e50ab63bb410029",
  "source": "pragma solidity ^0.5.2;\n\n// import \"./RNTInterface.sol\";\nimport \"./ELEMInterface.sol\";\n\n\ncontract MemberShip {\n    address public owner;\n    address[3] public coreManager;\n    address public ELEMAddr;\n    uint public fee = 10000000000000000;\n    uint public memberPeriod = 40000;  // 40000 blocks ~ a week in rinkeby, for test only\n    bool public paused = false;\n    bool public canTradeToken = true;  // before \"trade\" implementation\n\n    struct MemberInfo {\n        address addr;\n        uint since;  // beginning blockNo of previous membership\n        // addPenalty() make sure \"penalty\" is always less than block.number\n        uint penalty;  // the membership is valid until: since + memberPeriod - penalty;\n        bytes32 kycid;  // know your customer id, leave it for future\n        string notes;\n    }\n\n    mapping (uint => MemberInfo) internal memberDB;  // NFT to MemberInfo\n    mapping (address => uint) internal addressToId;  // address to membership\n\n    mapping (address => bool) public appWhitelist;\n\n    constructor(address _ELEMAddr) public {\n        owner = msg.sender;\n        coreManager = [0xB440ea2780614b3c6a00e512f432785E7dfAFA3E,\n                        0x4AD56641C569C91C64C28a904cda50AE5326Da41,\n                        0xaF7400787c54422Be8B44154B1273661f1259CcD];\n        ELEMAddr = _ELEMAddr;\n        // RNTAddr  = _RNTAddr;\n        // allocate membership in migration file\n        allocateCoreManagers();\n    }\n\n    modifier ownerOnly() {\n        require(msg.sender == owner);\n        _;\n    }\n\n    modifier coreManagerOnly() {\n        require(msg.sender == coreManager[0] || msg.sender == coreManager[1] || msg.sender == coreManager[2]);\n        _;\n    }\n\n    modifier managerOnly(uint _tokenId) {\n        require(_tokenId != 0 && (msg.sender == coreManager[0] || msg.sender == coreManager[1] || msg.sender == coreManager[2]\n                || _tokenId % 7719472615821079694904732333912527190217998977709370935963838933860875309329 == 0));\n        // uint256(0x1111111111111111111111111111111111111111111111111111111111111111 = 7.71947....e72\n        _;\n    }\n\n    modifier feePaid() {\n        require(msg.value >= fee);  // or \"==\"?\n        _;\n    }\n\n    modifier isMember(uint _tokenId) {\n        require(memberDB[_tokenId].addr == msg.sender && msg.sender != address(0));\n        require(memberDB[_tokenId].since > 0);\n        // require(addressToId[msg.sender] == _tokenId);\n        _;\n    }\n\n    modifier isActiveMember(uint _tokenId) {\n        require(memberDB[_tokenId].addr == msg.sender && msg.sender != address(0));\n        require(memberDB[_tokenId].since + memberPeriod - memberDB[_tokenId].penalty > block.number\n                || msg.sender == coreManager[0] || msg.sender == coreManager[1] || msg.sender == coreManager[2]\n                || _tokenId % 7719472615821079694904732333912527190217998977709370935963838933860875309329 == 0);\n        // require(_tokenId != 0);  // already excluded by first condition\n        // is it possible that penalty >= since or block.number?\n        _;\n    }\n\n    modifier isNFTOwner(uint _tokenId) {\n        require(iELEM(ELEMAddr).ownerOf(_tokenId) == msg.sender);\n        _;\n    }\n\n    modifier validNFT(uint256 _tokenId) {\n        require(iELEM(ELEMAddr).ownerOf(_tokenId) != address(0));\n        _;\n    }\n\n    // modifier isSynced(uint _tokenId){ // where/when to use it? What if somethings' wrong?\n    //     require(ERC721(ELEMAddr).idToOwner[_tokenId] == memberDB[_tokenId].addr);\n    // }\n\n    modifier isNotSpecialToken(uint _tokenId) {\n        // require(_tokenId > uint256(0x0000ffffffffffffffffffffffffffffffffffffffffffffffffffffffffffff));\n        // require(_tokenId > 1766847064778384329583297500742918515827483896875618958121606201292619775);\n        // require(_tokenId % uint256(0x1111111111111111111111111111111111111111111111111111111111111111 != 0));\n        require(_tokenId % 7719472615821079694904732333912527190217998977709370935963838933860875309329 != 0);\n        _;\n    }\n\n    modifier isNotManagerToken(uint _tokenId) {\n        // require(_tokenId % uint256(0x1111111111111111111111111111111111111111111111111111111111111111 != 0));\n        require(_tokenId % 7719472615821079694904732333912527190217998977709370935963838933860875309329 != 0);\n        _;\n    }\n\n    modifier whenNotPaused() {\n        require(!paused);\n        _;\n    }\n\n    modifier whenPaused {\n        require(paused);\n        _;\n    }\n\n    function allocateCoreManagers() public ownerOnly {\n        // core members already allocate NFTs:\n        //      uint(0x1111111111111111111111111111111111111111111111111111111111111111)\n        //      uint(0x2222222222222222222222222222222222222222222222222222222222222222)\n        //      uint(0x3333333333333333333333333333333333333333333333333333333333333333)\n\n        uint[3] memory _tickets = [ uint(0x1111111111111111111111111111111111111111111111111111111111111111),\n                                    uint(0x2222222222222222222222222222222222222222222222222222222222222222),\n                                    uint(0x3333333333333333333333333333333333333333333333333333333333333333)];\n        // This contract may be updated while the token contract is not;\n        // assume coreManager never transfer their first token (the _tickets)\n        for (uint i=0; i<3; i++){\n            if (iELEM(ELEMAddr).balanceOf(coreManager[i]) == 0) {\n                memberDB[_tickets[i]] = MemberInfo(coreManager[i], block.number, 0, bytes32(0), \"\");\n                addressToId[coreManager[i]] = _tickets[i];\n            }\n        }\n    }\n\n    // use \"putNFTForSale()\", \"canTradeToken=true\", \"buyToken\", and \"transferToken\" before the \"trading\"\n    // contract and the corresponding state channel are implemented\n    function putNFTForSale(uint _tokenId) public coreManagerOnly isNFTOwner(_tokenId) isNotSpecialToken(_tokenId) {\n        iELEM(ELEMAddr).transferFrom(msg.sender, address(this), _tokenId);\n    }\n\n    function tradeTokenToggle() public coreManagerOnly returns (bool) {\n        canTradeToken = !canTradeToken;\n        return canTradeToken;\n    }\n\n    function buyToken() public payable feePaid returns (bool) {\n        require(canTradeToken == true);\n        require(iELEM(ELEMAddr).tokenOfOwnerByIndex(address(this), 0) != 0);  // there are NFT for sale\n        require(iELEM(ELEMAddr).balanceOf(msg.sender) == 0);  // buyer has no NFT\n        require(addressToId[msg.sender] == 0);  // buyer is not a member\n        uint _tokenId = iELEM(ELEMAddr).tokenOfOwnerByIndex(address(this), 0);\n        iELEM(ELEMAddr).transferFrom(address(this), msg.sender, _tokenId);\n        return true;\n    }\n\n    function transferToken(\n        uint _tokenToTransfer,\n        uint _tokenId,\n        address _receiver\n    ) public isMember(_tokenId) isNFTOwner(_tokenId) whenNotPaused returns (bool) {\n        require(canTradeToken == true);\n        require(memberDB[_tokenToTransfer].since == 0 && memberDB[_tokenToTransfer].addr == address(0));\n        // comment below 2 lines for debug purpose\n        // require(iELEM(ELEMAddr).balanceOf(_receiver) == 0);  // receiver has no NFT\n        // require(addressToId[_receiver] == 0);  // receiver is not a member\n        iELEM(ELEMAddr).transferFrom(msg.sender, _receiver, _tokenToTransfer);\n        return true;\n    }\n\n    // membership\n    function bindMembership(uint _tokenId) public isNFTOwner(_tokenId) whenNotPaused returns (bool) {\n        require(memberDB[_tokenId].since == 0 && memberDB[_tokenId].addr == address(0));\n        require(addressToId[msg.sender] == 0);  // the address is not yet bind to any NFT id\n        // note: for now, if one obtain and bind a special token, then he or she become a \"manager\",\n        //       i.e., always a active member, can write kycid/notes of other member and so on\n        // note: coreManager are always activeMember, whether bind or not\n        memberDB[_tokenId] = MemberInfo(msg.sender, block.number, 0, bytes32(0), \"\");\n        addressToId[msg.sender] = _tokenId;\n        return true;\n    }\n\n    function unbindMembership(uint _tokenId) public isNFTOwner(_tokenId) isMember(_tokenId) whenNotPaused returns (bool) {\n        // active member cannot unbind and thus cannot trasnfer membership/Token\n        require(memberDB[_tokenId].since + memberPeriod - memberDB[_tokenId].penalty < block.number);\n        memberDB[_tokenId] = MemberInfo(address(0), 0, 0, bytes32(0), \"\");\n        addressToId[msg.sender] = 0;\n        return true;\n    }\n\n    function renewMembership(uint _tokenId) public payable isMember(_tokenId) isNFTOwner(_tokenId) whenNotPaused returns (uint) {\n        require(block.number > memberDB[_tokenId].since + memberPeriod - 10000); // 10000 rinkeby blocks ~1.7 days\n        memberDB[_tokenId].since = block.number;\n        return block.number;\n    }\n\n    function assginKYCid(uint _tokenId, bytes32 _kycid) external managerOnly(_tokenId) returns (bool) {\n        // instead of \"managerOnly\", probably add another group to do that\n        require(memberDB[_tokenId].since > 0 && memberDB[_tokenId].addr != address(0));\n        memberDB[_tokenId].kycid = _kycid;\n        return true;\n    }\n\n    function addWhitelistApps(address _addr) public coreManagerOnly returns (bool) {\n        appWhitelist[_addr] = true;\n        return true;\n    }\n\n    function rmWhitelistApps(address _addr) public coreManagerOnly returns (bool) {\n        appWhitelist[_addr] = false;\n        return true;\n    }\n\n    function addPenalty(uint _tokenId, uint _penalty) external returns (uint) {\n        require(appWhitelist[msg.sender] == true);  // the msg.sender (usually a contract) is in appWhitelist\n        require(memberDB[_tokenId].since > 0);  // is a member\n        require(_penalty < memberPeriod);  // prevent too much penalty\n\n        // extreme case which is unlike to happen\n        if (memberDB[_tokenId].penalty + _penalty > block.number) {\n            memberDB[_tokenId].penalty = block.number - 1;  // if 0 then not a member\n        } else {\n            memberDB[_tokenId].penalty += _penalty;\n        }\n        return memberDB[_tokenId].penalty;\n    }\n\n    function readNotes(uint _tokenId) external view returns (string memory) {\n        require(memberDB[_tokenId].since > 0);\n        return memberDB[_tokenId].notes;\n    }\n\n    function addNotes(uint _tokenId, string calldata _notes) external managerOnly(_tokenId) {\n        require(memberDB[_tokenId].since > 0);\n        memberDB[_tokenId].notes = _notes;\n    }\n\n    // function membershipGiveaway(address _addr, uint _tokenId) public coreManagerOnly(_tokenId) isNFTOwner(_tokenId) returns (bool){\n    //     // assume the token is valid and owned by manager\n    //     require(memberDB[_tokenId].addr == address(0));  // no one use the token as member\n    //     require(addressToId[_addr] == 0);  // the addr is not yet a member\n    //     // require ...\n    //     memberDB[_tokenId] = MemberInfo(_addr, block.number, 0, bytes32(0), '');\n    //     addressToId[_addr] = _tokenId;\n    //     string memory uri = '';\n    //     require(iELEM(ELEMAddr).mint(_addr, _tokenId, uri) == true);\n    //     return true;\n    // }\n\n    // some query functions\n    function addrIsMember(address _addr) public view returns (bool) {\n        require(_addr != address(0));\n        uint _tokenId = addressToId[_addr];\n        if (msg.sender == coreManager[0] || msg.sender == coreManager[1] || msg.sender == coreManager[2]){\n            return true;  // core managers\n        } else if (_tokenId != 0 && (_tokenId % 7719472615821079694904732333912527190217998977709370935963838933860875309329 == 0)) {\n            return true;  // other managers\n        } else if (addressToId[_addr] != 0) {\n            return true;\n        } else {\n            return false;\n        }\n    }\n\n    function addrIsActiveMember(address _addr) public view returns (bool) {\n        require(_addr != address(0));\n        uint _tokenId = addressToId[_addr];\n        if (msg.sender == coreManager[0] || msg.sender == coreManager[1] || msg.sender == coreManager[2]){\n            return true;  // core managers\n        } else if (_tokenId != 0 && (_tokenId % 7719472615821079694904732333912527190217998977709370935963838933860875309329 == 0)) {\n            return true;  // other managers\n        } else if (memberDB[_tokenId].since + memberPeriod - memberDB[_tokenId].penalty > block.number) {\n            return true;  // not yet expire\n        } else {\n            return false;\n        }\n    }\n\n    function tokenIsMember(uint _tokenId) public view returns (bool) {\n        if (memberDB[_tokenId].addr != address(0)) {\n            return true;\n        } else {\n            return false;\n        }\n    }\n\n    function tokenIsActiveMember(uint _tokenId) public view returns (bool) {\n        if (_tokenId == 0) {\n            return false;\n        } else if (memberDB[_tokenId].since + memberPeriod - memberDB[_tokenId].penalty > block.number\n            || msg.sender == coreManager[0] || msg.sender == coreManager[1] || msg.sender == coreManager[2]\n            || _tokenId % 7719472615821079694904732333912527190217998977709370935963838933860875309329 == 0)\n        {\n            return true;\n        } else {\n            return false;\n        }\n    }\n\n    function addrToTokenId(address _addr) external view returns (uint) {\n        return addressToId[_addr];\n    }\n\n    // function getMemberInfo(uint _tokenId) external view returns (address, uint, uint, bytes32) {\n    //     require(memberDB[_tokenId].addr != address(0));\n    //     return (memberDB[_tokenId].addr, memberDB[_tokenId].since, memberDB[_tokenId].penalty, memberDB[_tokenId].kycid);\n    // }\n\n    function getMemberInfo(address _addr) external view returns (uint, bytes32, uint, uint){\n        uint _tokenId = addressToId[_addr];\n        uint status;  // 0=not member, 1=expired, 2=active member\n        if (_tokenId == 0) {\n            status = 0;\n        } else {\n            if (tokenIsActiveMember(_tokenId)){\n                status = 2;\n            } else {\n                status = 1;\n            }\n        }\n        return (status, bytes32(_tokenId), memberDB[_tokenId].since, memberDB[_tokenId].penalty);\n    }\n\n    // upgradable\n    function pause() external coreManagerOnly whenNotPaused {\n        paused = true;\n    }\n\n    function unpause() public ownerOnly whenPaused {\n        // set to ownerOnly in case accounts of other managers are compromised\n        paused = false;\n    }\n\n    function updateELEMAddr(address _addr) external ownerOnly {\n        //require(ELEMAddr == address(0)); // comment to allow this to be changed many times\n        ELEMAddr = _addr;\n    }\n\n}\n",
  "sourcePath": "/home/kai/Work/project/ETHDenver_2019_Erebor/contracts/MemberShip.sol",
  "compiler": {
    "name": "solc",
    "version": "0.5.2+commit.1df8f40c.Linux.g++"
  },
  "schemaVersion": "3.0.1",
  "updatedAt": "2019-02-16T22:18:17.978Z",
  "devdoc": {
    "methods": {}
  },
  "userdoc": {
    "methods": {}
  }
}