{
  "contractName": "MemberShip",
  "abi": [
    {
      "constant": true,
      "inputs": [
        {
          "name": "",
          "type": "uint256"
        }
      ],
      "name": "coreManager",
      "outputs": [
        {
          "name": "",
          "type": "address"
        }
      ],
      "payable": false,
      "stateMutability": "view",
      "type": "function",
      "signature": "0x0d0d80ad"
    },
    {
      "constant": true,
      "inputs": [],
      "name": "canTradeToken",
      "outputs": [
        {
          "name": "",
          "type": "bool"
        }
      ],
      "payable": false,
      "stateMutability": "view",
      "type": "function",
      "signature": "0x351f9501"
    },
    {
      "constant": true,
      "inputs": [],
      "name": "paused",
      "outputs": [
        {
          "name": "",
          "type": "bool"
        }
      ],
      "payable": false,
      "stateMutability": "view",
      "type": "function",
      "signature": "0x5c975abb"
    },
    {
      "constant": true,
      "inputs": [],
      "name": "ELEMAddr",
      "outputs": [
        {
          "name": "",
          "type": "address"
        }
      ],
      "payable": false,
      "stateMutability": "view",
      "type": "function",
      "signature": "0x885869dc"
    },
    {
      "constant": true,
      "inputs": [],
      "name": "owner",
      "outputs": [
        {
          "name": "",
          "type": "address"
        }
      ],
      "payable": false,
      "stateMutability": "view",
      "type": "function",
      "signature": "0x8da5cb5b"
    },
    {
      "constant": true,
      "inputs": [],
      "name": "memberPeriod",
      "outputs": [
        {
          "name": "",
          "type": "uint256"
        }
      ],
      "payable": false,
      "stateMutability": "view",
      "type": "function",
      "signature": "0xaba35b72"
    },
    {
      "constant": true,
      "inputs": [],
      "name": "fee",
      "outputs": [
        {
          "name": "",
          "type": "uint256"
        }
      ],
      "payable": false,
      "stateMutability": "view",
      "type": "function",
      "signature": "0xddca3f43"
    },
    {
      "constant": true,
      "inputs": [
        {
          "name": "",
          "type": "address"
        }
      ],
      "name": "appWhitelist",
      "outputs": [
        {
          "name": "",
          "type": "bool"
        }
      ],
      "payable": false,
      "stateMutability": "view",
      "type": "function",
      "signature": "0xfe2b5de1"
    },
    {
      "inputs": [
        {
          "name": "_ELEMAddr",
          "type": "address"
        }
      ],
      "payable": false,
      "stateMutability": "nonpayable",
      "type": "constructor",
      "signature": "constructor"
    },
    {
      "constant": false,
      "inputs": [],
      "name": "allocateCoreManagers",
      "outputs": [],
      "payable": false,
      "stateMutability": "nonpayable",
      "type": "function",
      "signature": "0x45c05615"
    },
    {
      "constant": false,
      "inputs": [
        {
          "name": "_tokenId",
          "type": "uint256"
        }
      ],
      "name": "putNFTForSale",
      "outputs": [],
      "payable": false,
      "stateMutability": "nonpayable",
      "type": "function",
      "signature": "0x557d21fc"
    },
    {
      "constant": false,
      "inputs": [],
      "name": "tradeTokenToggle",
      "outputs": [
        {
          "name": "",
          "type": "bool"
        }
      ],
      "payable": false,
      "stateMutability": "nonpayable",
      "type": "function",
      "signature": "0x91e842af"
    },
    {
      "constant": false,
      "inputs": [],
      "name": "buyToken",
      "outputs": [
        {
          "name": "",
          "type": "bool"
        }
      ],
      "payable": true,
      "stateMutability": "payable",
      "type": "function",
      "signature": "0xa4821719"
    },
    {
      "constant": false,
      "inputs": [
        {
          "name": "_tokenToTransfer",
          "type": "uint256"
        },
        {
          "name": "_tokenId",
          "type": "uint256"
        },
        {
          "name": "_receiver",
          "type": "address"
        }
      ],
      "name": "transferToken",
      "outputs": [
        {
          "name": "",
          "type": "bool"
        }
      ],
      "payable": false,
      "stateMutability": "nonpayable",
      "type": "function",
      "signature": "0x6823e680"
    },
    {
      "constant": false,
      "inputs": [
        {
          "name": "_tokenId",
          "type": "uint256"
        }
      ],
      "name": "bindMembership",
      "outputs": [
        {
          "name": "",
          "type": "bool"
        }
      ],
      "payable": false,
      "stateMutability": "nonpayable",
      "type": "function",
      "signature": "0x9b8bb779"
    },
    {
      "constant": false,
      "inputs": [
        {
          "name": "_tokenId",
          "type": "uint256"
        }
      ],
      "name": "unbindMembership",
      "outputs": [
        {
          "name": "",
          "type": "bool"
        }
      ],
      "payable": false,
      "stateMutability": "nonpayable",
      "type": "function",
      "signature": "0x329ae6f2"
    },
    {
      "constant": false,
      "inputs": [
        {
          "name": "_tokenId",
          "type": "uint256"
        }
      ],
      "name": "renewMembership",
      "outputs": [
        {
          "name": "",
          "type": "uint256"
        }
      ],
      "payable": true,
      "stateMutability": "payable",
      "type": "function",
      "signature": "0x7c9669ac"
    },
    {
      "constant": false,
      "inputs": [
        {
          "name": "_tokenId",
          "type": "uint256"
        },
        {
          "name": "_kycid",
          "type": "bytes32"
        }
      ],
      "name": "assginKYCid",
      "outputs": [
        {
          "name": "",
          "type": "bool"
        }
      ],
      "payable": false,
      "stateMutability": "nonpayable",
      "type": "function",
      "signature": "0xc9a69336"
    },
    {
      "constant": false,
      "inputs": [
        {
          "name": "_addr",
          "type": "address"
        }
      ],
      "name": "addWhitelistApps",
      "outputs": [
        {
          "name": "",
          "type": "bool"
        }
      ],
      "payable": false,
      "stateMutability": "nonpayable",
      "type": "function",
      "signature": "0x0d2da680"
    },
    {
      "constant": false,
      "inputs": [
        {
          "name": "_addr",
          "type": "address"
        }
      ],
      "name": "rmWhitelistApps",
      "outputs": [
        {
          "name": "",
          "type": "bool"
        }
      ],
      "payable": false,
      "stateMutability": "nonpayable",
      "type": "function",
      "signature": "0xa7f70e73"
    },
    {
      "constant": false,
      "inputs": [
        {
          "name": "_tokenId",
          "type": "uint256"
        },
        {
          "name": "_penalty",
          "type": "uint256"
        }
      ],
      "name": "addPenalty",
      "outputs": [
        {
          "name": "",
          "type": "uint256"
        }
      ],
      "payable": false,
      "stateMutability": "nonpayable",
      "type": "function",
      "signature": "0xc6906749"
    },
    {
      "constant": true,
      "inputs": [
        {
          "name": "_tokenId",
          "type": "uint256"
        }
      ],
      "name": "readNotes",
      "outputs": [
        {
          "name": "",
          "type": "string"
        }
      ],
      "payable": false,
      "stateMutability": "view",
      "type": "function",
      "signature": "0xc449b262"
    },
    {
      "constant": false,
      "inputs": [
        {
          "name": "_tokenId",
          "type": "uint256"
        },
        {
          "name": "_notes",
          "type": "string"
        }
      ],
      "name": "addNotes",
      "outputs": [],
      "payable": false,
      "stateMutability": "nonpayable",
      "type": "function",
      "signature": "0xd9ed28b7"
    },
    {
      "constant": true,
      "inputs": [
        {
          "name": "_addr",
          "type": "address"
        }
      ],
      "name": "addrIsMember",
      "outputs": [
        {
          "name": "",
          "type": "bool"
        }
      ],
      "payable": false,
      "stateMutability": "view",
      "type": "function",
      "signature": "0x7a7d32e5"
    },
    {
      "constant": true,
      "inputs": [
        {
          "name": "_addr",
          "type": "address"
        }
      ],
      "name": "addrIsActiveMember",
      "outputs": [
        {
          "name": "",
          "type": "bool"
        }
      ],
      "payable": false,
      "stateMutability": "view",
      "type": "function",
      "signature": "0xc41a32ec"
    },
    {
      "constant": true,
      "inputs": [
        {
          "name": "_tokenId",
          "type": "uint256"
        }
      ],
      "name": "tokenIsMember",
      "outputs": [
        {
          "name": "",
          "type": "bool"
        }
      ],
      "payable": false,
      "stateMutability": "view",
      "type": "function",
      "signature": "0xbeb04204"
    },
    {
      "constant": true,
      "inputs": [
        {
          "name": "_tokenId",
          "type": "uint256"
        }
      ],
      "name": "tokenIsActiveMember",
      "outputs": [
        {
          "name": "",
          "type": "bool"
        }
      ],
      "payable": false,
      "stateMutability": "view",
      "type": "function",
      "signature": "0x2f8c4a59"
    },
    {
      "constant": true,
      "inputs": [
        {
          "name": "_addr",
          "type": "address"
        }
      ],
      "name": "addrToTokenId",
      "outputs": [
        {
          "name": "",
          "type": "uint256"
        }
      ],
      "payable": false,
      "stateMutability": "view",
      "type": "function",
      "signature": "0x43ddfd57"
    },
    {
      "constant": true,
      "inputs": [
        {
          "name": "_tokenId",
          "type": "uint256"
        }
      ],
      "name": "getMemberInfo",
      "outputs": [
        {
          "name": "",
          "type": "address"
        },
        {
          "name": "",
          "type": "uint256"
        },
        {
          "name": "",
          "type": "uint256"
        },
        {
          "name": "",
          "type": "bytes32"
        }
      ],
      "payable": false,
      "stateMutability": "view",
      "type": "function",
      "signature": "0xae99aa3c"
    },
    {
      "constant": false,
      "inputs": [],
      "name": "pause",
      "outputs": [],
      "payable": false,
      "stateMutability": "nonpayable",
      "type": "function",
      "signature": "0x8456cb59"
    },
    {
      "constant": false,
      "inputs": [],
      "name": "unpause",
      "outputs": [],
      "payable": false,
      "stateMutability": "nonpayable",
      "type": "function",
      "signature": "0x3f4ba83a"
    },
    {
      "constant": false,
      "inputs": [
        {
          "name": "_addr",
          "type": "address"
        }
      ],
      "name": "updateELEMAddr",
      "outputs": [],
      "payable": false,
      "stateMutability": "nonpayable",
      "type": "function",
      "signature": "0xffdcc980"
    }
  ],
  "bytecode": "0x6080604052662386f26fc10000600555619c406006556000600760006101000a81548160ff0219169083151502179055506001600760016101000a81548160ff0219169083151502179055503480156200005857600080fd5b5060405160208062003f85833981018060405260208110156200007a57600080fd5b8101908080519060200190929190505050336000806101000a81548173ffffffffffffffffffffffffffffffffffffffff021916908373ffffffffffffffffffffffffffffffffffffffff16021790555060606040519081016040528073b440ea2780614b3c6a00e512f432785e7dfafa3e73ffffffffffffffffffffffffffffffffffffffff1673ffffffffffffffffffffffffffffffffffffffff168152602001734ad56641c569c91c64c28a904cda50ae5326da4173ffffffffffffffffffffffffffffffffffffffff1673ffffffffffffffffffffffffffffffffffffffff16815260200173362ea687b8a372a0235466a097e578d55491d37f73ffffffffffffffffffffffffffffffffffffffff1673ffffffffffffffffffffffffffffffffffffffff168152506001906003620001b992919062000202565b5080600460006101000a81548173ffffffffffffffffffffffffffffffffffffffff021916908373ffffffffffffffffffffffffffffffffffffffff16021790555050620002ca565b826003810192821562000271579160200282015b82811115620002705782518260006101000a81548173ffffffffffffffffffffffffffffffffffffffff021916908373ffffffffffffffffffffffffffffffffffffffff1602179055509160200191906001019062000216565b5b50905062000280919062000284565b5090565b620002c791905b80821115620002c357600081816101000a81549073ffffffffffffffffffffffffffffffffffffffff0219169055506001016200028b565b5090565b90565b613cab80620002da6000396000f3fe6080604052600436106101f5576000357c0100000000000000000000000000000000000000000000000000000000900480638da5cb5b1161011f578063c41a32ec116100b2578063d9ed28b711610081578063d9ed28b714610a8b578063ddca3f4314610b1b578063fe2b5de114610b46578063ffdcc98014610baf576101f5565b8063c41a32ec146108b8578063c449b26214610921578063c6906749146109d5578063c9a6933614610a2e576101f5565b8063a7f70e73116100ee578063a7f70e7314610741578063aba35b72146107aa578063ae99aa3c146107d5578063beb0420414610865576101f5565b80638da5cb5b1461064657806391e842af1461069d5780639b8bb779146106cc578063a48217191461071f576101f5565b806345c05615116101975780637a7d32e5116101665780637a7d32e51461052d5780637c9669ac146105965780638456cb59146105d8578063885869dc146105ef576101f5565b806345c056151461042f578063557d21fc146104465780635c975abb146104815780636823e680146104b0576101f5565b8063329ae6f2116101d3578063329ae6f214610331578063351f9501146103845780633f4ba83a146103b357806343ddfd57146103ca576101f5565b80630d0d80ad146101fa5780630d2da680146102755780632f8c4a59146102de575b600080fd5b34801561020657600080fd5b506102336004803603602081101561021d57600080fd5b8101908080359060200190929190505050610c00565b604051808273ffffffffffffffffffffffffffffffffffffffff1673ffffffffffffffffffffffffffffffffffffffff16815260200191505060405180910390f35b34801561028157600080fd5b506102c46004803603602081101561029857600080fd5b81019080803573ffffffffffffffffffffffffffffffffffffffff169060200190929190505050610c35565b604051808215151515815260200191505060405180910390f35b3480156102ea57600080fd5b506103176004803603602081101561030157600080fd5b8101908080359060200190929190505050610dd0565b604051808215151515815260200191505060405180910390f35b34801561033d57600080fd5b5061036a6004803603602081101561035457600080fd5b8101908080359060200190929190505050610f89565b604051808215151515815260200191505060405180910390f35b34801561039057600080fd5b506103996112f7565b604051808215151515815260200191505060405180910390f35b3480156103bf57600080fd5b506103c861130a565b005b3480156103d657600080fd5b50610419600480360360208110156103ed57600080fd5b81019080803573ffffffffffffffffffffffffffffffffffffffff16906020019092919050505061139d565b6040518082815260200191505060405180910390f35b34801561043b57600080fd5b506104446113e6565b005b34801561045257600080fd5b5061047f6004803603602081101561046957600080fd5b81019080803590602001909291905050506117c9565b005b34801561048d57600080fd5b50610496611b57565b604051808215151515815260200191505060405180910390f35b3480156104bc57600080fd5b50610513600480360360608110156104d357600080fd5b810190808035906020019092919080359060200190929190803573ffffffffffffffffffffffffffffffffffffffff169060200190929190505050611b6a565b604051808215151515815260200191505060405180910390f35b34801561053957600080fd5b5061057c6004803603602081101561055057600080fd5b81019080803573ffffffffffffffffffffffffffffffffffffffff169060200190929190505050611f2e565b604051808215151515815260200191505060405180910390f35b6105c2600480360360208110156105ac57600080fd5b8101908080359060200190929190505050612194565b6040518082815260200191505060405180910390f35b3480156105e457600080fd5b506105ed6123d6565b005b3480156105fb57600080fd5b50610604612547565b604051808273ffffffffffffffffffffffffffffffffffffffff1673ffffffffffffffffffffffffffffffffffffffff16815260200191505060405180910390f35b34801561065257600080fd5b5061065b61256d565b604051808273ffffffffffffffffffffffffffffffffffffffff1673ffffffffffffffffffffffffffffffffffffffff16815260200191505060405180910390f35b3480156106a957600080fd5b506106b2612592565b604051808215151515815260200191505060405180910390f35b3480156106d857600080fd5b50610705600480360360208110156106ef57600080fd5b810190808035906020019092919050505061270b565b604051808215151515815260200191505060405180910390f35b610727612a47565b604051808215151515815260200191505060405180910390f35b34801561074d57600080fd5b506107906004803603602081101561076457600080fd5b81019080803573ffffffffffffffffffffffffffffffffffffffff169060200190929190505050612ef8565b604051808215151515815260200191505060405180910390f35b3480156107b657600080fd5b506107bf613093565b6040518082815260200191505060405180910390f35b3480156107e157600080fd5b5061080e600480360360208110156107f857600080fd5b8101908080359060200190929190505050613099565b604051808573ffffffffffffffffffffffffffffffffffffffff1673ffffffffffffffffffffffffffffffffffffffff16815260200184815260200183815260200182815260200194505050505060405180910390f35b34801561087157600080fd5b5061089e6004803603602081101561088857600080fd5b810190808035906020019092919050505061319c565b604051808215151515815260200191505060405180910390f35b3480156108c457600080fd5b50610907600480360360208110156108db57600080fd5b81019080803573ffffffffffffffffffffffffffffffffffffffff16906020019092919050505061321c565b604051808215151515815260200191505060405180910390f35b34801561092d57600080fd5b5061095a6004803603602081101561094457600080fd5b8101908080359060200190929190505050613473565b6040518080602001828103825283818151815260200191508051906020019080838360005b8381101561099a57808201518184015260208101905061097f565b50505050905090810190601f1680156109c75780820380516001836020036101000a031916815260200191505b509250505060405180910390f35b3480156109e157600080fd5b50610a18600480360360408110156109f857600080fd5b810190808035906020019092919080359060200190929190505050613550565b6040518082815260200191505060405180910390f35b348015610a3a57600080fd5b50610a7160048036036040811015610a5157600080fd5b81019080803590602001909291908035906020019092919050505061366d565b604051808215151515815260200191505060405180910390f35b348015610a9757600080fd5b50610b1960048036036040811015610aae57600080fd5b810190808035906020019092919080359060200190640100000000811115610ad557600080fd5b820183602082011115610ae757600080fd5b80359060200191846001830284011164010000000083111715610b0957600080fd5b90919293919293905050506138a5565b005b348015610b2757600080fd5b50610b30613a72565b6040518082815260200191505060405180910390f35b348015610b5257600080fd5b50610b9560048036036020811015610b6957600080fd5b81019080803573ffffffffffffffffffffffffffffffffffffffff169060200190929190505050613a78565b604051808215151515815260200191505060405180910390f35b348015610bbb57600080fd5b50610bfe60048036036020811015610bd257600080fd5b81019080803573ffffffffffffffffffffffffffffffffffffffff169060200190929190505050613a98565b005b600181600381101515610c0f57fe5b016000915054906101000a900473ffffffffffffffffffffffffffffffffffffffff1681565b600060016000600381101515610c4757fe5b0160009054906101000a900473ffffffffffffffffffffffffffffffffffffffff1673ffffffffffffffffffffffffffffffffffffffff163373ffffffffffffffffffffffffffffffffffffffff161480610cfd5750600180600381101515610cac57fe5b0160009054906101000a900473ffffffffffffffffffffffffffffffffffffffff1673ffffffffffffffffffffffffffffffffffffffff163373ffffffffffffffffffffffffffffffffffffffff16145b80610d64575060016002600381101515610d1357fe5b0160009054906101000a900473ffffffffffffffffffffffffffffffffffffffff1673ffffffffffffffffffffffffffffffffffffffff163373ffffffffffffffffffffffffffffffffffffffff16145b1515610d6f57600080fd5b6001600a60008473ffffffffffffffffffffffffffffffffffffffff1673ffffffffffffffffffffffffffffffffffffffff16815260200190815260200160002060006101000a81548160ff02191690831515021790555060019050919050565b6000436008600084815260200190815260200160002060020154600654600860008681526020019081526020016000206001015401031180610e6e575060016000600381101515610e1d57fe5b0160009054906101000a900473ffffffffffffffffffffffffffffffffffffffff1673ffffffffffffffffffffffffffffffffffffffff163373ffffffffffffffffffffffffffffffffffffffff16145b80610ed45750600180600381101515610e8357fe5b0160009054906101000a900473ffffffffffffffffffffffffffffffffffffffff1673ffffffffffffffffffffffffffffffffffffffff163373ffffffffffffffffffffffffffffffffffffffff16145b80610f3b575060016002600381101515610eea57fe5b0160009054906101000a900473ffffffffffffffffffffffffffffffffffffffff1673ffffffffffffffffffffffffffffffffffffffff163373ffffffffffffffffffffffffffffffffffffffff16145b80610f71575060007f111111111111111111111111111111111111111111111111111111111111111183811515610f6e57fe5b06145b15610f7f5760019050610f84565b600090505b919050565b6000813373ffffffffffffffffffffffffffffffffffffffff16600460009054906101000a900473ffffffffffffffffffffffffffffffffffffffff1673ffffffffffffffffffffffffffffffffffffffff16636352211e836040518263ffffffff167c01000000000000000000000000000000000000000000000000000000000281526004018082815260200191505060206040518083038186803b15801561103257600080fd5b505afa158015611046573d6000803e3d6000fd5b505050506040513d602081101561105c57600080fd5b810190808051906020019092919050505073ffffffffffffffffffffffffffffffffffffffff1614151561108f57600080fd5b823373ffffffffffffffffffffffffffffffffffffffff166008600083815260200190815260200160002060000160009054906101000a900473ffffffffffffffffffffffffffffffffffffffff1673ffffffffffffffffffffffffffffffffffffffff1614801561112e5750600073ffffffffffffffffffffffffffffffffffffffff163373ffffffffffffffffffffffffffffffffffffffff1614155b151561113957600080fd5b6000600860008381526020019081526020016000206001015411151561115e57600080fd5b600760009054906101000a900460ff1615151561117a57600080fd5b436008600086815260200190815260200160002060020154600654600860008881526020019081526020016000206001015401031015156111ba57600080fd5b60a060405190810160405280600073ffffffffffffffffffffffffffffffffffffffff16815260200160008152602001600081526020016000600102815260200160206040519081016040528060008152508152506008600086815260200190815260200160002060008201518160000160006101000a81548173ffffffffffffffffffffffffffffffffffffffff021916908373ffffffffffffffffffffffffffffffffffffffff16021790555060208201518160010155604082015181600201556060820151816003015560808201518160040190805190602001906112a3929190613b37565b509050506000600960003373ffffffffffffffffffffffffffffffffffffffff1673ffffffffffffffffffffffffffffffffffffffff16815260200190815260200160002081905550600192505050919050565b600760019054906101000a900460ff1681565b6000809054906101000a900473ffffffffffffffffffffffffffffffffffffffff1673ffffffffffffffffffffffffffffffffffffffff163373ffffffffffffffffffffffffffffffffffffffff1614151561136557600080fd5b600760009054906101000a900460ff16151561138057600080fd5b6000600760006101000a81548160ff021916908315150217905550565b6000600960008373ffffffffffffffffffffffffffffffffffffffff1673ffffffffffffffffffffffffffffffffffffffff168152602001908152602001600020549050919050565b6000809054906101000a900473ffffffffffffffffffffffffffffffffffffffff1673ffffffffffffffffffffffffffffffffffffffff163373ffffffffffffffffffffffffffffffffffffffff1614151561144157600080fd5b611449613bb7565b6060604051908101604052807f111111111111111111111111111111111111111111111111111111111111111181526020017f222222222222222222222222222222222222222222222222222222222222222281526020017f3333333333333333333333333333333333333333333333333333333333333333815250905060008090505b60038110156117c5576000600460009054906101000a900473ffffffffffffffffffffffffffffffffffffffff1673ffffffffffffffffffffffffffffffffffffffff166370a0823160018460038110151561152557fe5b0160009054906101000a900473ffffffffffffffffffffffffffffffffffffffff166040518263ffffffff167c0100000000000000000000000000000000000000000000000000000000028152600401808273ffffffffffffffffffffffffffffffffffffffff1673ffffffffffffffffffffffffffffffffffffffff16815260200191505060206040518083038186803b1580156115c357600080fd5b505afa1580156115d7573d6000803e3d6000fd5b505050506040513d60208110156115ed57600080fd5b810190808051906020019092919050505014156117b85760a06040519081016040528060018360038110151561161f57fe5b0160009054906101000a900473ffffffffffffffffffffffffffffffffffffffff1673ffffffffffffffffffffffffffffffffffffffff1681526020014381526020016000815260200160006001028152602001602060405190810160405280600081525081525060086000848460038110151561169957fe5b6020020151815260200190815260200160002060008201518160000160006101000a81548173ffffffffffffffffffffffffffffffffffffffff021916908373ffffffffffffffffffffffffffffffffffffffff160217905550602082015181600101556040820151816002015560608201518160030155608082015181600401908051906020019061172d929190613b37565b50905050818160038110151561173f57fe5b60200201516009600060018460038110151561175757fe5b0160009054906101000a900473ffffffffffffffffffffffffffffffffffffffff1673ffffffffffffffffffffffffffffffffffffffff1673ffffffffffffffffffffffffffffffffffffffff168152602001908152602001600020819055505b80806001019150506114cd565b5050565b600160006003811015156117d957fe5b0160009054906101000a900473ffffffffffffffffffffffffffffffffffffffff1673ffffffffffffffffffffffffffffffffffffffff163373ffffffffffffffffffffffffffffffffffffffff16148061188f575060018060038110151561183e57fe5b0160009054906101000a900473ffffffffffffffffffffffffffffffffffffffff1673ffffffffffffffffffffffffffffffffffffffff163373ffffffffffffffffffffffffffffffffffffffff16145b806118f65750600160026003811015156118a557fe5b0160009054906101000a900473ffffffffffffffffffffffffffffffffffffffff1673ffffffffffffffffffffffffffffffffffffffff163373ffffffffffffffffffffffffffffffffffffffff16145b151561190157600080fd5b803373ffffffffffffffffffffffffffffffffffffffff16600460009054906101000a900473ffffffffffffffffffffffffffffffffffffffff1673ffffffffffffffffffffffffffffffffffffffff16636352211e836040518263ffffffff167c01000000000000000000000000000000000000000000000000000000000281526004018082815260200191505060206040518083038186803b1580156119a857600080fd5b505afa1580156119bc573d6000803e3d6000fd5b505050506040513d60208110156119d257600080fd5b810190808051906020019092919050505073ffffffffffffffffffffffffffffffffffffffff16141515611a0557600080fd5b8160007f111111111111111111111111111111111111111111111111111111111111111182811515611a3357fe5b0614151515611a4157600080fd5b600460009054906101000a900473ffffffffffffffffffffffffffffffffffffffff1673ffffffffffffffffffffffffffffffffffffffff166323b872dd3330866040518463ffffffff167c0100000000000000000000000000000000000000000000000000000000028152600401808473ffffffffffffffffffffffffffffffffffffffff1673ffffffffffffffffffffffffffffffffffffffff1681526020018373ffffffffffffffffffffffffffffffffffffffff1673ffffffffffffffffffffffffffffffffffffffff1681526020018281526020019350505050600060405180830381600087803b158015611b3a57600080fd5b505af1158015611b4e573d6000803e3d6000fd5b50505050505050565b600760009054906101000a900460ff1681565b6000823373ffffffffffffffffffffffffffffffffffffffff166008600083815260200190815260200160002060000160009054906101000a900473ffffffffffffffffffffffffffffffffffffffff1673ffffffffffffffffffffffffffffffffffffffff16148015611c0b5750600073ffffffffffffffffffffffffffffffffffffffff163373ffffffffffffffffffffffffffffffffffffffff1614155b1515611c1657600080fd5b60006008600083815260200190815260200160002060010154111515611c3b57600080fd5b833373ffffffffffffffffffffffffffffffffffffffff16600460009054906101000a900473ffffffffffffffffffffffffffffffffffffffff1673ffffffffffffffffffffffffffffffffffffffff16636352211e836040518263ffffffff167c01000000000000000000000000000000000000000000000000000000000281526004018082815260200191505060206040518083038186803b158015611ce257600080fd5b505afa158015611cf6573d6000803e3d6000fd5b505050506040513d6020811015611d0c57600080fd5b810190808051906020019092919050505073ffffffffffffffffffffffffffffffffffffffff16141515611d3f57600080fd5b600760009054906101000a900460ff16151515611d5b57600080fd5b60011515600760019054906101000a900460ff161515141515611d7d57600080fd5b60006008600088815260200190815260200160002060010154148015611e055750600073ffffffffffffffffffffffffffffffffffffffff166008600088815260200190815260200160002060000160009054906101000a900473ffffffffffffffffffffffffffffffffffffffff1673ffffffffffffffffffffffffffffffffffffffff16145b1515611e1057600080fd5b600460009054906101000a900473ffffffffffffffffffffffffffffffffffffffff1673ffffffffffffffffffffffffffffffffffffffff166323b872dd3386896040518463ffffffff167c0100000000000000000000000000000000000000000000000000000000028152600401808473ffffffffffffffffffffffffffffffffffffffff1673ffffffffffffffffffffffffffffffffffffffff1681526020018373ffffffffffffffffffffffffffffffffffffffff1673ffffffffffffffffffffffffffffffffffffffff1681526020018281526020019350505050600060405180830381600087803b158015611f0957600080fd5b505af1158015611f1d573d6000803e3d6000fd5b505050506001925050509392505050565b60008073ffffffffffffffffffffffffffffffffffffffff168273ffffffffffffffffffffffffffffffffffffffff1614151515611f6b57600080fd5b6000600960008473ffffffffffffffffffffffffffffffffffffffff1673ffffffffffffffffffffffffffffffffffffffff16815260200190815260200160002054905060016000600381101515611fbf57fe5b0160009054906101000a900473ffffffffffffffffffffffffffffffffffffffff1673ffffffffffffffffffffffffffffffffffffffff163373ffffffffffffffffffffffffffffffffffffffff161480612075575060018060038110151561202457fe5b0160009054906101000a900473ffffffffffffffffffffffffffffffffffffffff1673ffffffffffffffffffffffffffffffffffffffff163373ffffffffffffffffffffffffffffffffffffffff16145b806120dc57506001600260038110151561208b57fe5b0160009054906101000a900473ffffffffffffffffffffffffffffffffffffffff1673ffffffffffffffffffffffffffffffffffffffff163373ffffffffffffffffffffffffffffffffffffffff16145b156120eb57600191505061218f565b60008114158015612127575060007f11111111111111111111111111111111111111111111111111111111111111118281151561212457fe5b06145b1561213657600191505061218f565b6000600960008573ffffffffffffffffffffffffffffffffffffffff1673ffffffffffffffffffffffffffffffffffffffff1681526020019081526020016000205414151561218957600191505061218f565b60009150505b919050565b6000813373ffffffffffffffffffffffffffffffffffffffff166008600083815260200190815260200160002060000160009054906101000a900473ffffffffffffffffffffffffffffffffffffffff1673ffffffffffffffffffffffffffffffffffffffff161480156122355750600073ffffffffffffffffffffffffffffffffffffffff163373ffffffffffffffffffffffffffffffffffffffff1614155b151561224057600080fd5b6000600860008381526020019081526020016000206001015411151561226557600080fd5b823373ffffffffffffffffffffffffffffffffffffffff16600460009054906101000a900473ffffffffffffffffffffffffffffffffffffffff1673ffffffffffffffffffffffffffffffffffffffff16636352211e836040518263ffffffff167c01000000000000000000000000000000000000000000000000000000000281526004018082815260200191505060206040518083038186803b15801561230c57600080fd5b505afa158015612320573d6000803e3d6000fd5b505050506040513d602081101561233657600080fd5b810190808051906020019092919050505073ffffffffffffffffffffffffffffffffffffffff1614151561236957600080fd5b600760009054906101000a900460ff1615151561238557600080fd5b61271060065460086000878152602001908152602001600020600101540103431115156123b157600080fd5b4360086000868152602001908152602001600020600101819055504392505050919050565b600160006003811015156123e657fe5b0160009054906101000a900473ffffffffffffffffffffffffffffffffffffffff1673ffffffffffffffffffffffffffffffffffffffff163373ffffffffffffffffffffffffffffffffffffffff16148061249c575060018060038110151561244b57fe5b0160009054906101000a900473ffffffffffffffffffffffffffffffffffffffff1673ffffffffffffffffffffffffffffffffffffffff163373ffffffffffffffffffffffffffffffffffffffff16145b806125035750600160026003811015156124b257fe5b0160009054906101000a900473ffffffffffffffffffffffffffffffffffffffff1673ffffffffffffffffffffffffffffffffffffffff163373ffffffffffffffffffffffffffffffffffffffff16145b151561250e57600080fd5b600760009054906101000a900460ff1615151561252a57600080fd5b6001600760006101000a81548160ff021916908315150217905550565b600460009054906101000a900473ffffffffffffffffffffffffffffffffffffffff1681565b6000809054906101000a900473ffffffffffffffffffffffffffffffffffffffff1681565b6000600160006003811015156125a457fe5b0160009054906101000a900473ffffffffffffffffffffffffffffffffffffffff1673ffffffffffffffffffffffffffffffffffffffff163373ffffffffffffffffffffffffffffffffffffffff16148061265a575060018060038110151561260957fe5b0160009054906101000a900473ffffffffffffffffffffffffffffffffffffffff1673ffffffffffffffffffffffffffffffffffffffff163373ffffffffffffffffffffffffffffffffffffffff16145b806126c157506001600260038110151561267057fe5b0160009054906101000a900473ffffffffffffffffffffffffffffffffffffffff1673ffffffffffffffffffffffffffffffffffffffff163373ffffffffffffffffffffffffffffffffffffffff16145b15156126cc57600080fd5b600760019054906101000a900460ff1615600760016101000a81548160ff021916908315150217905550600760019054906101000a900460ff16905090565b6000813373ffffffffffffffffffffffffffffffffffffffff16600460009054906101000a900473ffffffffffffffffffffffffffffffffffffffff1673ffffffffffffffffffffffffffffffffffffffff16636352211e836040518263ffffffff167c01000000000000000000000000000000000000000000000000000000000281526004018082815260200191505060206040518083038186803b1580156127b457600080fd5b505afa1580156127c8573d6000803e3d6000fd5b505050506040513d60208110156127de57600080fd5b810190808051906020019092919050505073ffffffffffffffffffffffffffffffffffffffff1614151561281157600080fd5b600760009054906101000a900460ff1615151561282d57600080fd5b600060086000858152602001908152602001600020600101541480156128b55750600073ffffffffffffffffffffffffffffffffffffffff166008600085815260200190815260200160002060000160009054906101000a900473ffffffffffffffffffffffffffffffffffffffff1673ffffffffffffffffffffffffffffffffffffffff16145b15156128c057600080fd5b6000600960003373ffffffffffffffffffffffffffffffffffffffff1673ffffffffffffffffffffffffffffffffffffffff1681526020019081526020016000205414151561290e57600080fd5b60a0604051908101604052803373ffffffffffffffffffffffffffffffffffffffff168152602001438152602001600081526020016000600102815260200160206040519081016040528060008152508152506008600085815260200190815260200160002060008201518160000160006101000a81548173ffffffffffffffffffffffffffffffffffffffff021916908373ffffffffffffffffffffffffffffffffffffffff16021790555060208201518160010155604082015181600201556060820151816003015560808201518160040190805190602001906129f5929190613b37565b5090505082600960003373ffffffffffffffffffffffffffffffffffffffff1673ffffffffffffffffffffffffffffffffffffffff168152602001908152602001600020819055506001915050919050565b60006005543410151515612a5a57600080fd5b60011515600760019054906101000a900460ff161515141515612a7c57600080fd5b6000600460009054906101000a900473ffffffffffffffffffffffffffffffffffffffff1673ffffffffffffffffffffffffffffffffffffffff16632f745c593060006040518363ffffffff167c0100000000000000000000000000000000000000000000000000000000028152600401808373ffffffffffffffffffffffffffffffffffffffff1673ffffffffffffffffffffffffffffffffffffffff1681526020018281526020019250505060206040518083038186803b158015612b4257600080fd5b505afa158015612b56573d6000803e3d6000fd5b505050506040513d6020811015612b6c57600080fd5b810190808051906020019092919050505014151515612b8a57600080fd5b6000600460009054906101000a900473ffffffffffffffffffffffffffffffffffffffff1673ffffffffffffffffffffffffffffffffffffffff166370a08231336040518263ffffffff167c0100000000000000000000000000000000000000000000000000000000028152600401808273ffffffffffffffffffffffffffffffffffffffff1673ffffffffffffffffffffffffffffffffffffffff16815260200191505060206040518083038186803b158015612c4757600080fd5b505afa158015612c5b573d6000803e3d6000fd5b505050506040513d6020811015612c7157600080fd5b8101908080519060200190929190505050141515612c8e57600080fd5b6000600960003373ffffffffffffffffffffffffffffffffffffffff1673ffffffffffffffffffffffffffffffffffffffff16815260200190815260200160002054141515612cdc57600080fd5b6000600460009054906101000a900473ffffffffffffffffffffffffffffffffffffffff1673ffffffffffffffffffffffffffffffffffffffff16632f745c593060006040518363ffffffff167c0100000000000000000000000000000000000000000000000000000000028152600401808373ffffffffffffffffffffffffffffffffffffffff1673ffffffffffffffffffffffffffffffffffffffff1681526020018281526020019250505060206040518083038186803b158015612da257600080fd5b505afa158015612db6573d6000803e3d6000fd5b505050506040513d6020811015612dcc57600080fd5b81019080805190602001909291905050509050600460009054906101000a900473ffffffffffffffffffffffffffffffffffffffff1673ffffffffffffffffffffffffffffffffffffffff166323b872dd3033846040518463ffffffff167c0100000000000000000000000000000000000000000000000000000000028152600401808473ffffffffffffffffffffffffffffffffffffffff1673ffffffffffffffffffffffffffffffffffffffff1681526020018373ffffffffffffffffffffffffffffffffffffffff1673ffffffffffffffffffffffffffffffffffffffff1681526020018281526020019350505050600060405180830381600087803b158015612ed857600080fd5b505af1158015612eec573d6000803e3d6000fd5b50505050600191505090565b600060016000600381101515612f0a57fe5b0160009054906101000a900473ffffffffffffffffffffffffffffffffffffffff1673ffffffffffffffffffffffffffffffffffffffff163373ffffffffffffffffffffffffffffffffffffffff161480612fc05750600180600381101515612f6f57fe5b0160009054906101000a900473ffffffffffffffffffffffffffffffffffffffff1673ffffffffffffffffffffffffffffffffffffffff163373ffffffffffffffffffffffffffffffffffffffff16145b80613027575060016002600381101515612fd657fe5b0160009054906101000a900473ffffffffffffffffffffffffffffffffffffffff1673ffffffffffffffffffffffffffffffffffffffff163373ffffffffffffffffffffffffffffffffffffffff16145b151561303257600080fd5b6000600a60008473ffffffffffffffffffffffffffffffffffffffff1673ffffffffffffffffffffffffffffffffffffffff16815260200190815260200160002060006101000a81548160ff02191690831515021790555060019050919050565b60065481565b600080600080600073ffffffffffffffffffffffffffffffffffffffff166008600087815260200190815260200160002060000160009054906101000a900473ffffffffffffffffffffffffffffffffffffffff1673ffffffffffffffffffffffffffffffffffffffff161415151561311157600080fd5b6008600086815260200190815260200160002060000160009054906101000a900473ffffffffffffffffffffffffffffffffffffffff1660086000878152602001908152602001600020600101546008600088815260200190815260200160002060020154600860008981526020019081526020016000206003015493509350935093509193509193565b60008073ffffffffffffffffffffffffffffffffffffffff166008600084815260200190815260200160002060000160009054906101000a900473ffffffffffffffffffffffffffffffffffffffff1673ffffffffffffffffffffffffffffffffffffffff161415156132125760019050613217565b600090505b919050565b60008073ffffffffffffffffffffffffffffffffffffffff168273ffffffffffffffffffffffffffffffffffffffff161415151561325957600080fd5b6000600960008473ffffffffffffffffffffffffffffffffffffffff1673ffffffffffffffffffffffffffffffffffffffff168152602001908152602001600020549050600160006003811015156132ad57fe5b0160009054906101000a900473ffffffffffffffffffffffffffffffffffffffff1673ffffffffffffffffffffffffffffffffffffffff163373ffffffffffffffffffffffffffffffffffffffff161480613363575060018060038110151561331257fe5b0160009054906101000a900473ffffffffffffffffffffffffffffffffffffffff1673ffffffffffffffffffffffffffffffffffffffff163373ffffffffffffffffffffffffffffffffffffffff16145b806133ca57506001600260038110151561337957fe5b0160009054906101000a900473ffffffffffffffffffffffffffffffffffffffff1673ffffffffffffffffffffffffffffffffffffffff163373ffffffffffffffffffffffffffffffffffffffff16145b156133d957600191505061346e565b60008114158015613415575060007f11111111111111111111111111111111111111111111111111111111111111118281151561341257fe5b06145b1561342457600191505061346e565b43600860008381526020019081526020016000206002015460065460086000858152602001908152602001600020600101540103111561346857600191505061346e565b60009150505b919050565b60606000600860008481526020019081526020016000206001015411151561349a57600080fd5b600860008381526020019081526020016000206004018054600181600116156101000203166002900480601f0160208091040260200160405190810160405280929190818152602001828054600181600116156101000203166002900480156135445780601f1061351957610100808354040283529160200191613544565b820191906000526020600020905b81548152906001019060200180831161352757829003601f168201915b50505050509050919050565b600060011515600a60003373ffffffffffffffffffffffffffffffffffffffff1673ffffffffffffffffffffffffffffffffffffffff16815260200190815260200160002060009054906101000a900460ff1615151415156135b157600080fd5b600060086000858152602001908152602001600020600101541115156135d657600080fd5b600654821015156135e657600080fd5b438260086000868152602001908152602001600020600201540111156136295760014303600860008581526020019081526020016000206002018190555061364e565b8160086000858152602001908152602001600020600201600082825401925050819055505b6008600084815260200190815260200160002060020154905092915050565b600082600081141580156137e057506001600060038110151561368c57fe5b0160009054906101000a900473ffffffffffffffffffffffffffffffffffffffff1673ffffffffffffffffffffffffffffffffffffffff163373ffffffffffffffffffffffffffffffffffffffff16148061374257506001806003811015156136f157fe5b0160009054906101000a900473ffffffffffffffffffffffffffffffffffffffff1673ffffffffffffffffffffffffffffffffffffffff163373ffffffffffffffffffffffffffffffffffffffff16145b806137a957506001600260038110151561375857fe5b0160009054906101000a900473ffffffffffffffffffffffffffffffffffffffff1673ffffffffffffffffffffffffffffffffffffffff163373ffffffffffffffffffffffffffffffffffffffff16145b806137df575060007f1111111111111111111111111111111111111111111111111111111111111111828115156137dc57fe5b06145b5b15156137eb57600080fd5b600060086000868152602001908152602001600020600101541180156138745750600073ffffffffffffffffffffffffffffffffffffffff166008600086815260200190815260200160002060000160009054906101000a900473ffffffffffffffffffffffffffffffffffffffff1673ffffffffffffffffffffffffffffffffffffffff1614155b151561387f57600080fd5b826008600086815260200190815260200160002060030181905550600191505092915050565b8260008114158015613a165750600160006003811015156138c257fe5b0160009054906101000a900473ffffffffffffffffffffffffffffffffffffffff1673ffffffffffffffffffffffffffffffffffffffff163373ffffffffffffffffffffffffffffffffffffffff161480613978575060018060038110151561392757fe5b0160009054906101000a900473ffffffffffffffffffffffffffffffffffffffff1673ffffffffffffffffffffffffffffffffffffffff163373ffffffffffffffffffffffffffffffffffffffff16145b806139df57506001600260038110151561398e57fe5b0160009054906101000a900473ffffffffffffffffffffffffffffffffffffffff1673ffffffffffffffffffffffffffffffffffffffff163373ffffffffffffffffffffffffffffffffffffffff16145b80613a15575060007f111111111111111111111111111111111111111111111111111111111111111182811515613a1257fe5b06145b5b1515613a2157600080fd5b60006008600086815260200190815260200160002060010154111515613a4657600080fd5b8282600860008781526020019081526020016000206004019190613a6b929190613bda565b5050505050565b60055481565b600a6020528060005260406000206000915054906101000a900460ff1681565b6000809054906101000a900473ffffffffffffffffffffffffffffffffffffffff1673ffffffffffffffffffffffffffffffffffffffff163373ffffffffffffffffffffffffffffffffffffffff16141515613af357600080fd5b80600460006101000a81548173ffffffffffffffffffffffffffffffffffffffff021916908373ffffffffffffffffffffffffffffffffffffffff16021790555050565b828054600181600116156101000203166002900490600052602060002090601f016020900481019282601f10613b7857805160ff1916838001178555613ba6565b82800160010185558215613ba6579182015b82811115613ba5578251825591602001919060010190613b8a565b5b509050613bb39190613c5a565b5090565b606060405190810160405280600390602082028038833980820191505090505090565b828054600181600116156101000203166002900490600052602060002090601f016020900481019282601f10613c1b57803560ff1916838001178555613c49565b82800160010185558215613c49579182015b82811115613c48578235825591602001919060010190613c2d565b5b509050613c569190613c5a565b5090565b613c7c91905b80821115613c78576000816000905550600101613c60565b5090565b9056fea165627a7a723058201f782971b66ebd92a5c04d40218549966b12f729c30c4b2ce0a18399c07c1e830029",
  "source": "pragma solidity ^0.5.2;\n\n// import \"./RNTInterface.sol\";\nimport \"./ELEMInterface.sol\";\n\n\ncontract MemberShip {\n    address public owner;\n    address[3] public coreManager;\n    address public ELEMAddr;\n    uint public fee = 10000000000000000;\n    uint public memberPeriod = 40000;  // 40000 blocks ~ a week in rinkeby, for test only\n    bool public paused = false;\n    bool public canTradeToken = true;  // before \"trade\" implementation\n\n    struct MemberInfo {\n        address addr;\n        uint since;  // beginning blockNo of previous membership\n        // addPenalty() make sure \"penalty\" is always less than block.number\n        uint penalty;  // the membership is valid until: since + memberPeriod - penalty;\n        bytes32 kycid;  // know your customer id, leave it for future\n        string notes;\n    }\n\n    mapping (uint => MemberInfo) internal memberDB;  // NFT to MemberInfo\n    mapping (address => uint) internal addressToId;  // address to membership\n\n    mapping (address => bool) public appWhitelist;\n\n    constructor(address _ELEMAddr) public {\n        owner = msg.sender;\n        coreManager = [0xB440ea2780614b3c6a00e512f432785E7dfAFA3E,\n                        0x4AD56641C569C91C64C28a904cda50AE5326Da41,\n                        0x362ea687b8a372a0235466a097e578d55491d37f];\n        ELEMAddr = _ELEMAddr;\n        // RNTAddr  = _RNTAddr;\n        // allocate membership in migration file\n    }\n\n    modifier ownerOnly() {\n        require(msg.sender == owner);\n        _;\n    }\n\n    modifier coreManagerOnly() {\n        require(msg.sender == coreManager[0] || msg.sender == coreManager[1] || msg.sender == coreManager[2]);\n        _;\n    }\n\n    modifier managerOnly(uint _tokenId) {\n        require(_tokenId != 0 && (msg.sender == coreManager[0] || msg.sender == coreManager[1] || msg.sender == coreManager[2]\n                || _tokenId % 7719472615821079694904732333912527190217998977709370935963838933860875309329 == 0));\n        // uint256(0x1111111111111111111111111111111111111111111111111111111111111111 = 7.71947....e72\n        _;\n    }\n\n    modifier feePaid() {\n        require(msg.value >= fee);  // or \"==\"?\n        _;\n    }\n\n    modifier isMember(uint _tokenId) {\n        require(memberDB[_tokenId].addr == msg.sender && msg.sender != address(0));\n        require(memberDB[_tokenId].since > 0);\n        // require(addressToId[msg.sender] == _tokenId);\n        _;\n    }\n\n    modifier isActiveMember(uint _tokenId) {\n        require(memberDB[_tokenId].addr == msg.sender && msg.sender != address(0));\n        require(memberDB[_tokenId].since + memberPeriod - memberDB[_tokenId].penalty > block.number\n                || msg.sender == coreManager[0] || msg.sender == coreManager[1] || msg.sender == coreManager[2]\n                || _tokenId % 7719472615821079694904732333912527190217998977709370935963838933860875309329 == 0);\n        // require(_tokenId != 0);  // already excluded by first condition\n        // is it possible that penalty >= since or block.number?\n        _;\n    }\n\n    modifier isNFTOwner(uint _tokenId) {\n        require(iELEM(ELEMAddr).ownerOf(_tokenId) == msg.sender);\n        _;\n    }\n\n    modifier validNFT(uint256 _tokenId) {\n        require(iELEM(ELEMAddr).ownerOf(_tokenId) != address(0));\n        _;\n    }\n\n    // modifier isSynced(uint _tokenId){ // where/when to use it? What if somethings' wrong?\n    //     require(ERC721(ELEMAddr).idToOwner[_tokenId] == memberDB[_tokenId].addr);\n    // }\n\n    modifier isNotSpecialToken(uint _tokenId) {\n        // require(_tokenId > uint256(0x0000ffffffffffffffffffffffffffffffffffffffffffffffffffffffffffff));\n        // require(_tokenId > 1766847064778384329583297500742918515827483896875618958121606201292619775);\n        // require(_tokenId % uint256(0x1111111111111111111111111111111111111111111111111111111111111111 != 0));\n        require(_tokenId % 7719472615821079694904732333912527190217998977709370935963838933860875309329 != 0);\n        _;\n    }\n\n    modifier isNotManagerToken(uint _tokenId) {\n        // require(_tokenId % uint256(0x1111111111111111111111111111111111111111111111111111111111111111 != 0));\n        require(_tokenId % 7719472615821079694904732333912527190217998977709370935963838933860875309329 != 0);\n        _;\n    }\n\n    modifier whenNotPaused() {\n        require(!paused);\n        _;\n    }\n\n    modifier whenPaused {\n        require(paused);\n        _;\n    }\n\n    function allocateCoreManagers() public ownerOnly {\n        // core members already allocate NFTs:\n        //      uint(0x1111111111111111111111111111111111111111111111111111111111111111)\n        //      uint(0x2222222222222222222222222222222222222222222222222222222222222222)\n        //      uint(0x3333333333333333333333333333333333333333333333333333333333333333)\n\n        uint[3] memory _tickets = [ uint(0x1111111111111111111111111111111111111111111111111111111111111111),\n                                    uint(0x2222222222222222222222222222222222222222222222222222222222222222),\n                                    uint(0x3333333333333333333333333333333333333333333333333333333333333333)];\n        // This contract may be updated while the token contract is not;\n        // assume coreManager never transfer their first token (the _tickets)\n        for (uint i=0; i<3; i++){\n            if (iELEM(ELEMAddr).balanceOf(coreManager[i]) == 0) {\n                memberDB[_tickets[i]] = MemberInfo(coreManager[i], block.number, 0, bytes32(0), \"\");\n                addressToId[coreManager[i]] = _tickets[i];\n            }\n        }\n    }\n\n    // use \"putNFTForSale()\", \"canTradeToken=true\", \"buyToken\", and \"transferToken\" before the \"trading\"\n    // contract and the corresponding state channel are implemented\n    function putNFTForSale(uint _tokenId) public coreManagerOnly isNFTOwner(_tokenId) isNotSpecialToken(_tokenId) {\n        iELEM(ELEMAddr).transferFrom(msg.sender, address(this), _tokenId);\n    }\n\n    function tradeTokenToggle() public coreManagerOnly returns (bool) {\n        canTradeToken = !canTradeToken;\n        return canTradeToken;\n    }\n\n    function buyToken() public payable feePaid returns (bool) {\n        require(canTradeToken == true);\n        require(iELEM(ELEMAddr).tokenOfOwnerByIndex(address(this), 0) != 0);  // there are NFT for sale\n        require(iELEM(ELEMAddr).balanceOf(msg.sender) == 0);  // buyer has no NFT\n        require(addressToId[msg.sender] == 0);  // buyer is not a member\n        uint _tokenId = iELEM(ELEMAddr).tokenOfOwnerByIndex(address(this), 0);\n        iELEM(ELEMAddr).transferFrom(address(this), msg.sender, _tokenId);\n        return true;\n    }\n\n    function transferToken(\n        uint _tokenToTransfer,\n        uint _tokenId,\n        address _receiver\n    ) public isMember(_tokenId) isNFTOwner(_tokenId) whenNotPaused returns (bool) {\n        require(canTradeToken == true);\n        require(memberDB[_tokenToTransfer].since == 0 && memberDB[_tokenToTransfer].addr == address(0));\n        // comment below 2 lines for debug purpose\n        // require(iELEM(ELEMAddr).balanceOf(_receiver) == 0);  // receiver has no NFT\n        // require(addressToId[_receiver] == 0);  // receiver is not a member\n        iELEM(ELEMAddr).transferFrom(msg.sender, _receiver, _tokenToTransfer);\n        return true;\n    }\n\n    // membership\n    function bindMembership(uint _tokenId) public isNFTOwner(_tokenId) whenNotPaused returns (bool) {\n        require(memberDB[_tokenId].since == 0 && memberDB[_tokenId].addr == address(0));\n        require(addressToId[msg.sender] == 0);  // the address is not yet bind to any NFT id\n        // note: for now, if one obtain and bind a special token, then he or she become a \"manager\",\n        //       i.e., always a active member, can write kycid/notes of other member and so on\n        // note: coreManager are always activeMember, whether bind or not\n        memberDB[_tokenId] = MemberInfo(msg.sender, block.number, 0, bytes32(0), \"\");\n        addressToId[msg.sender] = _tokenId;\n        return true;\n    }\n\n    function unbindMembership(uint _tokenId) public isNFTOwner(_tokenId) isMember(_tokenId) whenNotPaused returns (bool) {\n        // active member cannot unbind and thus cannot trasnfer membership/Token\n        require(memberDB[_tokenId].since + memberPeriod - memberDB[_tokenId].penalty < block.number);\n        memberDB[_tokenId] = MemberInfo(address(0), 0, 0, bytes32(0), \"\");\n        addressToId[msg.sender] = 0;\n        return true;\n    }\n\n    function renewMembership(uint _tokenId) public payable isMember(_tokenId) isNFTOwner(_tokenId) whenNotPaused returns (uint) {\n        require(block.number > memberDB[_tokenId].since + memberPeriod - 10000); // 10000 rinkeby blocks ~1.7 days\n        memberDB[_tokenId].since = block.number;\n        return block.number;\n    }\n\n    function assginKYCid(uint _tokenId, bytes32 _kycid) external managerOnly(_tokenId) returns (bool) {\n        // instead of \"managerOnly\", probably add another group to do that\n        require(memberDB[_tokenId].since > 0 && memberDB[_tokenId].addr != address(0));\n        memberDB[_tokenId].kycid = _kycid;\n        return true;\n    }\n\n    function addWhitelistApps(address _addr) public coreManagerOnly returns (bool) {\n        appWhitelist[_addr] = true;\n        return true;\n    }\n\n    function rmWhitelistApps(address _addr) public coreManagerOnly returns (bool) {\n        appWhitelist[_addr] = false;\n        return true;\n    }\n\n    function addPenalty(uint _tokenId, uint _penalty) external returns (uint) {\n        require(appWhitelist[msg.sender] == true);  // the msg.sender (usually a contract) is in appWhitelist\n        require(memberDB[_tokenId].since > 0);  // is a member\n        require(_penalty < memberPeriod);  // prevent too much penalty\n\n        // extreme case which is unlike to happen\n        if (memberDB[_tokenId].penalty + _penalty > block.number) {\n            memberDB[_tokenId].penalty = block.number - 1;  // if 0 then not a member\n        } else {\n            memberDB[_tokenId].penalty += _penalty;\n        }\n        return memberDB[_tokenId].penalty;\n    }\n\n    function readNotes(uint _tokenId) external view returns (string memory) {\n        require(memberDB[_tokenId].since > 0);\n        return memberDB[_tokenId].notes;\n    }\n\n    function addNotes(uint _tokenId, string calldata _notes) external managerOnly(_tokenId) {\n        require(memberDB[_tokenId].since > 0);\n        memberDB[_tokenId].notes = _notes;\n    }\n\n    // function membershipGiveaway(address _addr, uint _tokenId) public coreManagerOnly(_tokenId) isNFTOwner(_tokenId) returns (bool){\n    //     // assume the token is valid and owned by manager\n    //     require(memberDB[_tokenId].addr == address(0));  // no one use the token as member\n    //     require(addressToId[_addr] == 0);  // the addr is not yet a member\n    //     // require ...\n    //     memberDB[_tokenId] = MemberInfo(_addr, block.number, 0, bytes32(0), '');\n    //     addressToId[_addr] = _tokenId;\n    //     string memory uri = '';\n    //     require(iELEM(ELEMAddr).mint(_addr, _tokenId, uri) == true);\n    //     return true;\n    // }\n\n    // some query functions\n    function addrIsMember(address _addr) public view returns (bool) {\n        require(_addr != address(0));\n        uint _tokenId = addressToId[_addr];\n        if (msg.sender == coreManager[0] || msg.sender == coreManager[1] || msg.sender == coreManager[2]){\n            return true;  // core managers\n        } else if (_tokenId != 0 && (_tokenId % 7719472615821079694904732333912527190217998977709370935963838933860875309329 == 0)) {\n            return true;  // other managers\n        } else if (addressToId[_addr] != 0) {\n            return true;\n        } else {\n            return false;\n        }\n    }\n\n    function addrIsActiveMember(address _addr) public view returns (bool) {\n        require(_addr != address(0));\n        uint _tokenId = addressToId[_addr];\n        if (msg.sender == coreManager[0] || msg.sender == coreManager[1] || msg.sender == coreManager[2]){\n            return true;  // core managers\n        } else if (_tokenId != 0 && (_tokenId % 7719472615821079694904732333912527190217998977709370935963838933860875309329 == 0)) {\n            return true;  // other managers\n        } else if (memberDB[_tokenId].since + memberPeriod - memberDB[_tokenId].penalty > block.number) {\n            return true;  // not yet expire\n        } else {\n            return false;\n        }\n    }\n\n    function tokenIsMember(uint _tokenId) public view returns (bool) {\n        if (memberDB[_tokenId].addr != address(0)) {\n            return true;\n        } else {\n            return false;\n        }\n    }\n\n    function tokenIsActiveMember(uint _tokenId) public view returns (bool) {\n        if (memberDB[_tokenId].since + memberPeriod - memberDB[_tokenId].penalty > block.number\n            || msg.sender == coreManager[0] || msg.sender == coreManager[1] || msg.sender == coreManager[2]\n            || _tokenId % 7719472615821079694904732333912527190217998977709370935963838933860875309329 == 0)\n        {\n            return true;\n        } else {\n            return false;\n        }\n    }\n\n    function addrToTokenId(address _addr) external view returns (uint) {\n        return addressToId[_addr];\n    }\n\n    function getMemberInfo(uint _tokenId) external view returns (address, uint, uint, bytes32) {\n        require(memberDB[_tokenId].addr != address(0));\n        return (memberDB[_tokenId].addr, memberDB[_tokenId].since, memberDB[_tokenId].penalty, memberDB[_tokenId].kycid);\n    }\n\n    // upgradable\n    function pause() external coreManagerOnly whenNotPaused {\n        paused = true;\n    }\n\n    function unpause() public ownerOnly whenPaused {\n        // set to ownerOnly in case accounts of other managers are compromised\n        paused = false;\n    }\n\n    function updateELEMAddr(address _addr) external ownerOnly {\n        //require(ELEMAddr == address(0)); // comment to allow this to be changed many times\n        ELEMAddr = _addr;\n    }\n\n}\n",
  "sourcePath": "/home/kai/Work/project/GameEth/contracts/MemberShip.sol",
  "compiler": {
    "name": "solc",
    "version": "0.5.2+commit.1df8f40c.Linux.g++"
  },
  "schemaVersion": "3.0.1",
  "updatedAt": "2019-02-15T19:31:08.399Z",
  "devdoc": {
    "methods": {}
  },
  "userdoc": {
    "methods": {}
  }
}